:020000040800F2
:10000000002800205D010008A1010008291A00084D
:10001000A1010008A1010008A101000800000000E2
:10002000000000000000000000000000A101000826
:10003000A101000800000000A10100082D1A00081D
:10004000A1010008A1010008A1010008A101000808
:10005000A1010008A1010008A1010008A1010008F8
:10006000A1010008A1010008A1010008A1010008E8
:10007000A1010008A1010008A1010008A1010008D8
:10008000A1010008A1010008A1010008491A000807
:10009000A11F0008A1010008A1010008A10100089A
:1000A000A1010008A1010008A1010008A1010008A8
:1000B000A1010008A101000800000000A101000842
:1000C000A10100080000000000000000A1010008DC
:1000D00000000000A1010008A101000800000000CC
:1000E000A1010008A10100089D1F000800000000F8
:1000F0000000000000000000000000000000000000
:0C01000000000000000000005FF808F1A3
:10010C0010B5054C237833B9044B13B10448AFF345
:10011C0000800123237010BD180000200000000097
:10012C00A02B000808B5034B1BB103490348AFF3E0
:10013C00008008BD000000001C000020A02B00085F
:10014C00034613F8012B002AFBD1181A013870470B
:10015C00002103E00A4B5B584350043109480A4B19
:10016C0042189A42F6D3094A02E0002342F8043BB3
:10017C00074B9A42F9D301F00FFF01F035FF70479E
:10018C00D02C0008000000201800002018000020CF
:10019C0064040020FEE7000030B4BFF34F8FBFF3C0
:1001AC006F8F13230C4A002B4FF001050B4C02F1FF
:1001BC00020006DB03F01F0105FA01F15B0944F8AC
:1001CC002310824205D012F9013B002BF2DA824255
:1001DC00F9D130BC704700BFB12C000800E100E041
:1001EC0013230F4A002B30B402F102004FF001052B
:1001FC000C4C0BDB590903F01F03203105FA03F3F8
:10020C0044F82130BFF34F8FBFF36F8F824205D07C
:10021C0012F9013B002BEDDA8242F9D130BC704768
:10022C00B12C000800E100E0F0B400F07F032F4A8D
:10023C005B0003EBD01302EB03139C7BC2094FEA68
:10024C00840404F1804404F5B84423889BB244D15F
:10025C004FF480552649194041F4004141F080018A
:10026C0013232448002B02464FF0010C224F81EA45
:10027C00050100F102060BDB5D0903F01F032035BD
:10028C000CFA03F347F82530BFF34F8FBFF36F8F92
:10029C00B24205D012F9013B002BEDDAB242F9D192
:1002AC0089B22180BFF34F8FBFF36F8F1323002BC5
:1002BC004FF00105104C06DB03F01F0105FA01F1AC
:1002CC005B0944F82310904205D010F9013B002B38
:1002DC00F2DA9042F9D1F0BC7047084910250B4076
:1002EC0043F4004141F08001BAE700BF64030020F1
:1002FC008FBFFFFFB12C000800E100E0BF8FFFFFB4
:10030C00F0B400F07F03344A5B0003EBD01302EB34
:10031C0003139C7BC2094FEA840404F1804404F566
:10032C00B84423889BB248D123F0700242F40042B7
:10033C0003F4C06342F08002B3F5806F164602D01E
:10034C004FF40056564013232449002B0A464FF015
:10035C00010C234F01F102050BDB580903F01F03BD
:10036C0020300CFA03F347F82030BFF34F8FBFF364
:10037C006F8F954205D012F9013B002BEDDA9542B7
:10038C00F9D12680BFF34F8FBFF36F8F1323002B50
:10039C004FF00105124C06DB03F01F0005FA00F0CC
:1003AC005B0944F823008A4205D011F9013B002B6C
:1003BC00F2DA8A42F9D1F0BC704723F4E04242F4FD
:1003CC00004203F4C06342F08002B3F5806F16461E
:1003DC00B9D02026B6E700BF64030020B12C00087A
:1003EC0000E100E0F0B4154C656805B32B78E489A6
:1003FC002B44DE88083C25443344EC1A002C16DDD3
:10040C00002604E01C782344EC1A002C0FDD5C78E9
:10041C00042CF7D1DC78771C002CF3D19C78844227
:10042C0008D01C78FEB22344EC1A002CEFDC002020
:10043C00F0BC70470E7001201360F9E73C000020FF
:10044C00034B1B68DB0700D500BE0020704700BFC4
:10045C00F0ED00E008B1FFF79FBEFFF7C1BE00BF93
:10046C000020704730B4104A5468CCB12378D58939
:10047C002344DA882C441344E21A002A05DC0FE0EA
:10048C001A781344E21A002A0ADD5A78052AF7D1A1
:10049C009A788242F4D1002330BC01200B70704753
:1004AC00002030BC704700BF3C00002030B40F4B24
:1004BC005D68BDB1DB89083B002B05EB030411DD46
:1004CC002B4604E01A781344E21A002A0ADD5A7803
:1004DC00042AF7D1AA788242F4D1002330BC01203F
:1004EC000B707047002030BC704700BF3C000020F0
:1004FC0030B4104B5C6814B1A378834202D030BC8A
:10050C000020704720782318205CDC88251A002DE9
:10051C00F5DD1C44034404E018780344E01A002879
:10052C00EDDDD8788842F7D1002330BC0120137060
:10053C00704700BF3C000020704700BF0020704790
:10054C004900F0B401F18046570806F5C0466FB17A
:10055C00044631467B1E31F8045B013B24F8025BF8
:10056C005D1CF8D100EB470006EB8706D30748BFAC
:10057C003388F0BC48BF0370704700BF4000F0B434
:10058C0000F18046570806F5C0466FB13446084660
:10059C007B1E30F8025B013B24F8045B5D1CF8D138
:1005AC0001EB470106EB8706D30744BF0B7833807A
:1005BC00F0BC7047034B1B68DB0700D500BE4FF641
:1005CC00FF707047F0ED00E02DE9F04F4FEA810A23
:1005DC000AF1804A478905890AF5B84ABAF80090A9
:1005EC008389ED1B1FFA89F9ADB29D4249F400488D
:1005FC0009F4C06928BF1D46B9F5806F18BF0023E8
:10060C00064648F080087B4A08BFC8F3801303EB0A
:10061C00410032F83000D6F804B089B080B24C00FA
:10062C00BBF1000F00F0AD801DBB1C44E4002F4457
:10063C0004F18044778104F5C044A388B9F5806F38
:10064C0003F47C43C5F3090545EA030508BF012300
:10065C00A58008BFF373684B88F0300808EA0308DC
:10066C00FFF7BEFDAAF80080FFF796FD09B0BDE8C4
:10067C00F08FBBF808C0BBF80A701FFA8CFCBFB235
:10068C00BBF80420BC4536BFC7EB420EACEB070EE3
:10069C00E6441FFA8EFE724509D2964694452CBF4D
:1006AC00ACEB02070CEB0207BFB2ABF80A70BEF161
:1006BC00000F72D0944509D3ACEB020C1FFA8CFCE2
:1006CC006245F9D9BA4203D8BF1ABFB2BA42FBD9B4
:1006DC00DBF800106745009139446CD2AE45F44606
:1006EC004FF0000728BFAC460097CDF808C00CF0BF
:1006FC0001022CF0010E01921FFA8EF2BEF1000FD6
:10070C000AD0CDE904130390FFF738FF039804993E
:10071C001044059B114480B2019AFAB10022ADF845
:10072C001E2091F800C0ADF81EC00FFA8CFC002FF3
:10073C0057D0009A039312F8011B01904CEA012C3C
:10074C0000920DF11E010222ADF81EC0FFF716FF3C
:10075C000198013F0230039BBFB280B22FB13A46E1
:10076C0000990193FFF70AFF019BBBF80A0002995D
:10077C0080B2014489B28842BBF8042010D95000E1
:10078C0013E0002D3FF451AF31682A4639440093F1
:10079C00FFF7F4FE7789009B47E7BBF80A1089B294
:1007AC00B1EB420F4FEA420001DB091A89B2ABF8F8
:1007BC000A10778939E7A2EB070C1FFA8CFCAC45C1
:1007CC0028BFAC46AEEB02021744A5EB0C02BFB23D
:1007DC0092B2974228BF17460CEB070292B20292D4
:1007EC0085E702220DF11E010093FFF7C7FE009B67
:1007FC00BBE700BF00600040BF8FFFFF0A4638B563
:10080C00324B01EB400103EB0111012A897B4CD0E7
:10081C008C0004F1804404F5B84403EB40102588A7
:10082C0003892B4A8089ADB22A40834205F4C06506
:10083C0028BF034642F40042B5F5806F42F08002B7
:10084C0021D03E2B16D801335B089B02002B9BB2A8
:10085C0008BF4FF40043090101F1804101F5C0418B
:10086C008B8182F44055FFF7BBFC2580FFF794FC8D
:10087C00012038BD1F331748C3F34713013B40EA2F
:10088C0083239BB2E7E73E2B17D801335B089B020F
:10089C00002B9BB208BF4FF40043090101F18041CA
:1008AC0001F5C0418B808B81DBE74400601C03EBBE
:1008BC000010FFF789FE012038BD1F330548C3F334
:1008CC004713013B40EA83239BB2E6E76403002015
:1008DC008FBFFFFF0080FFFFF8B5184C0D4604EBEF
:1008EC00D01494F82430C10913F0010003D0BDE8F2
:1008FC00F840FFF7A5BD94F82430114E43F00103E6
:10090C0084F8243006EB01130F0158601A815881CA
:10091C00F551FFF773FF80B994F82430094A60F35E
:10092C00000384F8243094F8243060F3820384F8B4
:10093C0024301368DB0700D500BEF8BD0C01002085
:10094C0064030020F0ED00E030B4094D00222C4689
:10095C000B4608684968AA6003C4EA6093F9003042
:10096C00114630BC9342ACBF80201046FFF7B4BF99
:10097C00B4000020F0B5224F4FEAD01C3B460022B9
:10098C0000F07F050CF102068CF0010E07E05C789C
:10099C008C421ED00132082A03F1040321D09C5D45
:1009AC00D0B2002CF3D1012923D01C78FF2C01D01C
:1009BC00AC42EFD15C78FF2C01D08C42EAD1012300
:1009CC0007F8225007EB8202944451708CF80230E5
:1009DC00F0BD1C78AC42FBD00132082A03F10403B1
:1009EC00DDD1084B186810F00100F1D000BE0020DA
:1009FC00F0BD07EB82047444A478002CCAD1D4E770
:100A0C0050020020F0ED00E0F8B54B79012B02D13B
:100A1C008B79012B01D00020F8BDCB79202BFAD19A
:100A2C000B79012B2CD82BD091F803C0BCF1000F03
:100A3C00F1D14C4C63681BBB84220B46664661604B
:100A4C002070E28101F17C0504E01A781344EA1A63
:100A5C00002A1DDD5A78052AF7D1DA7802F003074F
:100A6C00012FF2D112F0300FEFD19A78D009ECD0DF
:100A7C0098889446C0F30A02964238BF1646E4E7BB
:100A8C00394B186810F00100C6D000BE0020F8BD2C
:100A9C00BCF1000F24D17C2040F2011606E0242B7F
:100AAC0015D00B7819446B1A002B25DD4B78052BD0
:100ABC00F5D1CB7803F00302012AF2D113F0300FF9
:100ACC00EFD18B78DB09ECD08B79E376E9E78B7887
:100ADC00032BE6D18B88B34204BF0B7AA376E0E7F5
:100AEC001CF0780F0BD0FFF7ABFCE3896168083B77
:100AFC00CD1898B2002BCFDC01236373F8BD012114
:100B0C0060460CF07F05FFF735FF3E2E02461FD9DD
:100B1C00202106F11F03C3F34713144E308803FB47
:100B2C0001039BB2B3F5007F338016D8104B16012E
:100B3C0003EB021198530881E0890E4E6168083866
:100B4C0006EB451C03460D188CF81E2080B2D1E72D
:100B5C00731C0221C3F34703DFE7FFF72BFD80B2C1
:100B6C00E4E700BF3C000020F0ED00E07002002044
:100B7C0000600040640300200021FF22F8B51B48F0
:100B8C001B4B0C46A0F84C1003F120011A705A7044
:100B9C009C70DC7004338B42F8D100210846FFF7BF
:100BAC00E9FE00218020FFF7E5FE80254021C027CB
:100BBC004FF480560F4A104B0C481F801181158042
:100BCC000388968123F4786323F00F035B045B0C9A
:100BDC000A4A83F4085383F0200303809181A0F820
:100BEC004C50947391839477F8BD00BF005C004027
:100BFC0050020020006000407002002064030020BE
:100C0C000346044A0C2011681960516859609268B7
:100C1C009A607047E8F7FF1F2DE9F04FA84D85B09B
:100C2C00287B03AA0DF10B01FFF7DCFB20B19DF82B
:100C3C000B30AA6AD35C23B90024204605B0BDE86A
:100C4C00F08F6B680446002B00F0B68095F83320CB
:100C5C00B5F83480EB8ED2091FFA88F89BB26DD1AF
:100C6C002A8E984536BFC3EB4203A8EB03034344DB
:100C7C009BB29A422FD9D71ABFB2602F28BF6027D8
:100C8C00904947B307EB080A3B4617461FFA8AFA06
:100C9C00B845464603D3F61BB6B2BE42FBD2B5F8F6
:100CAC0032B0A7EB0609E86A1FFA89F9CBF30E0BF1
:100CBC004B450BFB060000F2A8800BFB03F201F086
:100CCC005BFF2A8ED0454FEA420345D8BAEB420F60
:100CDC0042DAA5F834A0AB8EE98E9BB289B28B4276
:100CEC00A3EB010338BF03EB42039BB2E98A9342A7
:100CFC0028BF13466889A1B3B1EB820F31DCAF8AF0
:100D0C009F4200F2BD80B5F818804FEA520EA8EB56
:100D1C000106B6B2C6EB52029342DFF8BCC180F2B8
:100D2C00B180DCF80020002A40F0BD800A22B842D5
:100D3C000346CCF8002028BF3B4615E02F8E602FD1
:100D4C0078D8698E5F48C1F30E02C7F1600102FBCF
:100D5C00010198463A4694E7AAEB030A1FFA8AFA6D
:100D6C00B7E7834228BF0346297A574A01F07F0030
:100D7C0002EB400202EBD11292F8246002F1200740
:100D8C0016F001064FEAD1114FEA400516D0FFF7D5
:100D9C0057FB00283FF450AF4C4D4D4A288802F1C8
:100DAC006001034622F8023F914203F101039BB21A
:100DBC00F8D13030288040E72A8E8CE7DFF81CC150
:100DCC000D443A794FEA051E4CF80E600CEB0515F4
:100DDC00DFF80CC142F001022B816E81C5F804C012
:100DEC003A71FFF70BFD0028D6D13B79394A60F3F5
:100DFC0000033B713B7960F382033B711368DB07A3
:100E0C007FF51AAF00BE044617E70BFB09F91FFA72
:100E1C0089F94A460193009101F0AEFE019B0099BD
:100E2C00DF1B3E4406FB0BF6E86A4944B2B201F004
:100E3C00A3FE46E7984536BFC3EB4702A8EB030277
:100E4C00424492B2790060328A4212DB03EB070A09
:100E5C001FFA8AFAAAF160081FFA88F8434504D8E9
:100E6C00414502DD6023174912E7A8EB01081FFA80
:100E7C0088F808F1600A602312491FFA8AFA07E71A
:100E8C00002371E77644B342DCF800200ADD52B946
:100E9C00B94210D00A2240450346CCF8002028BFA6
:100EAC00434661E712B1013ACCF800208842034670
:100EBC0028BF0B4658E74045034628BF434653E737
:100ECC003C000020FC0200200C010020F20200205B
:100EDC00FA020020F0ED00E00C0200206403002078
:100EEC0068000020044B1A7A8A4201D19B6A0BB924
:100EFC0000207047FFF790BE3C00002010B5164B49
:100F0C0082B09889D98993F90040421A92B2402A4A
:100F1C0028BF4022002C10DB88424FF0000006D086
:100F2C000E4902B0BDE81040FFF7D6BC802000216E
:100F3C0002B0BDE81040FFF7CFBC8842F6D09968EC
:100F4C000648019201F018FE80200449019A02B073
:100F5C00BDE81040FFF7C0BCB400002074000020B6
:100F6C00F8B50D461A4E144632464FF0000C49683F
:100F7C0007462868B46003C2A6F80EC0EA889342FC
:100F8C0028BF1346B381EA883AB103B1B4B13846ED
:100F9C00FFF7B4FF60B10120F8BD95F900301146A0
:100FAC00002BACBF80200020FFF796FC0028F2D16C
:100FBC00084B1B68DB0705D500BEF8BD054B1B684D
:100FCC00DA0701D40020F8BD00BE2046F8BD00BFF2
:100FDC00B4000020F0ED00E038B504460589038923
:100FEC0040899BB280B2A288834236BFC0EB4200DC
:100FFC001B1A1B189BB29A42ADB202D8E079C009F9
:10100C0019D095422B4603D39B1A9BB29342FBD229
:10101C00E2882068C2F30E0202FB030001F0ACFD73
:10102C006B1CA2889BB29D424FEA420104D95B1A09
:10103C009BB20120238138BDB3EB420FF9DBF6E7FD
:10104C002DE9F04143780446023B84B0042B0CD8C4
:10105C00DFE803F0203003871A00464B1A78D607D6
:10106C000FD51A7842F004021A70434B21461868C7
:10107C000430FFF7B1FF20B9404B1B68DB0700D5EC
:10108C0000BE04B0BDE8F0813D4A13780133DBB2F9
:10109C001370EAE70021374B1A786FF300021A70CD
:1010AC001A786FF341021A7059701A7861F3820240
:1010BC001A70DAE70025334F2B463A78324EDFF8B8
:1010CC00CC8009E0D8F8002012EB431309D13A7810
:1010DC000135EBB29A420FD39342F3D39B1A06EB32
:1010EC004313DB69002BF2D06168207898470135F7
:1010FC003A78EBB29A42EFD21E4D2B78580719D59D
:10110C00002205262B781C496FF3820308682B708C
:10111C002378043001A9CDE9012203928DF8043023
:10112C008DF80560FFF758FF20B9144B1B68D907E1
:10113C0000D500BEEB78DA07A3D5002303260E4AB0
:10114C00257810686268043001A9019303938DF827
:10115C0005608DF804500292FFF73EFF00288BD0FB
:10116C008FE7044B1A78D5078BD51A786FF3820268
:10117C001A707AE70C01002040010020F0ED00E02D
:10118C000402002038000020EC2B00083400002062
:10119C002DE9F0410C4691F9001082B0002941DA9A
:1011AC001D462378A18803F01F03012B0646174622
:1011BC00C8B22FD0022B39D10DF10701FFF752F92C
:1011CC0080B39DF80730DFF8B080C3EBC30308EBA6
:1011DC00C30393F82420186A954228BF1546AA42E7
:1011EC0020D32A46394601F0C7FC23789DF8072006
:1011FC0003F07F03212B27D0D3009B1A08EBC308E5
:10120C0021462B463046D8F82020FFF7A9FE02B025
:10121C00BDE8F081090A10D00DF10702FFF768F95B
:10122C000028CED1002002B0BDE8F081114B1B6824
:10123C00DB07F7D500BE0020F5E70DF10701FFF73E
:10124C0035F90028BDD1EDE7C2EBC20108EBC101B5
:10125C00A788887ED300B0EB172FCED16088000A08
:10126C000128CAD160780128C7D1086A00680861D2
:10127C00C3E700BFF0ED00E03C0000202DE9F04F8B
:10128C0001290F46144689B006D0022919D001262F
:10129C00304609B0BDE8F08F1378054613F06008AE
:1012AC0023D150780A2800F095800B2839D00128DA
:1012BC0035D0BE4B186810F0010030D000BE464649
:1012CC00E6E7137803F0E002202AE0D103F01F03D5
:1012DC00012B00F09C80022B00F09380B34B1B6819
:1012EC00D90700D500BE0026D2E7B8F1200F07D0F1
:1012FC00AE4B186810F0010011D000BE0026C7E7F5
:10130C00928803F01F03012BD0B200F01981022B3D
:10131C0000F0FA80A54B1B68DB07E4D5EDE7064629
:10132C00B6E793880DF117015FFA83FA504606AAC7
:10133C006788FFF757F806460028D4D0DFF870B25C
:10134C009BF80C30534500F03B819DF81710DBF8EF
:10135C002830FAB25A54BBF80E10DBF80430069F52
:10136C0008391944CB1B002B07DC91E03B781F4458
:10137C00CB1B002B069740F38B807B78042BF5D18D
:10138C00BB785345F2D1FB789342EFD13B79002BDC
:10139C007ED0DDF81890CDE90264CDF804A04C465F
:1013AC009A46894604E02378C2451C4406946BD9BE
:1013BC00A9EB0403002B96DD6378052BF3D1A17800
:1013CC0011F0780F00F00C81784B1B68DC0785D589
:1013DC0000BE83E790880DF1170106AAC0B2FFF793
:1013EC0001F8064600283FF453AF714B9DF81720C7
:1013FC009E6A214632443B462846FFF7B1FD06461D
:10140C0046E7A08806A9C0B2FFF72CF86BE7A388C3
:10141C001E0AD8B200F0BF80F1B206AAFFF768F836
:10142C00064600283FF45FAF9DF81830DFF880B116
:10143C00C3EBC3020BEBC202957E62888D424FEA6E
:10144C00122000F00181617801297FF44CAFA18852
:10145C00090A02297FF447AF382101FB03B30128A5
:10146C00196AD2B2C3B200F0CF81022B7FF452AF13
:10147C00E388022B7FF437AF0B7848784D4943EA69
:10148C00002321F8123003E7DDE902647FF42BAF6F
:10149C009BF81C30012B32D19BF81D207AB39BF8A2
:1014AC001EC0BCF1000F2AD09BF81B703FB3DBF8B9
:1014BC00101021B340488078002800F0A0814FF430
:1014CC00FA50013FBB40DBB201FB03F3B3FBF0F777
:1014DC0002FB0CF207FB0221BBF80AC089B28C4557
:1014EC00C0F0A68100FB17308B1A9BB2002800F0CD
:1014FC009781ABF81430ABF81630ABF818102146C6
:10150C002846FFF721FAC3E60DF11701FEF7AAFFF3
:10151C0000283FF4E8AE94F90030002BFFF6E3AE60
:10152C009DF81730224AC3EBC30302EBC30292F8B7
:10153C00243021462846126AFFF712FD0646A7E61C
:10154C00110A2CD00DF11702FEF7D2FF00283FF440
:10155C00CAAE94F90030002BE2DAA6886288360A0B
:10156C00012E4FEA122100F06A81022ECBB2F0B2AA
:10157C0000F0808104287FF4B6AE012900F08C8144
:10158C00022B7FF4C7AE2146284601230B4AFFF7F6
:10159C00E7FC06467CE606A9FEF788FF78E60DF127
:1015AC001701FEF783FF0028B5D19CE6F0ED00E0B3
:1015BC003C000020600300200C01002009020020E8
:1015CC00C64BABF836808BF80C80ABF834808BF8BC
:1015DC000880CBF81480ABF81880A3F80080B4E630
:1015EC00E378A288BE4803F00303022B8078C2F391
:1015FC000A0200F0FE80032B00F0F280012B66D073
:10160C00FEF71EFF00283FF469AEA0780090FEF7AD
:10161C0077FE0098B24A00F07F0302EB4303C20945
:10162C00134493F824106FF3410183F8241093F8BA
:10163C0024106FF3000183F82410AAB908F10108F3
:10164C00069C5FFA88F8AEE601287FF4FCAE62785F
:10165C00012A7FF448AE382202FB03B2116A0968F2
:10166C0011616288100AEEE6E37813F0300FE5D1D1
:10167C00019B8BF808008BF80C30A388C3F30A038A
:10168C00ABF80A303B783B44A9EB0302002A06DC9A
:10169C0017E01A781344A9EB0302002A11DD5A78DB
:1016AC00042A0ED0242AF4D19A78012A00F0D6808C
:1016BC00022AEED1DA78012A04BF1A798BF81E209F
:1016CC00E7E72846FFF7A8FA0028B7D10BE602286F
:1016DC0040F2FF3308BF4FF480639A4279D8804AB6
:1016EC0001F07F0302EB430303EBD11393F82420A7
:1016FC007C496FF3410283F8242093F82420084698
:10170C006FF3000283F8242093F824206FF38202F5
:10171C0083F8242094F802C0734B5FEADC1214BFE8
:10172C004FF48042402216460CF07F0E4FEA4E02D8
:10173C0002EBDC1203EB02139A7BB4F804C09200A8
:10174C00CCF30A0C02F18042A3F80CC002F5B842AB
:10175C00138801F1030C23F4786323F00F035B046B
:10176C005B0C43EA0E0343F4044343F080037340E1
:10177C00009310F9013B002B0FDB01264FEA531E9F
:10178C0003F01F0306FA03F3584E0EF1200E46F831
:10179C002E30BFF34F8FBFF36F8F8445E9D1BDF867
:1017AC0000301380BFF34F8FBFF36F8F012011F9FF
:1017BC00013B002B07DB4D4E03F01F0200FA02F237
:1017CC005B0946F823208C45F1D11EE7B2F5007F6A
:1017DC0085D0474B1B68D8077FF512AF00BE0FE7CB
:1017EC0002280CBF4FF4806340239A427FF677AFF8
:1017FC00EFE70228EAD0402A7FF671AFE9E74FF411
:10180C007A7001FB07F361E6E388012B7FF46BAD83
:10181C0091F900303749003B18BF01238B5437E551
:10182C009A1AABF81420ABF81630ABF8181066E621
:10183C002F4B1B68DA077FF562AE00BE5FE602290C
:10184C007FF468AD002721462846062306AA069693
:10185C00ADF81C70FFF79CFC064619E59A7A8BF8DC
:10186C001D205A798BF81C205A78242A7FF411AF4A
:10187C009A781DE70129D2B24FD0022B7FF44AADE2
:10188C006178012940D0022914D0194B1B6813F040
:10189C0001033FF428AD30E56378012B16D0022B01
:1018AC007FF438AD214628460E23134AFFF758FB28
:1018BC000646EDE4114E124F21462846082306AA8F
:1018CC00CDE90676FFF764FC0646E1E4214628469E
:1018DC0004230C4AFFF744FB0646D9E4F20200202D
:1018EC000C010020B02C00086403002000E100E093
:1018FC00F0ED00E0DC020020E40200205A000100C0
:10190C000100A6FFE0020020084E214606EB420231
:10191C002846FFF725FB0646BAE4054B21461A4438
:10192C0028460123FFF71CFB0646B1E460030020A8
:10193C00DC0200202DE9F0414FF000081A4C07465C
:10194C0042461A4E23781A4D0DE02B6813EB4213C6
:10195C0022D0DB683846984708F1010823785FFAF3
:10196C0088F2934206D39342A2EB0303EDD806EB25
:10197C004313EEE70F4C34222046002101F0F4F81B
:10198C004FF0FF33C4E90233C4E90533C4E907332C
:10199C0023616360BDE8F081074B1B68DB07F9D559
:1019AC0000BEBDE8F08100BF38000020EC2B000821
:1019BC00340000200C010020F0ED00E008B5054BD0
:1019CC0020221846002101F0CFF80022C286828620
:1019DC0008BD00BF3C00002038B50B4B3422184624
:1019EC00002101F0C1F80346002240250749084CAC
:1019FC0008481962C3E90A400749DA8683F824507B
:101A0C0019639A8638BD00BF3C00002010020020EC
:101A1C0008020020740200206200018000BE7047A2
:101A2C000449054A0B6801330B60136801331360DA
:101A3C00704700BF5C030020F80200202DE9F04F36
:101A4C00A44A91B0B2F8443099B29805009100F1D3
:101A5C000882009B590500F11882009BDA0400F102
:101A6C004382009B1B0500F12482009BDF0500F1E3
:101A7C00B381DFF868B202E0049B180640D4954BA2
:101A8C00B3F84430190468D5924BB3F8447007F09E
:101A9C000F07BC0004F1804404F5B84423889AB2C3
:101AAC001E040492E8D512F40063039365D00BEB8B
:101ABC0007139A891989C2F3090289B2002A00F026
:101ACC0072810BAD2846FEF73BFD40F68F732188E3
:101ADC00082A21F4E04121F0700103EA010343F0EC
:101AEC008003238000F06B817B4B1B68DD0700D5E6
:101AFC0000BE4FF48053ABF80C30049B1806BED5D7
:101B0C002388DFF8DC819BB223F4E04323F07003DD
:101B1C0043F4004343F0800323F080039BB2238003
:101B2C00238803F4C0619AB2B1F5806F03F00F0300
:101B3C004FEA431000F06A8108EB0002518B128BC4
:101B4C008A4200F07E81103039464044FEF73CFD5D
:101B5C00604BB3F84430190496D4009B5A0409D551
:101B6C005D4B1B68DB0700D500BE4BF6FF72594B73
:101B7C00A3F8442011B0BDE8F08F40F68F73228893
:101B8C00DFF85C8122F4E04222F07002134043F053
:101B9C0080032380238803F4C06299B2B2F5806F6E
:101BAC0003F00F0A09BF0B46012383F48043C3F3F0
:101BBC00803303EB4703059202910BEBC30208EB56
:101BCC004A159688D5F804903BF833104FEA4A131F
:101BDC00C6F3090689B20193B9F1000F00F08280B7
:101BEC00002E72D0B9F808C0B9F80A201FFA8CFC84
:101BFC0092B2B9F80400944536BFC2EB400EACEB80
:101C0C00020EE6441FFA8EFE704540F2F3808445C6
:101C1C0005D3ACEB000C1FFA8CFC6045F9D9824261
:101C2C0003D3121A92B29042FBD9D9F800309445E2
:101C3C000693634480F07E81A2EB0C05ADB2B542F5
:101C4C0028BF354600220995069225F0010082B284
:101C5C0005F0010548B1184608910793FEF770FC92
:101C6C000899079B114489B213440793BDB1022212
:101C7C000DA80891FEF764FC079BBDF83420089969
:101C8C001A70BDF834300398023189B21B0A60B166
:101C9C00069A02F8013B431E9BB206920393039BE8
:101CAC001BB11A460698FEF74BFCB9F80820099BA5
:101CBC0092B213449BB29A42B9F8040040F29D8050
:101CCC0042009B1A9BB2A9F80830019B43445889E7
:101CDC0010E000BF005C0040F0ED00E00060004050
:101CEC006403002068892EB12B6832461844FEF735
:101CFC0027FC6889019B304408EB0302938980B26E
:101D0C009E42508124D31289904221D20599B1F57B
:101D1C00806F11D0101A80B2834228BF03463E2B2D
:101D2C0040F2FF801F33964A5B09013B42EA832352
:101D3C009BB20BEB07129381924B029A1A4042F41E
:101D4C00004343F0800383F440539BB2238093E61B
:101D5C003E2B1FD903F11F02C2F34712884B013AE5
:101D6C0043EA82239BB24FF4E062002501990DA84F
:101D7C0088440BEB07118B81B8F80A308DF838A02A
:101D8C000F93ADF834208DF83950FFF759F9C8F896
:101D9C00085071E601335B089B02002B9BB208BF15
:101DAC004FF40043DFE740F68F73228822F4E042C1
:101DBC0022F07002134043F08003238094E64FF42A
:101DCC00C06395E8030010AA02E903000DA8ADF862
:101DDC003430FFF735F94FE66B490B78012B00F0E7
:101DEC00BD80002B40F0C3804FF6FF62674BA3F819
:101DFC0044203EE6B9F808309BB2B3EB400F4FEAF3
:101E0C004002FFF660AF9B1A9BB25CE708EB4311F4
:101E1C00CC7F002C3FF433AE002482F04002C2F39E
:101E2C00801202EB47020BEBC202CC77918801F4D3
:101E3C007C41918008EB0002518B128B8A427FF41B
:101E4C0082AE4FF4E064002163F07F030DA88DF89F
:101E5C0038300F92ADF834408DF83910FFF7F0F8A8
:101E6C000DE64FF6FF534FF44071A2F84430B2F830
:101E7C0048300DA8C3F30A030E93ADF83410FFF7E6
:101E8C00DFF8009B59057FF5E8AD4FF6FF323F4B6D
:101E9C00A3F84420FEF770FE4FF4807200230DA8C7
:101EAC00ADF834208DF83830FFF7CAF811B0BDE822
:101EBC00F08F4FF2FF744FF48061344B0DA8B3F8E0
:101ECC00402092B242F00802A3F84020B3F8402020
:101EDC0092B242F00402A3F84020A3F84440ADF8BB
:101EEC003410FFF7ADF8C0E54EF6FF744FF4A06167
:101EFC00264A0DA8B2F8403023F004031B041B0C37
:101F0C00A2F84030B2F8403023F008031B041B0C3D
:101F1C00A2F84030A2F84440ADF83410FFF790F826
:101F2C009FE501335B089B02002B9BB208BF4FF46B
:101F3C000043FEE6A0EB0C05ADB2B54228BF35461A
:101F4C00ACEB0E0C721B92B21FFA8CFC624528BFD4
:101F5C00624603922A4492B2099276E60B48B0F894
:101F6C00402022F010021204120CA0F840204FF670
:101F7C00FF62013B0B70054BA3F8442079E500BFD1
:101F8C000080FFFF8FBFFFFFDE020020005C0040DF
:101F9C00FFF754BDFFF752BD30B44FF41F054FF09F
:101FAC0000640E4B0E4A19680E4841F0010119608D
:101FBC0059680A405A601A6822F0847222F48032FE
:101FCC001A601A6822F480221A605A6822F4FE02FF
:101FDC005A609D60846030BC704700BF00100240A6
:101FEC000000FFF800ED00E02DE98048A44B95B00F
:101FFC001B78FF2B1BD134220021A24800F0B4FD2A
:10200C000022A14BDFF8A8A2A04DA1498AF800201C
:10201C002B60DA819A81002900F018859D48AFF376
:10202C000080DFF89092C9F8000000F011BD994BC8
:10203C00DFF87CA20093984B944DDFF878920393D1
:10204C00964B0BB1AFF3008000214BF680304FF074
:10205C00010EA8468A4B924ADFF85CC2914F1B785E
:10206C00DFF858B2904C874ECCF800005080D080EE
:10207C00A2F800E087F800E09180118151819181F4
:10208C00FF2B00F04081D8F8005000202B689847B7
:10209C00AA89EB8992B29BB228899A4236BFC3EBCC
:1020AC004001D11A891889B2002900F009818842AF
:1020BC0008D282422CBF131A13189BB2EB8101E099
:1020CC001B1A9BB29842FBD96A896968C2F30E024B
:1020DC0002FB031109A800F04FFDEA89298992B28D
:1020EC00531C9BB29A4240F2188100234A009B1A5F
:1020FC009BB2EB8101202B6898479DF82530013B62
:10210C00072B00F21E81DFE803F0AD9DAB94873600
:10211C000A040A9B002BB6D00B989847B3E79DF89E
:10212C00281001F07F0506EB450000EBD11090F86C
:10213C002420CF096FF3000280F8242090F824208B
:10214C006FF3820280F82420002D00F0F080009BB9
:10215C00027D1B789A4280F0E780D9F8003013EBAF
:10216C00421300F0F5809D699DF829200B9B9DF88A
:10217C002400A84787E79AF80030002B00F0E8808D
:10218C009AF80030013BDBB28AF800309AF8003044
:10219C0003F0FF02002B7FF476AF31789DF82830E6
:1021AC0041F00101317096F8241003F0600562F3E0
:1021BC00000186F8241096F82410602D62F3820139
:1021CC0086F8241096F825109DF8247062F300010F
:1021DC0086F8251096F82510226162F3820186F8A4
:1021EC0025100DD0402D00F07E8203F01F03012B33
:1021FC0000F04982022B00F01A82002B00F0F780CD
:10220C002A4B1B68DF0700D500BE0020FEF70CF838
:10221C008020FEF709F836E73378DA077FF533AF1D
:10222C007378002B14BF4FF47A73FA23CBF8003079
:10223C0029E73378D9077FF526AF40F6C413CBF8DE
:10224C00003020E79DF82400FFF774FB0023FA22EE
:10225C00C4E90033C4E902332361CBF8002012E750
:10226C00F37810E79DF82400FFF764FB00239DF83A
:10227C002820C4E90033C4E902332361B27002E7B9
:10228C00100000200C010020000000204001002064
:10229C000000000038000020EC2B000800000000BB
:1022AC00E402002009020020B4000020F0ED00E060
:1022BC000402002034000020E00200201400002062
:1022CC00EB8942009BB2B3EB400F01DB9B1A9BB234
:1022DC00EB8101202B689847AE4B1B78AE4ADBF89C
:1022EC0000001168AD4A1268891A8142FFF4C8AE29
:1022FC00AB4D02442978A94881F00101FF2B026003
:10230C0029707FF4C0AEA44ADBF800001168A34A20
:10231C001268891A8842E1D8EAE7B3EB410F4FEA19
:10232C004102FFF6E6AEE2E612D19E4B1BE72378A4
:10233C009DF82420B7EBD31F01920B9A0ED0002AE4
:10234C003DD0994B1B68DB077FF59DAE00BE9AE62E
:10235C00954B1B68D807BFD500BEBDE794F900307C
:10236C00002B08DBA06800283FF48DAE8F49029249
:10237C0000F002FC029AE389A168E08813449BB246
:10238C0011449842E381A16002D03F2A00F2AE8151
:10239C00236933B102210198854A9847002800F03F
:1023AC000F82002294F9003011469342B4BF2846A4
:1023BC008020FEF791FA00287FF465AEC1E75D0638
:1023CC0008D16378052B05D1A3787A4A43F08003B2
:1023DC00A2F84C304FF48051774A23699181002B3D
:1023EC003FF451AE03210198714A98474BE6202DDA
:1023FC0000F0D481002D7FF403AF9DF82930092B18
:10240C003FF6FEAE01A252F823F000BF7F25000874
:10241C00632500080D220008472500080D2200083E
:10242C001D250008EB2400080D220008D724000805
:10243C00412400089DF82A5073789D4200F04E818B
:10244C007378002B40F0DA817570002D00F041821A
:10245C000B223378CDE9018A23F0300357493370CE
:10246C000B2A00F07F824FF00108042A40F06182B1
:10247C004FF0000A524B55465A1A009B92B21B78E9
:10248C001BE0D9F8003013EB451300F052821B69A6
:10249C003846CDE904129847DDE9041208280346B2
:1024AC000AF1010A02D9824280F01782009B5FFA7E
:1024BC008AF51B78AB42C0F03C82AB42A5EB030320
:1024CC00DFD8039800EB4313E1E775783846012316
:1024DC0010AA0AA98DF84050FEF742FDD3E5BDF8CD
:1024EC002A301A0A511E06293FF68FAE01A050F869
:1024FC0021F000BF5D2900081F260008D525000823
:10250C001722000817220008172200081F260008AF
:10251C0000230AAA92E803002A4A84E80300C4E9CB
:10252C0002331846C2E9043393610121FEF766F9C0
:10253C00337843F002033370A5E5BDF82A30012B44
:10254C007FF463AE3378384643F008030AA933703E
:10255C00FEF7FAF997E5BDF82A30012B7FF455AE5A
:10256C00337838466FF3C3030AA93370FEF7ECF9DE
:10257C0089E5384633789D0805F00205C3F340130E
:10258C001D43022310AA0AA9ADF84050FEF7E8FC3F
:10259C0079E500BF10000020F8020020F4020020B2
:1025AC00D8020020EC2B0008F0ED00E074000020B5
:1025BC00B4000020005C004000600040152C0008B6
:1025CC00992C00086403002013F0FF0300F0D08165
:1025DC00032B00F00182042B3FF617AEC34A52F8CE
:1025EC0023502846FDF7ACFD20280146034628BFA2
:1025FC002021002800F0C181BD486A1E1346023319
:10260C0012F801CF5B1B994220F802CFF6D80B468B
:10261C00B3E1022A7FF4F9ADB64B38465B88B54A74
:10262C000AA9FEF79DFC00287FF42DADEDE59DF881
:10263C002C0010F0780F7FF4E3AD00F07F0C06EB6C
:10264C004C0303EBD013197D009B1A784FEA4C0313
:10265C00914202934FEAD0136AD2D9F8002002EBD0
:10266C0041120192002D51D0019B002B3FF4CDADB6
:10267C00019B5B693846012123610AAA984700280F
:10268C007FF401ADC1E59DF82C300F2B3FF6BDADAD
:10269C00009A33441B79127893422ED2D9F8002039
:1026AC0012EB43133FF4B1AD5B69012138460AAA22
:1026BC002361984700287FF4E6AC9DF8285015F06C
:1026CC0060057FF4A2AD9DF82930A3F10A02012A1E
:1026DC003FF69BAD0A2B25613FF4F8AE38460AA9AC
:1026EC00FEF732F9CFE4844B23618EE50198FEF7B7
:1026FC0005FC00287FF4C7AC23E67FF486AD7F4B46
:10270C00D2E7002D7FF481AD002201929DF82920A3
:10271C0002F0FD01012916D0002A7FF471AD029A56
:10272C0038463244134493F82450C5F3400528E747
:10273C00E7D1724A0192002D9AD19DF8292002F01E
:10274C00FD010129E8D1BDF82A50ADB9012A049345
:10275C0040D0FDF769FD029B33441A46049B134499
:10276C0093F8242042F0020283F8242093F82420CA
:10277C0042F0010283F82420019B002B3FF483AC30
:10278C005B690AAA2361012138469847002296F812
:10279C0025302261DB073FF576AC9FE79DF82C30A6
:1027AC000F2B3FF632AD33441A79009B1B789A42BB
:1027BC000CD2D9F8003013EB42133FF426AD58E796
:1027CC00FDF732FD8020FDF72FFD5CE47FF41DAD9D
:1027DC004A4B4EE7FDF794FD029B33441A46049B8B
:1027EC00134493F8242065F3410283F8242093F8D2
:1027FC00242065F3000283F82420BDE71323DFF8BF
:10280C0010E13F4ABEF84000002B20F400704FEA64
:10281C0000404FEA1040AEF8400011464FF0010C5A
:10282C0096460CDB374A580903F01F0320300CFA8C
:10283C0003F342F82030BFF34F8FBFF36F8F324B4F
:10284C008B4206D011F9013B002BEBDA2E4B8B425D
:10285C00F8D1724601204FF0000E4FF0FF0C2B4BBD
:10286C0001922B4A043322F820E00130082883F827
:10287C0000C083F801C083F802E083F803E0F0D1D4
:10288C00019ABFF34F8FBFF36F8F1323002B4FF0C1
:10289C00010C8E4607DB1B4903F01F000CFA00F0FD
:1028AC005B0941F82300724505D012F9013B002B5E
:1028BC00F1DA7245F9D1C023B27838460192154A43
:1028CC001380FFF737F8019A7570B270002D7FF402
:1028DC00BFADFA23CBF8003000E7B8F1000F5BD0A6
:1028EC00887800EB0802D2B21AE000BFB42C0008C2
:1028FC00C80000200C2C00086D040008EC2B00080C
:10290C00B12C000800E100E0B32C000850020020BC
:10291C00005C00407002002082428CF804503BD0D6
:10292C0006EB000C9CF804E00130BEF1FF0FC0B2C6
:10293C00F2D0814BDDE9018A1B68D90700D500BEB6
:10294C007D4B1B68DA0700D500BE002373705CE476
:10295C0038461223794A0AA9FEF702FB00287FF4B5
:10296C0092AB52E40B7891F8038019444A787CE5D9
:10297C00734B74491A8801234A8001335B00714AF6
:10298C009BB243F4407538460AA91580FEF7E8FA65
:10299C0000287FF478AB38E40B4499420ED24A7885
:1029AC00052A07D1887800F07F0206EB420202EB81
:1029BC00D01215750A7811448B42F0D8009A12780F
:1029CC00AA42B6D3604A93423DD3DDE9018A4FF463
:1029DC007A73CBF8003081E610210CA8FEF710F9C1
:1029EC001028034628BF1023029348B34FF0000E63
:1029FC00544D0CAB049305970195544F0DF1400CBD
:102A0C0097E80F00049F8CE80F0017F8015B14ABDC
:102A1C00049705F00F0C14AFBC4403EB1517019A87
:102A2C0017F8103C1CF810CC538013460433019358
:102A3C00029B0EF1010E7345A2F804C0DDD8059F70
:102A4C00029B5B0099E719465A7809E5DFF8149167
:102A5C0000243F4A3F4900922346127803910DE02F
:102A6C00D9F8002012EB43135CD05B68002B59D0D3
:102A7C009847009B1A78E3B29A4208D3934204F128
:102A8C000104EDD39B1A039A02EB4313EDE70023E9
:102A9C00314A0893137003E000BF089B013308937D
:102AAC00089BC72BF8D9032100232C4AA2F840100D
:102ABC00079303E000BF079B01330793079BC72BCA
:102ACC00F8D90021254AB2F8403023F002031B0448
:102ADC001B0CA2F84030069103E000BF069B0133AB
:102AEC000693069BC72BF8D900231D4A1B49A1F856
:102AFC004030A1F85030A1F844300B801380938003
:102B0C0013819381138293821383B1F840309BB26B
:102B1C0043F45D43A1F84030FEF72EF8FDF73CFB83
:102B2C00FFF78EBA044B1B68D80700D500BEFDF723
:102B3C0087FCFFF785BA00BFF0ED00E09C2C000885
:102B4C00E82B0008C8000020992C0008B82B0008BE
:102B5C0038000020EC2B000810000020005C004026
:102B6C00045C00403400002003460244934200D130
:102B7C00704703F8011BF9E70A44914200F1FF3357
:102B8C0000D1704710B511F8014B914203F8014F79
:102B9C00F9D110BDF8B500BFF8BC08BC9E46704713
:0C2BAC00F8B500BFF8BC08BC9E4670479E
:102BB800303132333435363738394142434445466B
:102BC8000000000050616E6952436F72700000008F
:102BD8004D69634E6F646500554143320000000043
:102BE8000904000000000000E51900084905000874
:102BF800C9190008150A000889120008F10E000812
:102C08004505000809028D000201008032080B000A
:102C1800020100200009040000000101200009242D
:102C2800010002033C000008240A0401010100110C
:102C38002402010102030401000000000004000056
:102C48000C24030301010102040000000E24060203
:102C5800010F0000000F000000000904010000013E
:102C680002200009040101010102200010240103CF
:102C7800000101000000010000000000062402011C
:102C88000210070581056200010825010000000007
:102C98000000000012010002EF020140FECA1040CD
:102CA800000101020301000013142A00E82B0008A8
:102CB800CC2B0008D82B000800000000E02B0008EF
:042CC80031010008CE
:042CCC000D010008EE
:102CD000610400084401002010000C000000000006
:082CE000FF000000FA000000F3
:040000050800015D91
:00000001FF
