:020000040800F2
:10000000002800205D010008A10100081920000857
:10001000A1010008A1010008A101000800000000E2
:10002000000000000000000000000000A101000826
:10003000A101000800000000A10100081D20000827
:10004000A1010008A1010008A1010008A101000808
:10005000A1010008A1010008A1010008A1010008F8
:10006000A1010008A1010008A1010008A1010008E8
:10007000A1010008A1010008A1010008A1010008D8
:10008000A1010008A1010008A10100081921000830
:1000900005210008A1010008A1010008A101000834
:1000A000A1010008A1010008A1010008A1010008A8
:1000B000A1010008A101000800000000A101000842
:1000C000A10100080000000000000000A1010008DC
:1000D00000000000A1010008A101000800000000CC
:1000E000A1010008A1010008F120000800000000A3
:1000F0000000000000000000000000000000000000
:0C01000000000000000000005FF808F1A3
:10010C0010B5054C237833B9044B13B10448AFF345
:10011C0000800123237010BD3C0000200000000073
:10012C005C30000808B5034B1BB103490348AFF31F
:10013C00008008BD00000000400000205C3000087A
:10014C00034613F8012B002AFBD1181A013870470B
:10015C00002103E00A4B5B584350043109480A4B19
:10016C0042189A42F6D3094A02E0002342F8043BB3
:10017C00074B9A42F9D301F0D3FF01F0F9FF704716
:10018C00E8310008000000203C0000203C0000206A
:10019C0070050020FEE7000030B4BFF34F8FBFF3B3
:1001AC006F8F13230C4A002B4FF001050B4C02F1FF
:1001BC00020006DB03F01F0105FA01F15B0944F8AC
:1001CC002310824205D012F9013B002BF2DA824255
:1001DC00F9D130BC704700BFC931000800E100E024
:1001EC0013230F4A002B30B402F102004FF001052B
:1001FC000C4C0BDB590903F01F03203105FA03F3F8
:10020C0044F82130BFF34F8FBFF36F8F824205D07C
:10021C0012F9013B002BEDDA8242F9D130BC704768
:10022C00C931000800E100E0F0B400F07F032F4A70
:10023C005B0003EBD01302EB03139C7BC2094FEA68
:10024C00840404F1804404F5B84423889BB244D15F
:10025C004FF480552649194041F4004141F080018A
:10026C0013232448002B02464FF0010C224F81EA45
:10027C00050100F102060BDB5D0903F01F032035BD
:10028C000CFA03F347F82530BFF34F8FBFF36F8F92
:10029C00B24205D012F9013B002BEDDAB242F9D192
:1002AC0089B22180BFF34F8FBFF36F8F1323002BC5
:1002BC004FF00105104C06DB03F01F0105FA01F1AC
:1002CC005B0944F82310904205D010F9013B002B38
:1002DC00F2DA9042F9D1F0BC7047084910250B4076
:1002EC0043F4004141F08001BAE700BF70040020E4
:1002FC008FBFFFFFC931000800E100E0BF8FFFFF97
:10030C00F0B400F07F03344A5B0003EBD01302EB34
:10031C0003139C7BC2094FEA840404F1804404F566
:10032C00B84423889BB248D123F0700242F40042B7
:10033C0003F4C06342F08002B3F5806F164602D01E
:10034C004FF40056564013232449002B0A464FF015
:10035C00010C234F01F102050BDB580903F01F03BD
:10036C0020300CFA03F347F82030BFF34F8FBFF364
:10037C006F8F954205D012F9013B002BEDDA9542B7
:10038C00F9D12680BFF34F8FBFF36F8F1323002B50
:10039C004FF00105124C06DB03F01F0005FA00F0CC
:1003AC005B0944F823008A4205D011F9013B002B6C
:1003BC00F2DA8A42F9D1F0BC704723F4E04242F4FD
:1003CC00004203F4C06342F08002B3F5806F16461E
:1003DC00B9D02026B6E700BF70040020C931000850
:1003EC0000E100E0F0B4154C656805B32B78E489A6
:1003FC002B44DE88083C25443344EC1A002C16DDD3
:10040C00002604E01C782344EC1A002C0FDD5C78E9
:10041C00042CF7D1DC78771C002CF3D19C78844227
:10042C0008D01C78FEB22344EC1A002CEFDC002020
:10043C00F0BC70470E7001201360F9E76C000020CF
:10044C00034B1B68DB0700D500BE0020704700BFC4
:10045C00F0ED00E008B1FFF79FBEFFF7C1BE00BF93
:10046C000020704730B4104A5468CCB12378D58939
:10047C002344DA882C441344E21A002A05DC0FE0EA
:10048C001A781344E21A002A0ADD5A78052AF7D1A1
:10049C009A788242F4D1002330BC01200B70704753
:1004AC00002030BC704700BF6C00002030B40F4BF4
:1004BC005D68BDB1DB89083B002B05EB030411DD46
:1004CC002B4604E01A781344E21A002A0ADD5A7803
:1004DC00042AF7D1AA788242F4D1002330BC01203F
:1004EC000B707047002030BC704700BF6C000020C0
:1004FC0030B4104B5C6814B1A378834202D030BC8A
:10050C000020704720782318205CDC88251A002DE9
:10051C00F5DD1C44034404E018780344E01A002879
:10052C00EDDDD8788842F7D1002330BC0120137060
:10053C00704700BF6C000020704700BF0020704760
:10054C004900F0B401F18046570806F5C0466FB17A
:10055C00044631467B1E31F8045B013B24F8025BF8
:10056C005D1CF8D100EB470006EB8706D30748BFAC
:10057C003388F0BC48BF0370704700BF4000F0B434
:10058C0000F18046570806F5C0466FB13446084660
:10059C007B1E30F8025B013B24F8045B5D1CF8D138
:1005AC0001EB470106EB8706D30744BF0B7833807A
:1005BC00F0BC7047034B1B68DB0700D500BE4FF641
:1005CC00FF707047F0ED00E02DE9F04F4FEA810A23
:1005DC000AF1804A478905890AF5B84ABAF80090A9
:1005EC008389ED1B1FFA89F9ADB29D4249F400488D
:1005FC0009F4C06928BF1D46B9F5806F18BF0023E8
:10060C00064648F080087B4A08BFC8F3801303EB0A
:10061C00410032F83000D6F804B089B080B24C00FA
:10062C00BBF1000F00F0AD801DBB1C44E4002F4457
:10063C0004F18044778104F5C044A388B9F5806F38
:10064C0003F47C43C5F3090545EA030508BF012300
:10065C00A58008BFF373684B88F0300808EA0308DC
:10066C00FFF7BEFDAAF80080FFF796FD09B0BDE8C4
:10067C00F08FBBF808C0BBF80A701FFA8CFCBFB235
:10068C00BBF80420BC4536BFC7EB420EACEB070EE3
:10069C00E6441FFA8EFE724509D2964694452CBF4D
:1006AC00ACEB02070CEB0207BFB2ABF80A70BEF161
:1006BC00000F72D0944509D3ACEB020C1FFA8CFCE2
:1006CC006245F9D9BA4203D8BF1ABFB2BA42FBD9B4
:1006DC00DBF800106745009139446CD2AE45F44606
:1006EC004FF0000728BFAC460097CDF808C00CF0BF
:1006FC0001022CF0010E01921FFA8EF2BEF1000FD6
:10070C000AD0CDE904130390FFF738FF039804993E
:10071C001044059B114480B2019AFAB10022ADF845
:10072C001E2091F800C0ADF81EC00FFA8CFC002FF3
:10073C0057D0009A039312F8011B01904CEA012C3C
:10074C0000920DF11E010222ADF81EC0FFF716FF3C
:10075C000198013F0230039BBFB280B22FB13A46E1
:10076C0000990193FFF70AFF019BBBF80A0002995D
:10077C0080B2014489B28842BBF8042010D95000E1
:10078C0013E0002D3FF451AF31682A4639440093F1
:10079C00FFF7F4FE7789009B47E7BBF80A1089B294
:1007AC00B1EB420F4FEA420001DB091A89B2ABF8F8
:1007BC000A10778939E7A2EB070C1FFA8CFCAC45C1
:1007CC0028BFAC46AEEB02021744A5EB0C02BFB23D
:1007DC0092B2974228BF17460CEB070292B20292D4
:1007EC0085E702220DF11E010093FFF7C7FE009B67
:1007FC00BBE700BF00600040BF8FFFFF0A4638B563
:10080C00324B01EB400103EB0111012A897B4CD0E7
:10081C008C0004F1804404F5B84403EB40102588A7
:10082C0003892B4A8089ADB22A40834205F4C06506
:10083C0028BF034642F40042B5F5806F42F08002B7
:10084C0021D03E2B16D801335B089B02002B9BB2A8
:10085C0008BF4FF40043090101F1804101F5C0418B
:10086C008B8182F44055FFF7BBFC2580FFF794FC8D
:10087C00012038BD1F331748C3F34713013B40EA2F
:10088C0083239BB2E7E73E2B17D801335B089B020F
:10089C00002B9BB208BF4FF40043090101F18041CA
:1008AC0001F5C0418B808B81DBE74400601C03EBBE
:1008BC000010FFF789FE012038BD1F330548C3F334
:1008CC004713013B40EA83239BB2E6E77004002008
:1008DC008FBFFFFF0080FFFFF8B5184C0D4604EBEF
:1008EC00D01494F82430C10913F0010003D0BDE8F2
:1008FC00F840FFF7A5BD94F82430114E43F00103E6
:10090C0084F8243006EB01130F0158601A815881CA
:10091C00F551FFF773FF80B994F82430094A60F35E
:10092C00000384F8243094F8243060F3820384F8B4
:10093C0024301368DB0700D500BEF8BD3C01002055
:10094C0070040020F0ED00E030B4094D00222C467C
:10095C000B4608684968AA6003C4EA6093F9003042
:10096C00114630BC9342ACBF80201046FFF7B4BF99
:10097C00E4000020F0B5224F4FEAD01C3B46002289
:10098C0000F07F050CF102068CF0010E07E05C789C
:10099C008C421ED00132082A03F1040321D09C5D45
:1009AC00D0B2002CF3D1012923D01C78FF2C01D01C
:1009BC00AC42EFD15C78FF2C01D08C42EAD1012300
:1009CC0007F8225007EB8202944451708CF80230E5
:1009DC00F0BD1C78AC42FBD00132082A03F10403B1
:1009EC00DDD1084B186810F00100F1D000BE0020DA
:1009FC00F0BD07EB82047444A478002CCAD1D4E770
:100A0C0094020020F0ED00E0F8B54B79012B02D1F7
:100A1C008B79012B01D00020F8BDCB79202BFAD19A
:100A2C000B79012B2CD82BD091F803C0BCF1000F03
:100A3C00F1D14C4C63681BBB90220B46664661603F
:100A4C002070E28101F1880504E01A781344EA1A57
:100A5C00002A1DDD5A78052AF7D1DA7802F003074F
:100A6C00012FF2D112F0300FEFD19A78D009ECD0DF
:100A7C0098889446C0F30A02964238BF1646E4E7BB
:100A8C00394B186810F00100C6D000BE0020F8BD2C
:100A9C00BCF1000F24D1882040F2011606E0242B73
:100AAC0015D00B7819446B1A002B25DD4B78052BD0
:100ABC00F5D1CB7803F00302012AF2D113F0300FF9
:100ACC00EFD18B78DB09ECD08B79E376E9E78B7887
:100ADC00032BE6D18B88B34204BF0B7AA376E0E7F5
:100AEC001CF0780F0BD0FFF7ABFCE3896168083B77
:100AFC00CD1898B2002BCFDC01236373F8BD012114
:100B0C0060460CF07F05FFF735FF3E2E02461FD9DD
:100B1C00202106F11F03C3F34713144E308803FB47
:100B2C0001039BB2B3F5007F338016D8104B16012E
:100B3C0003EB021198530881E0890E4E6168083866
:100B4C0006EB451C03460D188CF81E2080B2D1E72D
:100B5C00731C0221C3F34703DFE7FFF72BFD80B2C1
:100B6C00E4E700BF6C000020F0ED00E0B4020020D0
:100B7C0000600040700400200021FF22F8B51B48E3
:100B8C001B4B0C46A0F84C1003F120011A705A7044
:100B9C009C70DC7004338B42F8D100210846FFF7BF
:100BAC00E9FE00218020FFF7E5FE80254021C027CB
:100BBC004FF480560F4A104B0C481F801181158042
:100BCC000388968123F4786323F00F035B045B0C9A
:100BDC000A4A83F4085383F0200303809181A0F820
:100BEC004C50947391839477F8BD00BF005C004027
:100BFC009402002000600040B40200207004002029
:100C0C000123034A117912688B401361704700BFAE
:100C1C002000002010B40D4A0D4B146885B00DF166
:100C2C00100C032C0FCB0CE90F000BD8094B0CEB61
:100C3C00840454F8102C1968914203D00021C3E9A4
:100C4C000021197205B010BC704700BF9002002043
:100C5C00743000083C0200202DE9F04FAE4C85B0FA
:100C6C00207B03AA0DF10B01FFF7BCFB20B19DF813
:100C7C000B30A26AD35C23B90025284605B0BDE829
:100C8C00F08F63680546002B49D094F83320B4F8F4
:100C9C003480E38ED2091FFA88F89BB240F0908022
:100CAC00228E984536BFC3EB4203A8EB03034344A3
:100CBC009BB29A4233D9D71ABFB2C02F28BFC027D4
:100CCC00964967B307EB080A3B46278E1FFA8AFA48
:100CDC004745464603D8F61BB6B2BE42FBD2B4F823
:100CEC0032B0A7EB0609E06A1FFA89F9CBF30E0BB9
:100CFC0099450BFB0600C0F0B3800BFB03F202F02E
:100D0C0099F9228ED0454FEA420302D8BAEB420F32
:100D1C0003DBAAEB030A1FFA8AFAA4F834A0804A70
:100D2C00136843F002031360FFF774FFA38EE28E87
:100D3C009BB292B2218E934236BFC2EB41029B1AF8
:100D4C009B189BB2E28A8B4228BF0B46608912B17A
:100D5C00B2EB810F41DD834228BF0346217A714AF1
:100D6C0001F07F0002EB400202EBD11292F82460FA
:100D7C0002F1200716F001064FEAD1114FEA4004A8
:100D8C0047D0FFF75DFB00283FF476AF664F634A10
:100D9C003E8802F1C004A6F5A0439BB203F5A04126
:100DAC001180A3F5A04003F5C04153809080D18001
:100DBC000832013394429BB2F0D118363E805CE786
:100DCC00278EC02F61D8618E5448C1F30E02C7F133
:100DDC00C001984602FB010173E7A78A9F427AD8AB
:100DEC00B4F818804FEA510EA8EB0206B6B2C6EB67
:100DFC0051018B42DFF838C16FDADCF800100029A2
:100E0C007CD10A22B8420346CCF8002028BF3B46CE
:100E1C00A4E7DFF820C10C443A794FEA041E4CF8E1
:100E2C000E600CEB0414DFF810C142F001022381B8
:100E3C006681C4F804C03A71FFF7E0FC0028A5D124
:100E4C003B793A4A60F300033B713B7960F38203D0
:100E5C003B711368DB077FF50FAF00BE05460CE74F
:100E6C000BFB09F91FFA89F94A460193009102F02C
:100E7C00E1F8019B0099DF1B3E4406FB0BF6E06A90
:100E8C004944B2B202F0D6F83BE7984536BFC3EB03
:100E9C004702A8EB0302424492B27900C0328A4264
:100EAC0012DB03EB070A1FFA8AFAAAF1C0081FFA31
:100EBC0088F8434504D8414502DDC023174907E7AC
:100ECC00A8EB01081FFA88F808F1C00AC0231349DF
:100EDC001FFA8AFAFCE6002340E77644B342DCF8BA
:100EEC0000100ADD51B9BA4210D00A22404503461F
:100EFC00CCF8002028BF434630E711B10139CCF8BB
:100F0C0000109042034628BF134627E7404503468E
:100F1C0028BF434622E700BF6C000020A00300203E
:100F2C00900200203C0100209A030020F0ED00E02C
:100F3C004C0200207004002098000020044B1A7A08
:100F4C008A4201D19B6A0BB900207047FFF784BE1F
:100F5C006C00002010B5164B82B09889D98993F992
:100F6C000040421A92B2402A28BF4022002C10DBCB
:100F7C0088424FF0000006D00E4902B0BDE8104088
:100F8C00FFF7AABC8020002102B0BDE81040FFF79B
:100F9C00A3BC8842F6D099680648019202F04AF840
:100FAC0080200449019A02B0BDE81040FFF794BCC0
:100FBC00E4000020A4000020F8B50D461A4E14469B
:100FCC0032464FF0000C496807462868B46003C2EB
:100FDC00A6F80EC0EA88934228BF1346B381EA886C
:100FEC003AB103B1B4B13846FFF7B4FF60B1012098
:100FFC00F8BD95F900301146002BACBF80200020C5
:10100C00FFF76AFC0028F2D1084B1B68DB0705D5FB
:10101C0000BEF8BD054B1B68DA0701D40020F8BDF3
:10102C0000BE2046F8BD00BFE4000020F0ED00E05B
:10103C0038B504460589038940899BB280B2A288E1
:10104C00834236BFC0EB42001B1A1B189BB29A425C
:10105C00ADB202D8E079C00919D095422B4603D322
:10106C009B1A9BB29342FBD2E2882068C2F30E0219
:10107C0002FB030001F0DEFF6B1CA2889BB29D42B9
:10108C004FEA420104D95B1A9BB20120238138BD7F
:10109C00B3EB420FF9DBF6E72DE9F0414378044658
:1010AC00023B84B0042B0CD8DFE803F0203003871C
:1010BC001A00464B1A78D6070FD51A7842F004025C
:1010CC001A70434B214618680430FFF7B1FF20B962
:1010DC00404B1B68DB0700D500BE04B0BDE8F081B7
:1010EC003D4A13780133DBB21370EAE70021374B2A
:1010FC001A786FF300021A701A786FF341021A70A3
:10110C0059701A7861F382021A70DAE70025334FAE
:10111C002B463A78324EDFF8CC8009E0D8F8002024
:10112C0012EB431309D13A780135EBB29A420FD343
:10113C009342F3D39B1A06EB4313DB69002BF2D0DB
:10114C0061682078984701353A78EBB29A42EFD231
:10115C001E4D2B78580719D5002205262B781C49D3
:10116C006FF3820308682B702378043001A9CDE952
:10117C00012203928DF804308DF80560FFF758FFBB
:10118C0020B9144B1B68D90700D500BEEB78DA07E1
:10119C00A3D5002303260E4A257810686268043014
:1011AC0001A9019303938DF805608DF80450029208
:1011BC00FFF73EFF00288BD08FE7044B1A78D5073A
:1011CC008BD51A786FF382021A707AE73C010020F3
:1011DC0070010020F0ED00E03402002068000020D7
:1011EC00E8300008640000202DE9F04F4A4A93B023
:1011FC00B2F8443099B29D05039100F12582039B0E
:10120C005C0500F13582039BD80400F16082039BDE
:10121C00190500F14182039BDA0500F1C681DFF864
:10122C00F8B0DFF800A101E030063BD4BBF8443045
:10123C00190461D5BBF8445005F00F05AC0004F15E
:10124C00804404F5B84423889EB21B04ECD516F4F4
:10125C00006E69D00AEB05139A891989C2F3090249
:10126C0089B2002A00F088810DAF3846FFF768F983
:10127C0040F68F732188082A21F4E04121F0700197
:10128C0003EA010343F08003238000F08181234BA8
:10129C001B68DF0700D500BE4FF480533006AAF858
:1012AC000C30C3D523881E4F9BB223F4E04323F0AC
:1012BC00700343F4004343F0800323F080039BB29C
:1012CC002380238803F4C0619AB2B1F5806F03F0D8
:1012DC000F034FEA431000F082813A18518B128BA6
:1012EC008A4200F09681103029463844FFF76CF999
:1012FC00BBF8443019049DD4039B5A0409D5074B01
:10130C001B68DB0700D500BE4BF6FF72024BA3F83F
:10131C00442013B0BDE8F08F005C0040F0ED00E01D
:10132C00700400200060004040F68F722188C14F8D
:10133C0021F4E04121F070010A4042F08002228049
:10134C00228802F4C063B3F5806F91B2069308BF94
:10135C000B4602F00F02029214BF012283F480426A
:10136C00029B08BFC2F3803207EB4319D9F8040083
:10137C0002EB450205910AEBC201B1F8048004901E
:10138C003AF832105B010193C8F30908034689B29D
:10139C00002800F0DA80B8F1000F00F08380028999
:1013AC00408992B280B2B3F80490824236BFC0EB4F
:1013BC00490CA2EB000C94441FFA8CFCE14540F262
:1013CC0002814A4506D37346A2EB090292B29145BB
:1013DC00FAD99E46484506D37346A0EB090080B265
:1013EC008145FAD99E46049B82421B68089313449C
:1013FC00079380F09281A0EB02091FFA89F9C1458D
:10140C0028BFC1460023CDF82C90089329F0010089
:10141C0082B209F0010960B10798CDE9091EFFF706
:10142C008FF8079B099913441144DDF828E089B221
:10143C000793B9F1000F1DD002220FA8CDF828E0B8
:10144C000991FFF77DF8BDF83C20079B09991A70AC
:10145C00BDF83C20DDF828E0023189B2120ABEF159
:10146C00000F0ED008980EF1FF3300F8012B0890F6
:10147C001FFA83FEBEF1000F03D072460898FFF7E7
:10148C005FF8049B1A89B3F804900B9B92B2134437
:10149C009BB29A4240F29A804FEA49029B1A9BB245
:1014AC00049A1381019BFB185889019B4044FA183C
:1014BC00938980B29845508124D31289904221D2CD
:1014CC000699B1F5806F11D0121A92B2934228BFCF
:1014DC0013463E2B40F218811F33574A5B09013BE0
:1014EC0042EA83239BB20AEB05129381534B059A74
:1014FC001A4042F4004343F0800383F440539BB200
:10150C00238091E63E2B2ED903F11F02C2F3471222
:10151C00494B013A43EA82239BB24FF4E0624FF00D
:10152C00000801990FA80F440AEB05118B817B89E8
:10153C00029911938DF84010ADF83C208DF8418044
:10154C00FFF7AAFDC7F808806EE6B9F80A00B8F1F3
:10155C00000FAAD0D9F8003042461844FEF7F0FF2D
:10156C00B9F80A00A1E701335B089B02002B9BB280
:10157C0008BF4FF40043D0E740F68F73228822F463
:10158C00E04222F07002134043F0800323807EE699
:10159C004FF4C06397E8030012AA02E903000FA8F6
:1015AC00ADF83C30FFF778FD3EE625490B78012B72
:1015BC0000F0C980002B40F0CF804FF6FF62214B2A
:1015CC00A3F844202BE6049B1B899BB2B3EB490F79
:1015DC004FEA4902FFF664AF9B1A9BB260E707EB38
:1015EC004311CC7F002C3FF421AE002482F040024A
:1015FC00C2F3801202EB45020AEBC202CC7791884F
:10160C0001F47C4191803A18518B128B8A427FF401
:10161C006AAE4FF4E064002163F07F030FA88DF8ED
:10162C0040301192ADF83C408DF84110FFF734FD7D
:10163C00FCE500BF700400200080FFFF8FBFFFFFA0
:10164C0085030020005C00404FF6FF534FF44071BF
:10165C00A2F84430B2F848300FA8C3F30A03109331
:10166C00ADF83C10FFF718FD039B5C057FF5CBAD87
:10167C004FF6FF323C4BA3F84420FFF77DFA4FF4B2
:10168C00807200230FA8ADF83C208DF84030FFF796
:10169C0003FD13B0BDE8F08F4FF2FF744FF480617F
:1016AC00314B0FA8B3F8402092B242F00802A3F8D5
:1016BC004020B3F8402092B242F00402A3F840203C
:1016CC00A3F84440ADF83C10FFF7E6FCA3E54EF65A
:1016DC00FF744FF4A061244A0FA8B2F8403023F0F5
:1016EC0004031B041B0CA2F84030B2F8403023F06A
:1016FC0008031B041B0CA2F84030A2F84440ADF8C0
:10170C003C10FFF7C9FC82E501335B089B02002B00
:10171C009BB208BF4FF40043E5E6A9EB02091FFAA0
:10172C0089F9C14528BFC146A2EB0C03A8EB0902FD
:10173C009BB292B2934228BF134603EB09029E461A
:10174C0093B20B9362E60848B0F8402022F01002E6
:10175C001204120CA0F840204FF6FF62013B0B70F4
:10176C00014BA3F844205AE5005C00402DE9F04100
:10177C000C4691F9001082B0002941DA1D462378FD
:10178C00A18803F01F03012B06461746C8B22FD0C1
:10179C00022B39D10DF10701FEF764FE80B39DF8E1
:1017AC000730DFF8B080C3EBC30308EBC30393F837
:1017BC002420186A954228BF1546AA4220D32A46EF
:1017CC00394601F037FC23789DF8072003F07F039E
:1017DC00212B27D0D3009B1A08EBC30821462B469C
:1017EC003046D8F82020FFF7E7FB02B0BDE8F081C7
:1017FC00090A10D00DF10702FEF77AFE0028CED1AF
:10180C00002002B0BDE8F081114B1B68DB07F7D557
:10181C0000BE0020F5E70DF10701FEF747FE00289A
:10182C00BDD1EDE7C2EBC20108EBC101A788887EF0
:10183C00D300B0EB172FCED16088000A0128CAD193
:10184C0060780128C7D1086A00680861C3E700BF47
:10185C00F0ED00E06C0000202DE9F04F01290F465F
:10186C00144689B006D0022919D00126304609B099
:10187C00BDE8F08F1378054613F0600823D150783B
:10188C000A2800F095800B2839D0012835D0BE4BA2
:10189C00186810F0010030D000BE4646E6E7137819
:1018AC0003F0E002202AE0D103F01F03012B00F02B
:1018BC009C80022B00F09380B34B1B68D90700D59A
:1018CC0000BE0026D2E7B8F1200F07D0AE4B186847
:1018DC0010F0010011D000BE0026C7E7928803F07B
:1018EC001F03012BD0B200F01981022B00F0FA80FB
:1018FC00A54B1B68DB07E4D5EDE70646B6E79388F6
:10190C000DF117015FFA83FA504606AA6788FEF7B5
:10191C0069FD06460028D4D0DFF870B29BF80C3075
:10192C00534500F03B819DF81710DBF82830FAB2D4
:10193C005A54BBF80E10DBF80430069F08391944D2
:10194C00CB1B002B07DC91E03B781F44CB1B002BFF
:10195C00069740F38B807B78042BF5D1BB785345ED
:10196C00F2D1FB789342EFD13B79002B7ED0DDF89E
:10197C001890CDE90264CDF804A04C469A468946ED
:10198C0004E02378C2451C4406946BD9A9EB0403EC
:10199C00002B96DD6378052BF3D1A17811F0780F2D
:1019AC0000F01381784B1B68DC0785D500BE83E7FC
:1019BC0090880DF1170106AAC0B2FEF713FD06467A
:1019CC0000283FF453AF714B9DF817209E6A2146B7
:1019DC0032443B462846FFF7EFFA064646E7A08816
:1019EC0006A9C0B2FEF73EFD6BE7A3881E0AD8B26B
:1019FC0000F0BF80F1B206AAFEF77AFD0646002879
:101A0C003FF45FAF9DF81830DFF880B1C3EBC30231
:101A1C000BEBC202957E62888D424FEA122000F0D9
:101A2C000881617801297FF44CAFA188090A022949
:101A3C007FF447AF382101FB03B30128196AD2B2F6
:101A4C00C3B200F0D681022B7FF452AFE388022B95
:101A5C007FF437AF0B7848784D4943EA002321F8DF
:101A6C00123003E7DDE902647FF42BAF9BF81C30E6
:101A7C00012B32D19BF81D207AB39BF81EC0BCF110
:101A8C00000F2AD09BF81B703FB3DBF8101021B36A
:101A9C0040488078002800F0A7814FF4FA50013FAD
:101AAC00BB40DBB201FB03F3B3FBF0F702FB0CF220
:101ABC0007FB0221BBF80AC089B28C45C0F0AD818E
:101ACC0000FB17308B1A9BB2002800F09E81ABF8FC
:101ADC001430ABF81630ABF8181021462846FEF738
:101AEC0033FFC3E60DF11701FEF7BCFC00283FF4F1
:101AFC00E8AE94F90030002BFFF6E3AE9DF81730FA
:101B0C00224AC3EBC30302EBC30292F824302146F2
:101B1C002846126AFFF750FA0646A7E6110A2CD09F
:101B2C000DF11702FEF7E4FC00283FF4CAAE94F95D
:101B3C000030002BE2DAA6886288360A012E4FEAC2
:101B4C00122100F07181022ECBB2F0B200F087812D
:101B5C0004287FF4B6AE012900F09381022B7FF4A8
:101B6C00C7AE2146284601230B4AFFF725FA064645
:101B7C007CE606A9FEF79AFC78E60DF11701FEF754
:101B8C0095FC0028B5D19CE6F0ED00E06C0000203F
:101B9C00640400203C01002048020020C64AC749CA
:101BAC001368ABF8368023F002038BF80C80ABF88B
:101BBC0034801360A1F80080FFF72CF88BF80880B4
:101BCC00CBF81480ABF81880ADE6E378A288BC485B
:101BDC0003F00303022B8078C2F30A0200F0FE80AC
:101BEC00032B00F0F280012B66D0FEF729FC0028B5
:101BFC003FF462AEA0780090FEF782FB0098B04AEA
:101C0C0000F07F0302EB4303C209134493F8241042
:101C1C006FF3410183F8241093F824106FF3000143
:101C2C0083F82410AAB908F10108069C5FFA88F819
:101C3C00A7E601287FF4F5AE6278012A7FF441AE65
:101C4C00382202FB03B2116A096811616288100A1A
:101C5C00E7E6E37813F0300FE5D1019B8BF8080031
:101C6C008BF80C30A388C3F30A03ABF80A303B782B
:101C7C003B44A9EB0302002A06DC17E01A78134454
:101C8C00A9EB0302002A11DD5A78042A0ED0242A6B
:101C9C00F4D19A78012A00F0D680022AEED1DA78B3
:101CAC00012A04BF1A798BF81E20E7E72846FEF7B5
:101CBC00D3FF0028B7D104E6022840F2FF3308BF57
:101CCC004FF480639A4279D87D4A01F07F0302EB8E
:101CDC00430303EBD11393F824207A496FF34102A9
:101CEC0083F8242093F8242008466FF3000283F82D
:101CFC00242093F824206FF3820283F8242094F894
:101D0C0002C0714B5FEADC1214BF4FF480424022D8
:101D1C0016460CF07F0E4FEA4E0202EBDC1203EB80
:101D2C0002139A7BB4F804C09200CCF30A0C02F1B3
:101D3C008042A3F80CC002F5B842138801F1030CE1
:101D4C0023F4786323F00F035B045B0C43EA0E036C
:101D5C0043F4044343F080037340009310F9013BB8
:101D6C00002B0FDB01264FEA531E03F01F0306FA6C
:101D7C0003F3564E0EF1200E46F82E30BFF34F8F64
:101D8C00BFF36F8F8445E9D1BDF800301380BFF3EA
:101D9C004F8FBFF36F8F012011F9013B002B07DB35
:101DAC004A4E03F01F0200FA02F25B0946F82320A8
:101DBC008C45F1D11EE7B2F5007F85D0444B1B68F2
:101DCC00D8077FF512AF00BE0FE702280CBF4FF407
:101DDC00806340239A427FF677AFEFE70228EAD080
:101DEC00402A7FF671AFE9E74FF47A7001FB07F3F5
:101DFC005AE6E388012B7FF464AD91F90030354944
:101E0C00003B18BF01238B5430E59A1AABF8142011
:101E1C00ABF81630ABF818105FE62D4B1B68DA07E1
:101E2C007FF55BAE00BE58E602297FF461AD00275A
:101E3C0021462846062306AA0696ADF81C70FFF725
:101E4C0095FC064612E59A7A8BF81D205A798BF888
:101E5C001C205A78242A7FF411AF9A781DE70129A7
:101E6C00D2B250D0022B7FF443AD6178012941D01E
:101E7C00022914D0164B1B6813F001033FF421AD5B
:101E8C0029E56378012B2DD0022B7FF431AD21464F
:101E9C0028460E23104AFFF78FF80646E6E40F4E4D
:101EAC000F4F21462846082306AACDE90676FFF7F0
:101EBC005DFC0646DAE400BF900200209A03002085
:101ECC003C010020C83100087004002000E100E053
:101EDC00F0ED00E0800300208C0300205A0001008C
:101EEC000100A6FF2146284604230B4AFFF764F89D
:101EFC000646BBE4094E214606EB42022846FFF794
:101F0C005BF80646B2E4064B21461A4428460123E8
:101F1C00FFF752F80646A9E4880300206404002069
:101F2C00800300202DE9F0414FF000081A4C0746C1
:101F3C0042461A4E23781A4D0DE02B6813EB4213D0
:101F4C0022D0DB683846984708F1010823785FFAFD
:101F5C0088F2934206D39342A2EB0303EDD806EB2F
:101F6C004313EEE70F4C34222046002101F05AF8BF
:101F7C004FF0FF33C4E90233C4E90533C4E9073336
:101F8C0023616360BDE8F081074B1B68DB07F9D563
:101F9C0000BEBDE8F08100BF68000020E8300008FA
:101FAC00640000203C010020F0ED00E008B5054B7A
:101FBC0020221846002101F035F80022C2868286C4
:101FCC0008BD00BF6C00002038B50B4B34221846FE
:101FDC00002101F027F80346002240250749084C50
:101FEC0008481962C3E90A400749DA8683F8245085
:101FFC0019639A8638BD00BF6C0000205002002087
:10200C0038020020B8020020C800018000BE7047D2
:10201C002E482F4A01682F4B0131016011682E4860
:10202C0001311160126803FB02F3B0EB730F00D2A5
:10203C007047FF2270B402234FF4427449F20360DC
:10204C004FF47F46012525498DB08DF800200A6894
:10205C00ADF80840ADF80C0001AC8DF810308DF8DF
:10206C0020308DF8283002A803AB032AADF80460A9
:10207C008DF818500594CDF81CD009900B931FD8EF
:10208C0004AB03EBC20358684B680C7AC55CA542E1
:10209C0019D804AC14F832400133A342A8BF002372
:1020AC00C25C002AF8D001244B60DB074FF001031F
:1020BC000B4A0C721179126858BF10318B401361A6
:1020CC000DB070BC70470134E4B2EEE76004002040
:1020DC009C030020CDCCCCCC999999193C020020C2
:1020EC001800002008B5FFF77FF8024A1368013387
:1020FC00136008BD5800002008B5FFF775F8024AB8
:10210C0013680133136008BD6000002008B5FFF7A9
:10211C006BF8024A13680133136008BD5C000020A1
:10212C0030B44FF41F054FF000640E4B0E4A196883
:10213C000E4841F00101196059680A405A601A684A
:10214C0022F0847222F480321A601A6822F48022FF
:10215C001A605A6822F4FE025A609D60846030BC9A
:10216C00704700BF001002400000FFF800ED00E0D7
:10217C002DE980489B4B95B05A6802F00C02042A5A
:10218C0000F08E805A6802F00C02082A00F084805D
:10219C00944B954A1846196841F4803119601168BE
:1021AC0003689C037FD413685B1A642BF8D98D48A1
:1021BC008E49436823F4800343600B6813F0060FC9
:1021CC007ED10B6823F0070343F002030B600B680E
:1021DC0003F00703022B73D010AB854A0193002444
:1021EC004FF0010C0F267F4B8248D969824FD96181
:1021FC00996941F03D019961436843F00073436074
:10220C0007EBC4030021D3F804E057F8340011E0C5
:10221C0050F8099098F80580D9F8003008F00F08AC
:10222C0008FA05F523EA0A0301312B437145C9F875
:10223C0000302CDA00EBC10898F8063098F80450FE
:10224C004FEAC10903B9103550F809300CFA05F5FD
:10225C001D6198F804309D00072B06FA05FAD7D9B2
:10226C0050F8095003F0070398F805909B00D5F837
:10227C00048009F00F0906FA03FA09FA03F901318F
:10228C0028EA0A0343EA090371456B60D2DB002C90
:10229C0040F0C2800124B3E75B68DD037FF578AFC3
:1022AC00504B514A1B684F4B596801F00C010829DF
:1022BC0000F03E86002051490860106800F092BD85
:1022CC00484B596841F4E0615960596841F46051D8
:1022DC005960596821F0F001596019688E017FF539
:1022EC007BAF59681C4621F0030141F00201596093
:1022FC00106841F2883104E013681B1A8B423FF6D8
:10230C006BAF636803F00C03082BF5D1374A1368E5
:10231C0003F00703022B0BD9136823F0070343F0D8
:10232C0002031360136803F00703022B7FF454AF0E
:10233C0040F201252B4C10AE6368019623F4E06348
:10234C0043F48063636063682D4A23F460536360D5
:10235C000FCA86E80F00ADF83050636803F00C022A
:10236C00082A00F05C85274B4FF47A711D4A264CE5
:10237C0050681F4AC0F30310205CC340B3FBF1F15B
:10238C000139B1F1807F1360BFF429AFF02700232E
:10239C0007261E4C1E4D206869601E490F2881F8C7
:1023AC002370AB602E603FF61AAFC968C1F30221EF
:1023BC00751A042D01F1040628BF0425062E98BFBA
:1023CC0019464FF0FF3303FA05F388BF033920EAAF
:1023DC0003038B401B010F49DBB281F823302060D3
:1023EC00FDE600BF00100240600400200020024007
:1023FC00000000200000014008310008600042424B
:10240C008430000800127A00D43000083800002014
:10241C0010E000E000ED00E01368B84AA2FB0323D3
:10242C009B09013BB3F1807F09D2F02500200721E5
:10243C00B34AB44C536084F8235090601160B24A94
:10244C00D36943F40003D361B04B1B78FF2B39D114
:10245C0034220021AE4800F0E5FD0022AD4BDFF840
:10246C00E092AD4DAD4989F800202B60DA819A815C
:10247C00002900F06085AA48AFF30080A94F3860AE
:10248C000024A94ADFF898A2039223469AF8002068
:10249C000FE03A6812EB431300F09B855B68002B4E
:1024AC0000F0978598479AF80020E3B2934200F227
:1024BC0045859A4204F10104EBD89B1A039A02EB6E
:1024CC004313EBE7984BDFF87892934D954FDFF879
:1024DC0050A20393FEF794FB002245F6C051012055
:1024EC00C846B946914BDFF85CC2914E914CDFF86F
:1024FC0020B2CCF800105980D980188030709A80A6
:10250C001A815A819A81814B1B78FF2B00F0F58040
:10251C002E68002033689847B289F38992B29BB237
:10252C0030899A4236BFC3EB4001D11A891889B25F
:10253C00002900F00981884208D282422CBF131A6C
:10254C0013189BB2F38101E01B1A9BB29842FBD982
:10255C0072897168C2F30E0202FB031109A800F024
:10256C0069FDF289318992B2531C9BB29A4240F2B6
:10257C00F88000234A009B1A9BB2F3810120336838
:10258C0098479DF82530013B072B00F2FE80DFE8D1
:10259C0003F0A59A978C89360A040A9B002BB7D0B6
:1025AC000B989847B4E79DF8281001F07F060BEBC9
:1025BC00460000EBD11090F82420CF096FF30002F5
:1025CC0080F8242090F824206FF3820280F82420D5
:1025DC00002E00F0D080027D9AF800309A4280F0F4
:1025EC00C780D9F8003013EB421300F0D5809E69F8
:1025FC009DF829200B9B9DF82400B04788E798F89C
:10260C000030002B00F0C88098F80030013BDBB2A2
:10261C0088F8003098F8003003F0FF02002B7FF4AC
:10262C0077AF9BF800109DF8283041F001018BF832
:10263C0000109BF8241003F0600662F300018BF885
:10264C0024109BF82410602E62F382018BF8241066
:10265C009BF825109DF8247062F300018BF825106F
:10266C009BF82510226162F382018BF825100DD0A6
:10267C00402E00F07D8203F01F03012B00F01C8222
:10268C00022B00F04A82002B00F0D6802A4B1B68EC
:10269C00DE0700D500BE0020FDF7C6FD8020FDF74B
:1026AC00C3FD35E79BF8003032E79BF80030DA07C2
:1026BC007FF52EAF0023214A1360FEF7ABFA27E714
:1026CC009BF8033024E79DF82400FFF72BFC002334
:1026DC00C4E90033C4E90233236119E79DF82400EF
:1026EC00FFF720FC00239DF82820C4E90033C4E93F
:1026FC00023323618BF802200AE7FEE7D34D621008
:10270C0010E000E000ED00E000100240140000209A
:10271C003C0100200400002070010020000000009B
:10272C006800002064000020E83000088C030020C2
:10273C0048020020E4000020F0ED00E090020020B0
:10274C003402002088030020F38942009BB2B3EBD3
:10275C00400F01DB9B1A9BB2F38101203368984731
:10276C00D1E6B3EB410F4FEA4102FFF606AF02E7A9
:10277C0012D1C04B3BE723789DF82420B7EBD31F35
:10278C0000920B9A0FD0002A3ED0BB4B1B68DB0784
:10279C007FF5BEAE00BEBBE6B74B1B68D9077FF515
:1027AC00B2AE00BEAFE694F90030002B08DBA06897
:1027BC0000283FF4ADAEB149029200F03BFC029A06
:1027CC00E389A168E08813449BB211449842E381E9
:1027DC00A16002D03F2A00F2CE81236933B10221DD
:1027EC000098A74A9847002800F03082002294F9FC
:1027FC00003011469342B4BF30468020FEF76CF88F
:10280C0000287FF485AEC0E7580608D16378052B05
:10281C0005D1A3789B4A43F08003A2F84C304FF4C7
:10282C008051994A23699181002B3FF471AE0321A9
:10283C000098934A98476BE6202E00F0F181002E09
:10284C007FF424AF9DF82930092B3FF61FAF01A26E
:10285C0052F823F0DF290008BF2900089926000848
:10286C009F29000899260008712900083F290008B3
:10287C009926000829290008892800089DF82A6053
:10288C009BF801309E4200F043819BF80130002BF5
:10289C0040F00B828BF80160002E00F039810B2286
:1028AC009BF80030794923F030038BF80030009509
:1028BC00CDF808800B2A00F08B820126042A40F008
:1028CC00E3814FF00008724B45465A1A92B29AF8BF
:1028DC0000301BE0D9F8003013EB451300F0D48125
:1028EC001B693846CDE904129847DDE90412082823
:1028FC00034608F1010802D9824280F0B1819AF8AE
:10290C0000305FFA88F59D4200F2BE81AB42A5EB28
:10291C000303DFD8039800EB4313E1E79BF8016056
:10292C0038460123019A0AA98DF84060FEF744FB52
:10293C00EEE5BDF82A301A0A511E06293FF6ABAE59
:10294C0001A050F821F000BFB12A0008632A00084A
:10295C00012A0008A3260008A3260008A3260008C5
:10296C00632A000800230AAA92E80300494A84E873
:10297C000300C4E902331846C2E904339361012110
:10298C00FDF73CFF9BF8003043F002038BF800305E
:10299C00BEE5BDF82A30012B7FF47DAE9BF80030EC
:1029AC00384643F008030AA98BF80030FDF7CCFF3A
:1029BC00AEE5BDF82A30012B7FF46DAE9BF80030EC
:1029CC0038466FF3C3030AA98BF80030FDF7BCFF40
:1029DC009EE538469BF800309E0806F00206C3F3CD
:1029EC0040131E430223019A0AA9ADF84060FEF77A
:1029FC00E3FA8DE513F0FF0300F09182032B00F056
:102A0C002482042B3FF647AE234A52F8236030460B
:102A1C00FDF796FB20280146034628BF202158B11C
:102A2C001E48721E1346023312F801CF9B1B9942AB
:102A3C0020F802CFF6D80B4601335B00174A9BB245
:102A4C0043F4407638460AA91680FEF7B5FA0028FA
:102A5C007FF45EAD1FE6022A7FF41DAE104B3846A4
:102A6C005B880F4A0AA9FEF7A7FA00287FF450AD3D
:102A7C0011E600BFE8300008F0ED00E0A4000020F3
:102A8C00E4000020005C00400060004021310008A0
:102A9C00B131000870040020CC310008F80000208F
:102AAC001831000838461223BF4A0AA9FEF784FAE7
:102ABC0000287FF42DADEEE59DF82C300F2B3FF662
:102ACC00EAAD5B441B799AF80020934280F0BA80FF
:102ADC00D9F8002012EB43133FF4DDAD5B69012103
:102AEC0038460AAA2361984700287FF411AD9DF857
:102AFC00286016F060067FF4CEAD9DF82930A3F166
:102B0C000A02012A3FF6C7AD0A2B26613FF408AF33
:102B1C0038460AA9FDF718FFFAE49DF82C0010F0CE
:102B2C00780F7FF4B3AD00F07F0C0BEB4C0303EB91
:102B3C00D013197D9AF800204FEA4C03914202936E
:102B4C004FEAD01335D2D9F8002002EB4112009293
:102B5C00EEB1009B002B3FF49EAD009B5B693846A9
:102B6C00012123610AAA984700287FF4D1AC92E591
:102B7C008E4B23618FE50098FEF7ECF900287FF46B
:102B8C00C7AC02E6002E7FF486AD002200929DF8C1
:102B9C00292002F0FD01012916D0002A7FF476AD20
:102BAC00029A38465A44134493F82460C6F34006FC
:102BBC0018E7E7D17E4A0092002ECED19DF829204D
:102BCC0002F0FD010129E8D1BDF82A60B6B9012A4D
:102BDC00049300F0D480FDF727FB029B5B441A465C
:102BEC00049B134493F8242042F0020283F824201F
:102BFC0093F8242042F0010283F82420009B002B40
:102C0C003FF486AC5B690AAA2361012138469847D8
:102C1C0000229BF825302261DB073FF579AC77E782
:102C2C009DF82C300F2B3FF636AD5B441A799AF891
:102C3C0000309A4210D2D9F8003013EB42133FF413
:102C4C002AAD8BE77FF427AD594B47E7FDF7ECFA3C
:102C5C008020FDF7E9FA5BE47FF41DAD544B7DE772
:102C6C00002E00F0398188788219D2B203E08242BA
:102C7C00357100F031810BEB000696F804C0013081
:102C8C00BCF1FF0FC0B2F2D04A4B009D1B68DDF8BF
:102C9C000880D80700D500BE464B1B68D90700D565
:102CAC0000BE00238BF80130F5E41323DFF818E1A4
:102CBC004149BEF84000002B20F400704FEA004060
:102CCC004FEA1040AEF840000A464FF0010C8E4619
:102CDC000CDB3A49580903F01F0320300CFA03F3BC
:102CEC0041F82030BFF34F8FBFF36F8F344B9342BB
:102CFC0006D012F9013B002BEBDA314B9342F8D1A1
:102D0C00714601204FF0000E4FF0FF0C2D4B00923E
:102D1C002D4A043322F820E00130082883F800C043
:102D2C0083F801C083F802E083F803E0F0D1009A45
:102D3C00BFF34F8FBFF36F8F1323002B4FF0010C9A
:102D4C00964607DB1D4A03F01F000CFA00F05B09E6
:102D5C0042F823008E4505D011F9013B002BF1DA26
:102D6C008E45F9D1C0239BF8022038460092174AB1
:102D7C001380FFF7D7F8009A8BF802208AE5FDF74D
:102D8C00BFFA029B5B441A46049B134493F824201D
:102D9C0066F3410283F8242093F8242066F30002A2
:102DAC0083F824202AE700BFB43100086D04000822
:102DBC00E8300008F0ED00E0C931000800E100E067
:102DCC00CB31000894020020005C0040B4020020CB
:102DDC000B78CE7819444A7870E51168091A0229E3
:102DEC003FF6E5A919688901F7D4012459687D4893
:102DFC0021F40031596059687B4D21F4741141F470
:102E0C00E81159600460116804E013685B1A022B26
:102E1C003FF6CDA92B689F01F7D5FFF7C8B914A9C8
:102E2C00C3F383420A44DD0312F8101C47D56268D1
:102E3C006E4BC2F3404203FB01F314A90A4412F88F
:102E4C00202CB3FBF2F3FFF78FBA694B002B3BD06E
:102E5C0010210CA8AFF300801028034628BF1023C4
:102E6C00009348B34FF0000ECDE904750CAB614EE6
:102E7C000293614F019D97E80F00029F85E80F00B8
:102E8C00BC461CF8017B14ABCDF808C007F00F0C46
:102E9C0003EB171717F8103C14AD7380AC44009B70
:102EAC001CF810CC0EF1010E7345A6F804C006F107
:102EBC000406DED8DDE90475009B5B00BCE54F4BD6
:102ECC0003FB01F3FFF750BA082300934C4B0C9310
:102EDC0003F188330D93C5E70B4499420ED24A781F
:102EEC00052A07D1887800F07F020BEB420202EB37
:102EFC00D01215750A7811448B42F0D89AF800203C
:102F0C00AA42FFF4C1AE3F4A93420ED301233E4A7C
:102F1C00009DDDF808801360FDF77CFEF8E53B4B67
:102F2C0034491A8801234A8086E519465A78C1E447
:102F3C005B68FFF73CB9364FFFF7A2BA0023354A5E
:102F4C000893137003E000BF089B01330893089BA0
:102F5C00C72BF8D9032100232F4AA2F8401007935E
:102F6C0003E000BF079B01330793079BC72BF8D9DE
:102F7C000021294AB2F8403023F002031B041B0C39
:102F8C00A2F84030069103E000BF069B0133069384
:102F9C00069BC72BF8D90023204A1F49A1F84030C3
:102FAC00A1F85030A1F844300B801380938013812A
:102FBC009381138293821383B1F840309BB243F414
:102FCC005D43A1F84030FDF7D7FDFDF7E5F8FFF7BD
:102FDC0081BA134B1B68DC0700D500BEFDF730FA35
:102FEC00FFF778BA600042420010024000127A00EB
:102FFC0000000000F80000209830000800093D0097
:10300C0001234567B131000890020020E43000082C
:10301C006400002014000020005C0040045C0040B0
:10302C00F0ED00E003460244934200D1704703F8F0
:10303C00011BF9E70A44914200F1FF3300D17047BC
:10304C0010B511F8014B914203F8014FF9D110BDA5
:10305C00F8B500BFF8BC08BC9E467047F8B500BF79
:08306C00F8BC08BC9E46704749
:103074000000000001000000000000000200000049
:1030840002030405060708090A0B0C0D0E0F1010A5
:10309400000000003031323334353637383941429C
:1030A400434445460000000050616E6952436F720C
:1030B4007000000054696E79555342204D494320F5
:1030C400342D6368000000005541433200000000C5
:1030D40000000000000000000102030406070809C4
:1030E4000904000000000000D51F0008490500087D
:1030F400B91F0008150A000865180008490F0008E0
:1031040045050008200000200300000018000020EE
:1031140001000000090299000201008032080B003E
:10312400020100200009040000000101200009241C
:103134000100020348000008240A040101010011EF
:103144002402010102030404000000000004000042
:103154000C24030301010102040000001A240602E6
:10316400010F0000000F0000000F0000000F00001E
:10317400000F000000000904010000010220000902
:1031840004010101010220001024010300010100D7
:1031940000000400000000000624020102100705DC
:1031A4008105C8000108250100000000000000009E
:1031B40012010002EF020140FECA144000010102A4
:1031C4000301000013142A00E4300008AC300008A6
:0C31D400B830000800000000CC300008FB
:0431E00031010008B1
:0431E4000D010008D1
:1031E8000024F400610400087401002010000C00A1
:1031F80000000000FF000000001001400D01010068
:10320800000801400F010000000801400B04000005
:0C321800000801400C0400001000000041
:040000050800015D91
:00000001FF
