:020000040800F2
:10000000002800205D010008A1010008211E000851
:10001000A1010008A1010008A101000800000000E2
:10002000000000000000000000000000A101000826
:10003000A101000800000000A1010008251E000821
:10004000A1010008A1010008A1010008A101000808
:10005000A1010008A1010008A1010008A1010008F8
:10006000A1010008A1010008A10100080130000859
:10007000A1010008A1010008A1010008A1010008D8
:10008000A1010008A1010008A1010008511F0008FA
:100090003D1F0008A1010008A1010008A1010008FE
:1000A000A1010008A1010008A1010008A1010008A8
:1000B000A1010008A101000800000000A101000842
:1000C000A10100080000000000000000A1010008DC
:1000D00000000000A1010008A101000800000000CC
:1000E000A1010008A1010008291F0008000000006C
:1000F0000000000000000000000000000000000000
:0C01000000000000000000005FF808F1A3
:10010C0010B5054C237833B9044B13B10448AFF345
:10011C0000800123237010BD40000020000000006F
:10012C00E831000808B5034B1BB103490348AFF392
:10013C00008008BD0000000044000020E8310008E9
:10014C00034613F8012B002AFBD1181A013870470B
:10015C00002103E00A4B5B584350043109480A4B19
:10016C0042189A42F6D3094A02E0002342F8043BB3
:10017C00074B9A42F9D301F0EFFE01F015FF7047DF
:10018C008C330008000000204000002040000020BC
:10019C00C4050020FEE70000F0B4BFF34F8FBFF39F
:1001AC006F8F1323144A002B4FF050054FF00106AC
:1001BC00124F134802F1020414DB03F01F0106FA7C
:1001CC0001F15B0940F8231092F90030002B00EB91
:1001DC00030107DBA24281F800530AD012F9013F58
:1001EC00002BEADA03F00F03043B3B44A2421D76DA
:1001FC00F4D1F0BC704700BF4433000800ED00E0C0
:10020C0000E100E013230F4A002B30B402F102008E
:10021C004FF001050C4C0BDB590903F01F03203187
:10022C0005FA03F344F82130BFF34F8FBFF36F8F00
:10023C00824205D012F9013B002BEDDA8242F9D152
:10024C0030BC70474533000800E100E0F0B400F02A
:10025C007F03224A5B0003EBD01302EB0313997B61
:10026C00C2094FEA810101F1804101F5B8410B88C7
:10027C009BB22BD14FF48054194A1A4042F40042DD
:10028C0042F0800213231748002B4FF00107164E43
:10029C0082EA040200F102050BDB5C0903F01F0388
:1002AC00203407FA03F346F82430BFF34F8FBFF323
:1002BC006F8FA84205D010F9013B002BEDDAA84254
:1002CC00F9D192B20A80F0BCFFF766BF074A10243E
:1002DC00134043F4004242F08002D3E7C4040020F0
:1002EC008FBFFFFF4533000800E100E0BF8FFFFF29
:1002FC00F0B400F07F03274A5B0003EBD01302EB52
:10030C0003139A7BC1094FEA820202F1804202F583
:10031C00B84213889BB22FD123F0700141F40041F5
:10032C0003F4C06341F08001B3F5806F0D4602D039
:10033C004FF400554D4013231749002B4FF0010784
:10034C00164E01F102040BDB580903F01F03203099
:10035C0007FA03F346F82030BFF34F8FBFF36F8FCC
:10036C00A14205D011F9013B002BEDDAA142F9D1E4
:10037C001580F0BCFFF710BF23F4E04141F40041BD
:10038C0003F4C06341F08001B3F5806F0D46D2D009
:10039C002025CFE7C40400204533000800E100E02D
:1003AC00F0B4154C656805B32B78E4892B44DE88D2
:1003BC00083C25443344EC1A002C16DD002604E0DE
:1003CC001C782344EC1A002C0FDD5C78042CF7D13C
:1003DC00DC78771C002CF3D19C78844208D01C78F4
:1003EC00FEB22344EC1A002CEFDC0020F0BC70476A
:1003FC000E7001201360F9E770000020034B1B689E
:10040C00DB0700D500BE0020704700BFF0ED00E018
:10041C0008B1FFF7C1BEFFF7F5BE00BF0020704763
:10042C0030B4104A5468CCB12378D5892344DA8887
:10043C002C441344E21A002A05DC0FE01A7813440A
:10044C00E21A002A0ADD5A78052AF7D19A788242F4
:10045C00F4D1002330BC01200B707047002030BC5D
:10046C00704700BF7000002030B40F4B5D68BDB109
:10047C00DB89083B002B05EB030411DD2B4604E064
:10048C001A781344E21A002A0ADD5A78042AF7D1A2
:10049C00AA788242F4D1002330BC01200B70704743
:1004AC00002030BC704700BF7000002030B4104BEF
:1004BC005C6814B1A378834202D030BC0020704732
:1004CC0020782318205CDC88251A002DF5DD1C44CF
:1004DC00034404E018780344E01A0028EDDDD878D2
:1004EC008842F7D1002330BC01201370704700BF45
:1004FC0070000020704700BF002070474900F0B426
:10050C0001F18046570806F5C0466FB104463146E6
:10051C007B1E31F8045B013B24F8025B5D1CF8D1B7
:10052C0000EB470006EB8706D30748BF3388F0BCC7
:10053C0048BF0370704700BF4000F0B400F1804624
:10054C00570806F5C0466FB1344608467B1E30F896
:10055C00025B013B24F8045B5D1CF8D101EB470105
:10056C0006EB8706D30744BF0B783380F0BC70478B
:10057C00034B1B68DB0700D500BE4FF6FF707047BE
:10058C00F0ED00E02DE9F04F4FEA810A0AF1804AC4
:10059C00478905890AF5B84ABAF800908389ED1B9A
:1005AC001FFA89F9ADB29D4249F4004809F4C069BB
:1005BC0028BF1D46B9F5806F18BF0023064648F0CA
:1005CC0080087B4A08BFC8F3801303EB410032F864
:1005DC003000D6F804B089B080B24C00BBF1000FEB
:1005EC0000F0AD801DBB1C44E4002F4404F180449A
:1005FC00778104F5C044A388B9F5806F03F47C437C
:10060C00C5F3090545EA030508BF0123A58008BF0A
:10061C00F373684B88F0300808EA0308FFF7F2FD23
:10062C00AAF80080FFF7B8FD09B0BDE8F08FBBF861
:10063C0008C0BBF80A701FFA8CFCBFB2BBF80420D0
:10064C00BC4536BFC7EB420EACEB070EE6441FFAB7
:10065C008EFE724509D2964694452CBFACEB020730
:10066C000CEB0207BFB2ABF80A70BEF1000F72D0F0
:10067C00944509D3ACEB020C1FFA8CFC6245F9D9FA
:10068C00BA4203D8BF1ABFB2BA42FBD9DBF800108A
:10069C006745009139446CD2AE45F4464FF00007E3
:1006AC0028BFAC460097CDF808C00CF001022CF026
:1006BC00010E01921FFA8EF2BEF1000F0AD0CDE9A5
:1006CC0004130390FFF738FF039804991044059B1B
:1006DC00114480B2019AFAB10022ADF81E2091F8B3
:1006EC0000C0ADF81EC00FFA8CFC002F57D0009A3A
:1006FC00039312F8011B01904CEA012C00920DF1AE
:10070C001E010222ADF81EC0FFF716FF0198013F33
:10071C000230039BBFB280B22FB13A4600990193CD
:10072C00FFF70AFF019BBBF80A00029980B2014453
:10073C0089B28842BBF8042010D9500013E0002D78
:10074C003FF451AF31682A4639440093FFF7F4FE69
:10075C007789009B47E7BBF80A1089B2B1EB420FCF
:10076C004FEA420001DB091A89B2ABF80A1077890B
:10077C0039E7A2EB070C1FFA8CFCAC4528BFAC4642
:10078C00AEEB02021744A5EB0C02BFB292B2974239
:10079C0028BF17460CEB070292B2029285E70222A1
:1007AC000DF11E010093FFF7C7FE009BBBE700BFD6
:1007BC0000600040BF8FFFFF0A4638B5324B01EB9B
:1007CC00400103EB0111012A897B4CD08C0004F110
:1007DC00804404F5B84403EB4010258803892B4A68
:1007EC008089ADB22A40834205F4C06528BF034618
:1007FC0042F40042B5F5806F42F0800221D03E2BCE
:10080C0016D801335B089B02002B9BB208BF4FF438
:10081C000043090101F1804101F5C0418B8182F453
:10082C004055FFF7EFFC2580FFF7B6FC012038BDE3
:10083C001F331748C3F34713013B40EA83239BB292
:10084C00E7E73E2B17D801335B089B02002B9BB2CA
:10085C0008BF4FF40043090101F1804101F5C0418B
:10086C008B808B81DBE74400601C03EB0010FFF7EF
:10087C0089FE012038BD1F330548C3F34713013BE4
:10088C0040EA83239BB2E6E7C40400208FBFFFFF3E
:10089C000080FFFFF8B5184C0D4604EBD01494F80B
:1008AC002430C10913F0010003D0BDE8F840FFF774
:1008BC00A5BD94F82430114E43F0010384F8243084
:1008CC0006EB01130F0158601A815881F551FFF79F
:1008DC0073FF80B994F82430094A60F3000384F85C
:1008EC00243094F8243060F3820384F824301368A5
:1008FC00DB0700D500BEF8BD40010020C404002079
:10090C00F0ED00E030B4094D00222C460B4608688F
:10091C004968AA6003C4EA6093F90030114630BC00
:10092C009342ACBF80201046FFF7B4BFE800002014
:10093C00F0B5224F4FEAD01C3B46002200F07F0559
:10094C000CF102068CF0010E07E05C788C421ED094
:10095C000132082A03F1040321D09C5DD0B2002C93
:10096C00F3D1012923D01C78FF2C01D0AC42EFD15C
:10097C005C78FF2C01D08C42EAD1012307F822507D
:10098C0007EB8202944451708CF80230F0BD1C7855
:10099C00AC42FBD00132082A03F10403DDD1084B31
:1009AC00186810F00100F1D000BE0020F0BD07EB7C
:1009BC0082047444A478002CCAD1D4E79C02002091
:1009CC00F0ED00E0F8B54B79012B02D18B79012BBE
:1009DC0001D00020F8BDCB79202BFAD10B79012B5B
:1009EC002CD82BD091F803C0BCF1000FF1D14C4C9A
:1009FC0063681BBB76220B46664661602070E28101
:100A0C0001F16E0504E01A781344EA1A002A1DDD80
:100A1C005A78052AF7D1DA7802F00307012FF2D1C0
:100A2C0012F0300FEFD19A78D009ECD09888944618
:100A3C00C0F30A02964238BF1646E4E7394B1868F1
:100A4C0010F00100C6D000BE0020F8BDBCF1000FB4
:100A5C0024D16E2040F2011606E0242B15D00B7821
:100A6C0019446B1A002B25DD4B78052BF5D1CB786F
:100A7C0003F00302012AF2D113F0300FEFD18B787F
:100A8C00DB09ECD08B79E376E9E78B78032BE6D1A5
:100A9C008B88B34204BF0B7AA376E0E71CF0780F87
:100AAC000BD0FFF7ABFCE3896168083BCD1898B21B
:100ABC00002BCFDC01236373F8BD012160460CF0E1
:100ACC007F05FFF735FF3E2E02461FD9202106F188
:100ADC001F03C3F34713144E308803FB01039BB26F
:100AEC00B3F5007F338016D8104B160103EB0211BF
:100AFC0098530881E0890E4E6168083806EB451C56
:100B0C0003460D188CF81E2080B2D1E7731C02210D
:100B1C00C3F34703DFE7FFF72BFD80B2E4E700BF29
:100B2C0070000020F0ED00E0BC02002000600040EE
:100B3C00C40400200021FF22F8B51B481B4B0C46B7
:100B4C00A0F84C1003F120011A705A709C70DC70E4
:100B5C0004338B42F8D100210846FFF7E9FE00214F
:100B6C008020FFF7E5FE80254021C0274FF48056FA
:100B7C000F4A104B0C481F801181158003889681F9
:100B8C0023F4786323F00F035B045B0C0A4A83F4B1
:100B9C00085383F0200303809181A0F84C50947388
:100BAC0091839477F8BD00BF005C00409C0200204C
:100BBC0000600040BC020020C40400200123034A52
:100BCC00117912688B401361704700BF240000201C
:100BDC0010B40D4A0D4B146885B00DF1100C032C9C
:100BEC000FCB0CE90F000BD8094B0CEB840454F819
:100BFC00102C1968914203D00021C3E9002119720D
:100C0C0005B010BC704700BF9802002000320008ED
:100C1C00400200202DE9F04FA34C87B0207B05AAA1
:100C2C000DF11301FFF7BCFB20B19DF81330A26A44
:100C3C00D35C1BB9002007B0BDE8F08F9B4A6168FC
:100C4C00D2F80080DFF884A2B8FA88F35B0913604D
:100C5C0009B35AF8286006EB4606B600B6B2D6B110
:100C6C006C2094F83320B4F834909149E38ED20977
:100C7C0000FB08111FFA89F99BB240F08380228E89
:100C8C00994536BFC3EB4207A9EB03074F44BFB2EC
:100C9C00BA4200F29B800023864A4AF82830136837
:100CAC0043F002031360FFF793FFA38EE28E9BB217
:100CBC0092B2218E934236BFC2EB41029B1A9B1813
:100CCC009BB2E28A8B4228BF0B46608912B1B2EB11
:100CDC00810F17DD834228BF0346217A764C01F041
:100CEC007F0004EB400404EBD11494F8245020341E
:100CFC0015F001054FEAD1114FEA40021ED0FFF763
:100D0C007DFB98E7A68A9E4200F29B80B4F818E01F
:100D1C004FEA510CAEEB0205ADB2C5EB51018B4263
:100D2C00664F80F2A5803968002940F0B0800A2215
:100D3C00B04203463A6028BF3346CEE7604F0A44C0
:100D4C0026794FEA021C47F80C5007EB02125D4F54
:100D5C0046F001061381558157602671FFF72CFD73
:100D6C0000287FF468AF2379574A60F3000323719E
:100D7C00237960F3820323711368DB077FF55AAF85
:100D8C0000BE58E7278EBE4253D2994536BFC3EBFF
:100D9C004702A9EB03024A4492B2780032448242E1
:100DAC000FDB03EB070B1FFA8BFBABEB06091FFAF0
:100DBC0089F94B4501D8484517DCA9EB00091FFA06
:100DCC0089F906EB090B1FFA8BFB0EE0D21B97B2CD
:100DDC00BE4228BF3E46B7B2002F3FF45CAF07EBD4
:100DEC00090B3E46278E1FFA8BFB4F454D4603D809
:100DFC00ED1BADB2AF42FBD9638E7A1BE06A92B2A7
:100E0C00C3F30E03B24203FB05001CD303FB06F233
:100E1C0002F0D6F9228ECB454FEA420302D3BBEB4C
:100E2C00420F03DBABEB030B1FFA8BFBA4F834B0C4
:100E3C0031E7628EF61BC2F30E02994602FB0611D5
:100E4C00CAE7002349E703FB02F292B2CDE9011293
:100E5C000393F61B02F0B4F9DDE90112039B354450
:100E6C0005FB03F31144E06A9AB202F0A9F9D1E749
:100E7C006544AB42396809DD49B9B2420ED00A2249
:100E8C00704503463A6028BF734626E709B101391D
:100E9C0039609042034628BF13461EE7704503464F
:100EAC0028BF734619E700BF7000002080040020A3
:100EBC005C03002098020020400100205402002016
:100ECC00C40400209C000020F0ED00E0340400205D
:100EDC00044B1A7A8A4201D19B6A0BB900207047E5
:100EEC00FFF798BE7000002010B5164B82B09889A1
:100EFC00D98993F90040421A92B2402A28BF402265
:100F0C00002C10DB88424FF0000006D00E4902B0D6
:100F1C00BDE81040FFF7BEBC8020002102B0BDE848
:100F2C001040FFF7B7BC8842F6D09968064801928A
:100F3C0002F046F980200449019A02B0BDE8104045
:100F4C00FFF7A8BCE8000020A8000020F8B50D466B
:100F5C001A4E144632464FF0000C49680746286872
:100F6C00B46003C2A6F80EC0EA88934228BF1346A9
:100F7C00B381EA883AB103B1B4B13846FFF7B4FF94
:100F8C0060B10120F8BD95F900301146002BACBFC3
:100F9C0080200020FFF77EFC0028F2D1084B1B6854
:100FAC00DB0705D500BEF8BD054B1B68DA0701D47D
:100FBC000020F8BD00BE2046F8BD00BFE8000020B0
:100FCC00F0ED00E038B504460589038940899BB2F1
:100FDC0080B2A288834236BFC0EB42001B1A1B189A
:100FEC009BB29A42ADB202D8E079C00919D09542B1
:100FFC002B4603D39B1A9BB29342FBD2E288206808
:10100C00C2F30E0202FB030002F0DAF86B1CA2889A
:10101C009BB29D424FEA420104D95B1A9BB201205C
:10102C00238138BDB3EB420FF9DBF6E72DE9F04134
:10103C0043780446023B84B0042B0CD8DFE803F061
:10104C00203003871A00464B1A78D6070FD51A782A
:10105C0042F004021A70434B214618680430FFF723
:10106C00B1FF20B9404B1B68DB0700D500BE04B0B4
:10107C00BDE8F0813D4A13780133DBB21370EAE727
:10108C000021374B1A786FF300021A701A786FF33D
:10109C0041021A7059701A7861F382021A70DAE7F9
:1010AC000025334F2B463A78324EDFF8CC8009E0DE
:1010BC00D8F8002012EB431309D13A780135EBB282
:1010CC009A420FD39342F3D39B1A06EB4313DB697B
:1010DC00002BF2D061682078984701353A78EBB252
:1010EC009A42EFD21E4D2B78580719D500220526AF
:1010FC002B781C496FF3820308682B70237804301B
:10110C0001A9CDE9012203928DF804308DF8056018
:10111C00FFF758FF20B9144B1B68D90700D500BE48
:10112C00EB78DA07A3D5002303260E4A257810683E
:10113C006268043001A9019303938DF805608DF862
:10114C0004500292FFF73EFF00288BD08FE7044B30
:10115C001A78D5078BD51A786FF382021A707AE752
:10116C004001002074010020F0ED00E03802002066
:10117C006C00002080320008680000202DE9F04F40
:10118C004A4A93B0B2F8443099B29D05039100F1EC
:10119C002582039B5C0500F13582039BD80400F18A
:1011AC006082039B190500F14182039BDA0500F173
:1011BC00C681DFF8F8B0DFF800A101E030063BD4BF
:1011CC00BBF84430190461D5BBF8445005F00F0549
:1011DC00AC0004F1804404F5B84423889EB21B048F
:1011EC00ECD516F4006E69D00AEB05139A891989AF
:1011FC00C2F3090289B2002A00F088810DAF38468B
:10120C00FFF77CF940F68F732188082A21F4E0411E
:10121C0021F0700103EA010343F08003238000F006
:10122C008181234B1B68DF0700D500BE4FF4805330
:10123C003006AAF80C30C3D523881E4F9BB223F47A
:10124C00E04323F0700343F4004343F0800323F0A6
:10125C0080039BB22380238803F4C0619AB2B1F55A
:10126C00806F03F00F034FEA431000F082813A18AD
:10127C00518B128B8A4200F09681103029463844EB
:10128C00FFF780F9BBF8443019049DD4039B5A0432
:10129C0009D5074B1B68DB0700D500BE4BF6FF7268
:1012AC00024BA3F8442013B0BDE8F08F005C004063
:1012BC00F0ED00E0C40400200060004040F68F72A6
:1012CC002188C14F21F4E04121F070010A4042F025
:1012DC0080022280228802F4C063B3F5806F91B241
:1012EC00069308BF0B4602F00F02029214BF0122B4
:1012FC0083F48042029B08BFC2F3803207EB431990
:10130C00D9F8040002EB450205910AEBC201B1F8D1
:10131C00048004903AF832105B010193C8F3090879
:10132C00034689B2002800F0DA80B8F1000F00F013
:10133C0083800289408992B280B2B3F804908242D1
:10134C0036BFC0EB490CA2EB000C94441FFA8CFC8A
:10135C00E14540F202814A4506D37346A2EB0902ED
:10136C0092B29145FAD99E46484506D37346A0EBF6
:10137C00090080B28145FAD99E46049B82421B68C3
:10138C0008931344079380F09281A0EB02091FFA93
:10139C0089F9C14528BFC1460023CDF82C9008938C
:1013AC0029F0010082B209F0010960B10798CDE97A
:1013BC00091EFFF7A3F8079B099913441144DDF8A4
:1013CC0028E089B20793B9F1000F1DD002220FA8B3
:1013DC00CDF828E00991FFF791F8BDF83C20079B68
:1013EC0009991A70BDF83C20DDF828E0023189B269
:1013FC00120ABEF1000F0ED008980EF1FF3300F860
:10140C00012B08901FFA83FEBEF1000F03D0724629
:10141C000898FFF773F8049B1A89B3F804900B9B98
:10142C0092B213449BB29A4240F29A804FEA49021C
:10143C009B1A9BB2049A1381019BFB185889019B40
:10144C004044FA18938980B29845508124D312896C
:10145C00904221D20699B1F5806F11D0121A92B236
:10146C00934228BF13463E2B40F218811F33574A34
:10147C005B09013B42EA83239BB20AEB0512938181
:10148C00534B059A1A4042F4004343F0800383F413
:10149C0040539BB2238091E63E2B2ED903F11F02C1
:1014AC00C2F34712494B013A43EA82239BB24FF4F1
:1014BC00E0624FF0000801990FA80F440AEB0511E8
:1014CC008B817B89029911938DF84010ADF83C20EB
:1014DC008DF84180FFF7AAFDC7F808806EE6B9F8D1
:1014EC000A00B8F1000FAAD0D9F8003042461844CF
:1014FC00FFF704F8B9F80A00A1E701335B089B0277
:10150C00002B9BB208BF4FF40043D0E740F68F731B
:10151C00228822F4E04222F07002134043F0800350
:10152C0023807EE64FF4C06397E8030012AA02E919
:10153C0003000FA8ADF83C30FFF778FD3EE62549D7
:10154C000B78012B00F0C980002B40F0CF804FF6B8
:10155C00FF62214BA3F844202BE6049B1B899BB212
:10156C00B3EB490F4FEA4902FFF664AF9B1A9BB2EB
:10157C0060E707EB4311CC7F002C3FF421AE002435
:10158C0082F04002C2F3801202EB45020AEBC20267
:10159C00CC77918801F47C4191803A18518B128B55
:1015AC008A427FF46AAE4FF4E064002163F07F035B
:1015BC000FA88DF840301192ADF83C408DF84110D9
:1015CC00FFF734FDFCE500BFC40400200080FFFFE2
:1015DC008FBFFFFFA4040020005C00404FF6FF53B8
:1015EC004FF44071A2F84430B2F848300FA8C3F35E
:1015FC000A031093ADF83C10FFF718FD039B5C0534
:10160C007FF5CBAD4FF6FF323C4BA3F84420FFF7F0
:10161C0091FA4FF4807200230FA8ADF83C208DF89E
:10162C004030FFF703FD13B0BDE8F08F4FF2FF74AD
:10163C004FF48061314B0FA8B3F8402092B242F0C6
:10164C000802A3F84020B3F8402092B242F0040202
:10165C00A3F84020A3F84440ADF83C10FFF7E6FC9B
:10166C00A3E54EF6FF744FF4A061244A0FA8B2F81C
:10167C00403023F004031B041B0CA2F84030B2F8DA
:10168C00403023F008031B041B0CA2F84030A2F8D6
:10169C004440ADF83C10FFF7C9FC82E501335B0810
:1016AC009B02002B9BB208BF4FF40043E5E6A9EB6D
:1016BC0002091FFA89F9C14528BFC146A2EB0C03E8
:1016CC00A8EB09029BB292B2934228BF134603EBDC
:1016DC0009029E4693B20B9362E60848B0F840208C
:1016EC0022F010021204120CA0F840204FF6FF62F8
:1016FC00013B0B70014BA3F844205AE5005C004001
:10170C002DE9F04F01290F46144689B006D0022965
:10171C0018D00126304609B0BDE8F08F1378054685
:10172C0013F0600822D150780A2800F0A5800B280D
:10173C0044D0012840D0B34B1E6816F00106E9D006
:10174C0000BE11E0137803F0E002202AE1D103F08F
:10175C001F03012B00F0A780022B40F08780A0888C
:10176C0006A9C0B2FEF75CFE0026D3E7B8F1200F45
:10177C00E1D1928803F01F03012BD0B200F0FA8064
:10178C00022B73D10DF11601FEF74AFE0028EBD0A7
:10179C0094F90030002BE7DB9DF816309A4AC3EB26
:1017AC00C30302EBC30292F8243021462846126A86
:1017BC00FFF7CCFB0646ADE70646ABE793880DF189
:1017CC0017015FFA83FB584606AA6788FEF7E8FD07
:1017DC0006460028C8D0DFF830A29AF80C305B45DA
:1017EC0000F0FC80DAF828309DF81710FAB25A5441
:1017FC00BAF80E90DAF80430069FA9F1080999445A
:10180C00A9EB0703002B07DC78E03B781F44A9EB1E
:10181C000703002B069771DD7B78042BF5D1BB7881
:10182C005B45F2D1FB789342EFD13B79002B65D02D
:10183C00069ACDE90264CDF804B014469B4604E048
:10184C002278C3451444069454D9A9EB0402002A07
:10185C008ADD6278052AF3D1A17811F0780F00F0B7
:10186C00DB80684B1B68D80700D500BE654B1B6836
:10187C00DA077FF579AF63E790880DF1170106AAB7
:10188C00C0B2FEF78DFD064600283FF443AF5E4B19
:10189C009DF817209E6A214632443B462846FFF7A6
:1018AC0055FB064636E7A388D8B21B0A00F08A809F
:1018BC00D9B206AAFEF7FAFD00283FF455AF9DF801
:1018CC0018305148C3EBC30200EBC202927E8A422D
:1018DC007FF44AAF6288120A012A7FF445AF62781E
:1018EC00012A7FF441AF382202FB03031A6A126803
:1018FC001A6139E7DDE902647FF436AF9AF81C30DF
:10190C00012B32D19AF81D207AB39AF81EC0BCF183
:10191C00000F2AD09AF81B703FB3DAF8101021B3DD
:10192C003A488078002800F053814FF4FA50013F78
:10193C00BB40DBB201FB03F3B3FBF0F702FB0CF291
:10194C0007FB0221BAF80AC089B28C45C0F0548159
:10195C0000FB17308B1A9BB2002800F05481AAF8B8
:10196C001430AAF81630AAF8181021462846FEF7AB
:10197C00C9FFCFE6110A29D00DF11602FEF796FD2C
:10198C0000283FF4F1AE94F90030002BBFF604AF01
:10199C00A0886388020A012A4FEA132300F03B81D6
:1019AC00042A7FF4E1AE012BDAB200F07E81022A28
:1019BC007FF45CAF214628460123154AFFF7C6FA8F
:1019CC000646A7E606A9FEF74FFDCDE60DF116017A
:1019DC00FEF74AFD00287FF4DBAEC5E60D4AAAF8F7
:1019EC00368013688AF80C8023F00203AAF834803E
:1019FC001360FFF7EDF88AF80880CAF81480AAF88B
:101A0C001880EFE6F0ED00E07000002040010020AF
:101A1C005002002098020020E078BC4EA28800F012
:101A2C000300022896F802C0C2F30A0200F0DE801E
:101A3C00032800F0D280012855D0FEF7DFFC0028E7
:101A4C003FF414AFA0780090FEF752FC009800F021
:101A5C007F0206EB4202C1090A4492F824606FF33C
:101A6C00410682F8246092F824606FF3000682F835
:101A7C00246029B908F10108069C5FFA88F8DFE6B2
:101A8C00E27812F0300FF5D1019B8AF808008AF841
:101A9C000C30A288C2F30A02AAF80A203A783A4417
:101AAC00A9EB0201002906DC17E013781A44A9EB14
:101ABC000203002B11DD5378042B0ED0242BF4D110
:101ACC009378012B00F0E580022BEED1D378012B1B
:101ADC0004BF13798AF81E30E7E72846FFF79AF817
:101AEC000028C7D140E6BCF1020F40F2FF3008BF1E
:101AFC004FF48060824264D801F07F0206EB420210
:101B0C0002EBD11292F82410DFF818C26FF34101E6
:101B1C0082F8241092F824107D486FF3000182F8AB
:101B2C00241092F824106FF3820182F82410A1780B
:101B3C00CB0914BF4FF48043402301F07F0E4FEAD2
:101B4C004E0202EBD1120CEB0212917BB4F804C0E2
:101B5C008900CCF30A0C01F18041A2F80CC001F50C
:101B6C00B8410A8822F4786222F00F025204520C17
:101B7C0042EA0E0242F4044242F08002534000F169
:101B8C00030E009310F9012B002A0FDB01234FEAFF
:101B9C00521C02F01F0203FA02F25E4B0CF1200CF5
:101BAC0043F82C20BFF34F8FBFF36F8F7045E9D1F3
:101BBC00009B9AB20A80FEF7EFFA43E7B2F5007F7A
:101BCC009AD0554B1A68D1077FF537AF00BE34E772
:101BDC004FF47A7001FB07F3AEE6BCF1020F0CBFB9
:101BEC004FF480604020824286D9EAE7BCF1020FB4
:101BFC00E4D0402A80D9E4E7474B1B68DB077FF52C
:101C0C00B4AE00BEB1E69A1AAAF81420AAF816309F
:101C1C00AAF81810A9E6022B7FF428AE002123782D
:101C2C00069203F01F03012BC0B2ADF81C105CD060
:101C3C00022B7FF41BAE0DF11701FEF7F1FB002810
:101C4C003FF492AD38269DF81730DFF8DCA006FB88
:101C5C0003A393F82470186A062F3A4628BF062768
:101C6C00BA42FFF481AD3A4606A901F0A9FA2378ED
:101C7C009DF8170003F07F03212B24D0382606FB98
:101C8C0000A63B46326A21462846FFF75FF9064616
:101C9C0040E5937A8AF81D3053798AF81C305378D2
:101CAC00242B7FF402AF93780EE76378012B24D0BA
:101CBC00022B7FF4DBAD214628460E23174AFFF793
:101CCC0045F9064626E506FB00A1A2888B7EB3EB00
:101CDC00122FD3D163881B0A012BCFD16378012B30
:101CEC00CCD10B6A1B680B61C8E701210DF11702FF
:101CFC00FEF7DCFB0028A5D136E521462846042357
:101D0C00074AFFF723F9064604E500BF400100200F
:101D1C004433000800E100E0F0ED00E0AC040020EA
:101D2C00A8040020C4040020700000202DE9F0411C
:101D3C004FF000081A4C074642461A4E23781A4DAB
:101D4C000DE02B6813EB421322D0DB683846984722
:101D5C0008F1010823785FFA88F2934206D3934284
:101D6C00A2EB0303EDD806EB4313EEE70F4C342242
:101D7C002046002101F0DAF94FF0FF33C4E90233B9
:101D8C00C4E90533C4E9073323616360BDE8F0811E
:101D9C00074B1B68DB07F9D500BEBDE8F08100BF1F
:101DAC006C000020803200086800002040010020F8
:101DBC00F0ED00E008B5054B20221846002101F09B
:101DCC00B5F90022C286828608BD00BF70000020D3
:101DDC0038B50B4B34221846002101F0A7F9034605
:101DEC00002240250749084C08481962C3E90A40FB
:101DFC000749DA8683F8245019639A8638BD00BFE8
:101E0C0070000020580200203C020020C00200207C
:101E1C006C00018000BE704739483A4A01683A4B61
:101E2C00013101601168013111601268A3FB0213CA
:101E3C00DB0803EB8303B2EB430302D0012B4AD044
:101E4C007047FF2270B4022341F6191449F2036063
:101E5C004FF47F4601252D498DB08DF800200A687E
:101E6C00ADF80840ADF80C0001AC8DF810308DF8D1
:101E7C0020308DF8283002A803AB032AADF804609B
:101E8C008DF818500594CDF81CD009900B931FD8E1
:101E9C0004AB03EBC20358684B680C7AC55CA542D3
:101EAC002AD804AC14F832400133A342A8BF002353
:101EBC00C25C002AF8D001244B60DB074FF0010311
:101ECC00134A0C721179126858BF10318B40136190
:101EDC000DB070BC70470F4B0F4899689A68490B4E
:101EEC009B6801F00201C2F340320A43C3F3003392
:101EFC0043EA4203036070470134E4B2DDE700BFFC
:101F0C00C0040020BC040020CDCCCCCC400200206E
:101F1C001C000020000C01401800002008B5FFF741
:101F2C002DF9024A13680133136008BD5C000020D0
:101F3C0008B5FFF723F9024A13680133136008BD93
:101F4C006400002008B5FFF719F9024A1368013341
:101F5C00136008BD6000002030B44FF41F054FF033
:101F6C0000640E4B0E4A19680E4841F001011960CD
:101F7C0059680A405A601A6822F0847222F480323E
:101F8C001A601A6822F480221A605A6822F4FE023F
:101F9C005A609D60846030BC704700BF00100240E6
:101FAC000000FFF800ED00E02DE980489B4B95B058
:101FBC005A6802F00C02042A00F08E805A6802F073
:101FCC000C02082A00F08480944B954A1846196834
:101FDC0041F480311960116803689D037FD4136844
:101FEC005B1A642BF8D98D488E49436823F480031F
:101FFC0043600B6813F0060F7ED10B6823F00703C8
:10200C0043F002030B600B6803F00703022B73D041
:10201C0010AB854D019300204FF0010C0F267F4B28
:10202C008249DA69824FDA619A6942F03D029A611B
:10203C004B6843F000734B6007EBC0030022D3F8EE
:10204C0004E057F8301011E051F8099098F8058029
:10205C00D9F8003008F00F0808FA04F423EA0A0350
:10206C00013223437245C9F800302CDA01EBC20867
:10207C0098F8063098F804404FEAC20903B91034B6
:10208C0051F809300CFA04F41C6198F804309C00E7
:10209C00072B06FA04FAD7D951F8094003F00703C5
:1020AC0098F805909B00D4F8048009F00F0906FA03
:1020BC0003FA09FA03F9013228EA0A0343EA09038D
:1020CC0072456360D2DB002840F0C2800120B3E788
:1020DC005B68DE037FF578AF504B514A1B684F4B62
:1020EC00596801F00C01082900F0FB8600205149C9
:1020FC000860106800F04ABE484B596841F4E06132
:10210C005960596841F460515960596821F0F001E7
:10211C005960196889017FF57BAF59681C4621F01D
:10212C00030141F002015960106841F2883104E06A
:10213C0013681B1A8B423FF66BAF636803F00C03FA
:10214C00082BF5D1374A136803F00703022B0BD980
:10215C00136823F0070343F002031360136803F0C2
:10216C000703022B7FF454AF40F201252B4C10AE29
:10217C006368019623F4E06343F4806363606368EF
:10218C002D4A23F4605363600FCA86E80F00ADF844
:10219C003050636803F00C02082A00F05386274B7A
:1021AC004FF47A721D49264849681F4DC1F303113B
:1021BC00415CCB40B3FBF2F2013AB2F1807F2B6071
:1021CC00BFF429AFF027002307261E481E4C0168D8
:1021DC0062601E4A0F2982F82370A36026603FF6C6
:1021EC001AAFD268C2F30222B41A042C02F104060C
:1021FC0028BF0424062E98BF1A464FF0FF3303FA6B
:10220C0004F388BF033A21EA030393401B010F4AEE
:10221C00DBB282F823300160FDE600BF0010024003
:10222C00C0040020002002400000002000000140FB
:10223C00A0320008600042423032000800127A00DE
:10224C006C3200083C00002010E000E000ED00E0E3
:10225C002B68A24AA2FB03239B09013BB3F1807FAD
:10226C0009D2F026002007219D4A9E4C536084F829
:10227C0023609060116030219B4805240246994BE5
:10228C0083F82310994BD96941F40001D9619969FC
:10229C0041F400719961D96941F00201D961596920
:1022AC0041F001015961596841F440415960846021
:1022BC0093685E07FCD54FF4807E20274FF0000C0E
:1022CC00182440F2A1504FF00F11894E894B5663E0
:1022DC00894E1363D662894B894ED3601361C2F861
:1022EC0004E096602B687D4A864EA2FB0332D20A2C
:1022FC00013AF262844B7760DFF86CE2834F844AD8
:10230C00C6F824C0C3F800C0C3F80CE09F605C6042
:10231C00186051601A6842F006021A604FF40062AD
:10232C007C4B1A6010240121042283F80B437A4859
:10233C00DFF83882794BC0F800C0C8F800C03160B3
:10234C001A60F26A2B6802EB010EB3FBFEF3D6F8AF
:10235C0028E0734C734F8E44B3FBFEFE0FCF6160CD
:10236C0021463F78E360704B2060A26006200A2271
:10237C0001F8107FC3F800E0C8F804C000F0D4FEE8
:10238C002046FDF7DDFE024668492B680868684D5B
:10239C00A050F06AB16A0130B3FBF0F30131B3FB2A
:1023AC00F1F3002BB8BF03336249981001FB0053C3
:1023BC006149B1EBF30FC0F0D3844FF47A7303325D
:1023CC0090FBF3F0A1180A2200F0AEFE5448FDF782
:1023DC00B7FE0346594A1068E050594B1B78FF2B47
:1023EC0039D134220021574800F0A0FE0022564B70
:1023FC00DFF87CA1554D56498AF800202B60DA8114
:10240C009A81002900F070855248AFF30080DFF804
:10241C006491C9F8000000244F4A4E4F03922346A2
:10242C003A780FE0D9F8002012EB431300F0AB859B
:10243C005B68002B00F0A78598473A78E3B293428B
:10244C0000F256859A4204F10104EBD89B1A039AC8
:10245C0002EB4313ECE7404BDFF814A13B4DDFF8E4
:10246C0014913C4F0393FEF7A9FB00224FF4FA5151
:10247C000120C846B946394BDFF8FCC0384E394C00
:10248C00DFF8C0B0CCF800105980D98018803070BB
:10249C009A801A815A819A81294B1B78FF2B00F064
:1024AC0047812E68002033689847B289F38992B22D
:1024BC009BB230899A4236BFC3EB4001D11A8918BE
:1024CC0089B2002900F03581884259D282422CBF52
:1024DC00131A13189BB2F38152E000BFD34D621054
:1024EC0010E000E000ED00E000240140001002408C
:1024FC000FBCF0046F3CF20ACFBCB3004992240924
:10250C000101980000040040080002404C240140E6
:10251C000000024000E100E0540300203C040020D5
:10252C0084040020103200085803002024320008D4
:10253C00D8240601D578E9263689410028320008CE
:10254C001400002040010020040000207401002031
:10255C00000000006C00002080320008AC04002059
:10256C0050020020E8000020400400203404002029
:10257C003802002068000020A80400201B1A9BB21F
:10258C009842FBD972897168C2F30E0202FB0311E7
:10259C0009A800F015FEF289318992B2531C9BB246
:1025AC009A4240F2D38000234A009B1A9BB2F381DB
:1025BC000120336898479DF82530013B072B00F22A
:1025CC00D980DFE803F0A69B988D8A370B040A9B11
:1025DC00002B3FF466AF0B98984762E79DF82810E4
:1025EC0001F07F060BEB460000EBD11090F8242095
:1025FC00CF096FF3000280F8242090F824206FF3A9
:10260C00820280F82420002E00F0AA80027D99F826
:10261C0000309A4280F0A180D8F8003013EB4213BE
:10262C0000F0AF809E699DF829200B9B9DF824003B
:10263C00B04736E79AF80030002B00F0A2809AF8E9
:10264C000030013BDBB28AF800309AF8003003F01E
:10265C00FF02002B7FF425AF9BF800109DF828306B
:10266C0041F001018BF800109BF8241003F0600678
:10267C0062F300018BF824109BF82410602E62F397
:10268C0082018BF824109BF825109DF8247062F3BE
:10269C0000018BF825109BF82510226162F3820152
:1026AC008BF825100DD0402E00F0548203F01F0340
:1026BC00012B00F01F82022B00F0F081002B00F0A8
:1026CC00B080BF4B1B68DE0700D500BE0020FDF7B5
:1026DC00BDFD8020FDF7BAFDE3E69BF80030E0E697
:1026EC009BF80030DA077FF5DCAE0023B54A1360A7
:1026FC00FEF76EFAD5E69BF80330D2E69DF824007F
:10270C00FFF714FB0023C4E90033C4E9023323614F
:10271C00C7E69DF82400FFF709FB00239DF828204D
:10272C00C4E90033C4E9023323618BF80220B8E614
:10273C00FEE7F38942009BB2B3EB400F01DB9B1A1F
:10274C009BB2F381012033689847A5E6B3EB410FA8
:10275C004FEA4102FFF62BAF27E712D19A4B61E704
:10276C0023789DF82420B7EBD31F00920B9A0FD03F
:10277C00002A3ED0924B1B68DB077FF592AE00BE61
:10278C008FE68F4B1B68D9077FF586AE00BE83E6BC
:10279C0094F90030002B08DBA06800283FF481AED0
:1027AC008A49029200F00CFD029AE389A168E08844
:1027BC0013449BB211449842E381A16002D03F2A9A
:1027CC0000F2CB81236933B102210098804A9847EB
:1027DC00002800F02C82002294F90030114693421C
:1027EC00B4BF30468020FEF755F800287FF459AE70
:1027FC00C0E7580608D16378052B05D1A378754A34
:10280C0043F08003A2F84C304FF48051724A236994
:10281C009181002B3FF445AE032100986C4A9847F8
:10282C003FE6202E00F0A081002E7FF44AAF9DF8E9
:10283C002930092B3FF645AF01A252F823F000BF17
:10284C00F5290008AB290008CF2600088B290008C1
:10285C00CF2600085D2900082B290008CF26000888
:10286C0015290008752800089DF82A609BF801308E
:10287C009E4200F06A819BF80130002B40F02882C8
:10288C008BF80160002E00F060810B229BF8003069
:10289C00524923F030038BF80030CDF800A002959C
:1028AC000B2A00F090820126042A40F0F2814FF0AE
:1028BC00000A4B4B55465A1A92B299F800301BE05D
:1028CC00D8F8003013EB451300F0E3811B69384650
:1028DC00CDE904129847DDE90412082803460AF1F1
:1028EC00010A02D9824280F0C08199F800305FFA67
:1028FC008AF59D4200F2CD819D42A5EB0303DFD307
:10290C00039800EB4313E1E79BF801603846012381
:10291C00019A0AA98DF84060FEF718FBC1E5BDF8D5
:10292C002A301A0A511E06293FF6D0AE01A050F8E3
:10293C0021F000BF952A0008172A0008332A000846
:10294C00D9260008D9260008D9260008172A00081D
:10295C0000230AAA92E80300224A84E80300C4E98F
:10296C0002331846C2E9043393610121FDF724FFB9
:10297C009BF8003043F002038BF8003091E5BDF872
:10298C002A30012B7FF4A2AE9BF80030384643F07E
:10299C0008030AA98BF80030FDF7B4FF81E5BDF8F8
:1029AC002A30012B7FF492AE9BF8003038466FF33F
:1029BC00C3030AA98BF80030FDF7A4FF71E500BF33
:1029CC00F0ED00E09802002080320008A800002002
:1029DC00E8000020005C004000600040B9320008B4
:1029EC002F330008C404002038469BF800309E08A2
:1029FC0006F00206C3F340131E430223019A0AA9F0
:102A0C00ADF84060FEF7A2FA4BE5022A7FF45EAE09
:102A1C00A84B38465B88A74A0AA9FEF797FA002804
:102A2C007FF43FAD52E613F0FF0300F04C82032B12
:102A3C0000F0CE81042B3FF649AE9F4A52F823603A
:102A4C003046FDF77DFB20280146034628BF202198
:102A5C0058B19A48721E1346023312F801CF9B1BD1
:102A6C00994220F802CFF6D80B4601335B00934A0B
:102A7C009BB243F4407638460AA91680FEF766FAF4
:102A8C0000287FF40EAD21E6384612238C4A0AA9A1
:102A9C00FEF75CFA00287FF404AD17E69DF82C00D5
:102AAC0010F0780F7FF40DAE00F07F0C0BEB4C03A5
:102ABC0003EBD013197D99F800204FEA4C03914297
:102ACC0002934FEAD0137CD2D8F8002002EB4112CB
:102ADC000092002E63D0009B002B3FF4F7AD009BBF
:102AEC005B693846012123610AAA984700287FF4C4
:102AFC00D8ACEBE59DF82C300F2B3FF6E7AD5B44E3
:102B0C001B7999F80020934240D2D8F8002012EBA0
:102B1C0043133FF4DBAD5B69012138460AAA2361FC
:102B2C00984700287FF4BDAC9DF8286016F060062D
:102B3C007FF4CCAD9DF82930A3F10A02012A3FF6AF
:102B4C00C5AD0A2B26613FF4E1AE38460AA9FDF764
:102B5C00D9FEA6E45B4B2361B8E50098FEF7C4F9F7
:102B6C0000287FF49EAC05E69DF82C300F2B3FF629
:102B7C00ADAD5B441A7999F800309A425DD2D8F821
:102B8C00003013EB42133FF4A1ADA9E77FF49EADE7
:102B9C004D4BC0E7002E7FF499AD002200929DF8BA
:102BAC00292002F0FD01012916D0002A7FF489ADFD
:102BBC00029A38465A44134493F82460C6F34006EC
:102BCC001BE7E7D1404A0092002E88D19DF82920BE
:102BDC0002F0FD010129E8D1BDF82A60AEB9012A45
:102BEC0004932ED0FDF732FB029B5B441A46049BE8
:102BFC00134493F8242042F0020283F8242093F823
:102C0C00242042F0010283F82420009B002B3FF487
:102C1C0048AC5B690AAA2361012138469847002217
:102C2C009BF825302261DB073FF53BAC8DE7FDF7C8
:102C3C000DFB8020FDF70AFB33E47FF447AD224BFC
:102C4C004EE7FDF755FB029B5B441A46049B13446D
:102C5C0093F8242066F3410283F8242093F824206F
:102C6C0066F3000283F82420CFE7002E00F00881E1
:102C7C0088788219D2B203E08242357100F000816B
:102C8C000BEB000696F804C00130BCF1FF0FC0B28C
:102C9C00F2D00E4BDDF800A01B68029DD80700D5C2
:102CAC0000BE0A4B1B68D90700D500BE00238BF869
:102CBC0001300BE5B032000848330008FC0000205E
:102CCC00303300082904000880320008F0ED00E0E1
:102CDC001323B148002BB0F840204FF0010C22F424
:102CEC0000724FEA02424FEA1242A0F84020AB4871
:102CFC000CDBAB495A0903F01F0320320CFA03F327
:102D0C0041F82230BFF34F8FBFF36F8FA54B834237
:102D1C0006D010F9013B002BEBDAA24B8342F8D121
:102D2C0001220021FF20A04BDFF86CC22CF82210EE
:102D3C000132082A187158719971D97103F1040381
:102D4C00F4D1FDF729FAC0239BF8022038460092F3
:102D5C00964A1380FEF7EAFF009A8BF802208FE563
:102D6C000332A1180A2200F0DFF99148FDF7E8F9C7
:102D7C000346904A211810889278E0528A70FFF727
:102D8C002CBB1168091A02293FF62DA919688C0170
:102D9C00F7D401245968884821F4003159605968E6
:102DAC00864D21F4741141F4E811596004601168E6
:102DBC0004E013685B1A022B3FF615A92B689801E7
:102DCC00F7D5FFF710B90B78CE7819444A786BE534
:102DDC007B4B002B4CD010210CA8AFF3008010289B
:102DEC00034628BF1023009348B34FF0000ECDE9E3
:102DFC0004750CAB734E0293734F019D97E80F0053
:102E0C00029F85E80F00BC461CF8017B14ABCDF883
:102E1C0008C007F00F0C03EB171717F8103C14AD94
:102E2C007380AC44009B1CF810CC0EF1010E734562
:102E3C00A6F804C006F10406DED8DDE90475009B93
:102E4C005B0012E614A9C3F383420A44DF0312F8B1
:102E5C00101C3ED562685D4BC2F3404203FB01F38C
:102E6C0014A90A4412F8202CB3FBF2F3FFF798B91B
:102E7C0008230093564B0C9303F188330D93B4E75E
:102E8C000B4499420ED24A78052A07D1887800F073
:102E9C007F020BEB420202EBD01215750A7811443B
:102EAC008B42F0D899F80020AA42FFF4F2AE494ABE
:102EBC00934213D30123484ADDF800A0029D13600E
:102ECC00FDF786FE41E6454B3E491A8801234A80B0
:102EDC00CBE5434B03FB01F3FFF762B919465A7874
:102EEC00DEE45B68FFF77FB8DFF80491FFF793BA75
:102EFC0000233C4A0893137003E000BF089B013386
:102F0C000893089BC72BF8D903210023224AA2F867
:102F1C004010079303E000BF079B01330793079B07
:102F2C00C72BF8D900211C4AB2F8403023F0020319
:102F3C001B041B0CA2F84030069103E000BF069B5B
:102F4C0001330693069BC72BF8D90023264A124956
:102F5C00A1F84030A1F85030A1F844300B80138018
:102F6C00938013819381138293821383B1F8403041
:102F7C009BB243F45D43A1F84030FDF7DBFDFDF758
:102F8C000BF9FFF770BA194B1B68DC0700D500BEB4
:102F9C00FDF734FAFFF767BA005C004045330008D0
:102FAC0000E100E0473300089C020020BC02002036
:102FBC00840400202C3200086000424200100240C1
:102FCC0000000000FC0000204432000800127A00CF
:102FDC00012345672F330008980200207C3200083B
:102FEC0000093D0014000020045C0040F0ED00E0FE
:102FFC00680000200121364B1A685960910703D4F0
:10300C00530763D5334B00E0334B2DE9F04F334C72
:10301C00334A2146156803F1180605F00400B3F98C
:10302C00022008B10F683A4404339E4241F8042B45
:10303C00F5D12C490B680133032B3CDD00222A4BC4
:10304C00DFF8AC90D3F800800A6059F8287007EBD1
:10305C0047067300352B2FD86C2303FB08F3DFF8DE
:10306C0094B0224903EB860305F0010C964640F61A
:10307C00FF7ADBF80060194405F0020510E02368C4
:10308C0018B1002BB8BF03339B10013215B11B01D3
:10309C0083F40043062A44F804EB21F8023B0DD0DC
:1030AC0046FA02F3BCF1000FE9D113F0010F14BF83
:1030BC0000235346E9E70B60BDE8F08F013701367A
:1030CC0049F82870CBF80060BDE8F08F704700BF5E
:1030DC000000024058040020400400202C03002073
:1030EC001800002054030020800400205C03002002
:1030FC00340400204C020020931E222B10B50C46E9
:10310C0004D900231C460B70204610BD0A2A09D195
:10311C00002807DA2D230B7001214042214400F0D6
:10312C000DF8F1E70021F9E7FFF7E6BF034602448B
:10313C00934200D1704703F8011BF9E7F0B58BB04F
:10314C0005460B466E461D4C04F1200C3746206894
:10315C006168083403C764453E46F7D1217920687D
:10316C003971911E222938604FF0000104D9197071
:10317C000B4618460BB0F0BD581E8446B5FBF2F753
:10318C0002FB17560DF1280E764416F8286C0C46E7
:10319C000CF8016F2E46B2423D4601F10101EDD90A
:1031AC0000225A541919A51AAA42E2DA10F8015F42
:1031BC000E780132067001F80159F4E75C3300080F
:1031CC000A44914200F1FF3300D1704710B511F859
:1031DC00014B914203F8014FF9D110BDF8B500BF76
:1031EC00F8BC08BC9E467047F8B500BFF8BC08BCDC
:0431FC009E46704734
:1032000000000000010000000000000002000000BB
:1032100054696E79555342204D494320616C7420A6
:103220000000000063682F006B487A00487A0000B5
:1032300002030405060708090A0B0C0D0E0F1010F7
:1032400000000000303132333435363738394142EE
:10325000434445460000000050616E6952436F725E
:1032600070000000554143320000000000000000E3
:103270000000000001020304060708090904000019
:1032800000000000DD1D000805050008C11D000844
:10329000D10900080D170008DD0E0008010500081F
:1032A00024000020030000001C000020010000009A
:1032B00009027F000201008032080B000201002099
:1032C000000904000000010120000924010002039C
:1032D0002E000008240A040101010011240201014A
:1032E0000203040600000000000400000C24030395
:1032F0000101010104000000090401000001022095
:103300000009040101010102200010240103000151
:103310000100000006000000000006240201021067
:10332000070581056C000108250100000000000070
:1033300012010002EF020140FECA16400001010224
:103340000301000013142A007C32000858320008E0
:103350008404002000000000643200083031323361
:103360003435363738396162636465666768696A1F
:103370006B6C6D6E6F707172737475767778797A25
:043380000000000049
:04338400310100080B
:043388000D0100082B
:10338C000024F4001D0400087801002010000C003B
:10339C0000000000FF0000000700000000100140CA
:1033AC000D010100000801400F0100000008014060
:1033BC000B040000000801400C0400001000000089
:040000050800015D91
:00000001FF
