:020000040800F2
:10000000002800205D010008A1010008DD1E000895
:10001000A1010008A1010008A101000800000000E2
:10002000000000000000000000000000A101000826
:10003000A101000800000000A1010008E11E000865
:10004000A1010008A1010008A1010008A101000808
:10005000A1010008A1010008A1010008A1010008F8
:10006000A1010008A1010008A10100081D3000083D
:10007000A1010008A1010008A1010008A1010008D8
:10008000A1010008A1010008A1010008DD1F00086E
:10009000C91F0008A1010008A1010008A101000872
:1000A000A1010008A1010008A1010008A1010008A8
:1000B000A1010008A101000800000000A101000842
:1000C000A10100080000000000000000A1010008DC
:1000D00000000000A1010008A101000800000000CC
:1000E000A1010008A1010008B51F000800000000E0
:1000F0000000000000000000000000000000000000
:0C01000000000000000000005FF808F1A3
:10010C0010B5054C237833B9044B13B10448AFF345
:10011C0000800123237010BD3C0000200000000073
:10012C00C430000808B5034B1BB103490348AFF3B7
:10013C00008008BD0000000040000020C430000812
:10014C00034613F8012B002AFBD1181A013870470B
:10015C00002103E00A4B5B584350043109480A4B19
:10016C0042189A42F6D3094A02E0002342F8043BB3
:10017C00074B9A42F9D301F035FF01F05BFF704752
:10018C0030320008000000203C0000203C00002021
:10019C00900E0020FEE7000030B4BFF34F8FBFF38A
:1001AC006F8F13230C4A002B4FF001050B4C02F1FF
:1001BC00020006DB03F01F0105FA01F15B0944F8AC
:1001CC002310824205D012F9013B002BF2DA824255
:1001DC00F9D130BC704700BF1132000800E100E0DB
:1001EC0013230F4A002B30B402F102004FF001052B
:1001FC000C4C0BDB590903F01F03203105FA03F3F8
:10020C0044F82130BFF34F8FBFF36F8F824205D07C
:10021C0012F9013B002BEDDA8242F9D130BC704768
:10022C001132000800E100E0F0B400F07F032F4A27
:10023C005B0003EBD01302EB03139C7BC2094FEA68
:10024C00840404F1804404F5B84423889BB244D15F
:10025C004FF480552649194041F4004141F080018A
:10026C0013232448002B02464FF0010C224F81EA45
:10027C00050100F102060BDB5D0903F01F032035BD
:10028C000CFA03F347F82530BFF34F8FBFF36F8F92
:10029C00B24205D012F9013B002BEDDAB242F9D192
:1002AC0089B22180BFF34F8FBFF36F8F1323002BC5
:1002BC004FF00105104C06DB03F01F0105FA01F1AC
:1002CC005B0944F82310904205D010F9013B002B38
:1002DC00F2DA9042F9D1F0BC7047084910250B4076
:1002EC0043F4004141F08001BAE700BF900D0020BB
:1002FC008FBFFFFF1132000800E100E0BF8FFFFF4E
:10030C00F0B400F07F03344A5B0003EBD01302EB34
:10031C0003139C7BC2094FEA840404F1804404F566
:10032C00B84423889BB248D123F0700242F40042B7
:10033C0003F4C06342F08002B3F5806F164602D01E
:10034C004FF40056564013232449002B0A464FF015
:10035C00010C234F01F102050BDB580903F01F03BD
:10036C0020300CFA03F347F82030BFF34F8FBFF364
:10037C006F8F954205D012F9013B002BEDDA9542B7
:10038C00F9D12680BFF34F8FBFF36F8F1323002B50
:10039C004FF00105124C06DB03F01F0005FA00F0CC
:1003AC005B0944F823008A4205D011F9013B002B6C
:1003BC00F2DA8A42F9D1F0BC704723F4E04242F4FD
:1003CC00004203F4C06342F08002B3F5806F16461E
:1003DC00B9D02026B6E700BF900D002011320008DE
:1003EC0000E100E0F0B4154C656805B32B78E489A6
:1003FC002B44DE88083C25443344EC1A002C16DDD3
:10040C00002604E01C782344EC1A002C0FDD5C78E9
:10041C00042CF7D1DC78771C002CF3D19C78844227
:10042C0008D01C78FEB22344EC1A002CEFDC002020
:10043C00F0BC70470E7001201360F9E76C000020CF
:10044C00034B1B68DB0700D500BE0020704700BFC4
:10045C00F0ED00E008B1FFF79FBEFFF7C1BE00BF93
:10046C000020704730B4104A5468CCB12378D58939
:10047C002344DA882C441344E21A002A05DC0FE0EA
:10048C001A781344E21A002A0ADD5A78052AF7D1A1
:10049C009A788242F4D1002330BC01200B70704753
:1004AC00002030BC704700BF6C00002030B40F4BF4
:1004BC005D68BDB1DB89083B002B05EB030411DD46
:1004CC002B4604E01A781344E21A002A0ADD5A7803
:1004DC00042AF7D1AA788242F4D1002330BC01203F
:1004EC000B707047002030BC704700BF6C000020C0
:1004FC0030B4104B5C6814B1A378834202D030BC8A
:10050C000020704720782318205CDC88251A002DE9
:10051C00F5DD1C44034404E018780344E01A002879
:10052C00EDDDD8788842F7D1002330BC0120137060
:10053C00704700BF6C000020704700BF0020704760
:10054C004900F0B401F18046570806F5C0466FB17A
:10055C00044631467B1E31F8045B013B24F8025BF8
:10056C005D1CF8D100EB470006EB8706D30748BFAC
:10057C003388F0BC48BF0370704700BF4000F0B434
:10058C0000F18046570806F5C0466FB13446084660
:10059C007B1E30F8025B013B24F8045B5D1CF8D138
:1005AC0001EB470106EB8706D30744BF0B7833807A
:1005BC00F0BC7047034B1B68DB0700D500BE4FF641
:1005CC00FF707047F0ED00E02DE9F04F4FEA810A23
:1005DC000AF1804A478905890AF5B84ABAF80090A9
:1005EC008389ED1B1FFA89F9ADB29D4249F400488D
:1005FC0009F4C06928BF1D46B9F5806F18BF0023E8
:10060C00064648F080087B4A08BFC8F3801303EB0A
:10061C00410032F83000D6F804B089B080B24C00FA
:10062C00BBF1000F00F0AD801DBB1C44E4002F4457
:10063C0004F18044778104F5C044A388B9F5806F38
:10064C0003F47C43C5F3090545EA030508BF012300
:10065C00A58008BFF373684B88F0300808EA0308DC
:10066C00FFF7BEFDAAF80080FFF796FD09B0BDE8C4
:10067C00F08FBBF808C0BBF80A701FFA8CFCBFB235
:10068C00BBF80420BC4536BFC7EB420EACEB070EE3
:10069C00E6441FFA8EFE724509D2964694452CBF4D
:1006AC00ACEB02070CEB0207BFB2ABF80A70BEF161
:1006BC00000F72D0944509D3ACEB020C1FFA8CFCE2
:1006CC006245F9D9BA4203D8BF1ABFB2BA42FBD9B4
:1006DC00DBF800106745009139446CD2AE45F44606
:1006EC004FF0000728BFAC460097CDF808C00CF0BF
:1006FC0001022CF0010E01921FFA8EF2BEF1000FD6
:10070C000AD0CDE904130390FFF738FF039804993E
:10071C001044059B114480B2019AFAB10022ADF845
:10072C001E2091F800C0ADF81EC00FFA8CFC002FF3
:10073C0057D0009A039312F8011B01904CEA012C3C
:10074C0000920DF11E010222ADF81EC0FFF716FF3C
:10075C000198013F0230039BBFB280B22FB13A46E1
:10076C0000990193FFF70AFF019BBBF80A0002995D
:10077C0080B2014489B28842BBF8042010D95000E1
:10078C0013E0002D3FF451AF31682A4639440093F1
:10079C00FFF7F4FE7789009B47E7BBF80A1089B294
:1007AC00B1EB420F4FEA420001DB091A89B2ABF8F8
:1007BC000A10778939E7A2EB070C1FFA8CFCAC45C1
:1007CC0028BFAC46AEEB02021744A5EB0C02BFB23D
:1007DC0092B2974228BF17460CEB070292B20292D4
:1007EC0085E702220DF11E010093FFF7C7FE009B67
:1007FC00BBE700BF00600040BF8FFFFF0A4638B563
:10080C00324B01EB400103EB0111012A897B4CD0E7
:10081C008C0004F1804404F5B84403EB40102588A7
:10082C0003892B4A8089ADB22A40834205F4C06506
:10083C0028BF034642F40042B5F5806F42F08002B7
:10084C0021D03E2B16D801335B089B02002B9BB2A8
:10085C0008BF4FF40043090101F1804101F5C0418B
:10086C008B8182F44055FFF7BBFC2580FFF794FC8D
:10087C00012038BD1F331748C3F34713013B40EA2F
:10088C0083239BB2E7E73E2B17D801335B089B020F
:10089C00002B9BB208BF4FF40043090101F18041CA
:1008AC0001F5C0418B808B81DBE74400601C03EBBE
:1008BC000010FFF789FE012038BD1F330548C3F334
:1008CC004713013B40EA83239BB2E6E7900D0020DF
:1008DC008FBFFFFF0080FFFFF8B5184C0D4604EBEF
:1008EC00D01494F82430C10913F0010003D0BDE8F2
:1008FC00F840FFF7A5BD94F82430114E43F00103E6
:10090C0084F8243006EB01130F0158601A815881CA
:10091C00F551FFF773FF80B994F82430094A60F35E
:10092C00000384F8243094F8243060F3820384F8B4
:10093C0024301368DB0700D500BEF8BD3C01002055
:10094C00900D0020F0ED00E030B4094D00222C4653
:10095C000B4608684968AA6003C4EA6093F9003042
:10096C00114630BC9342ACBF80201046FFF7B4BF99
:10097C00E4000020F0B5224F4FEAD01C3B46002289
:10098C0000F07F050CF102068CF0010E07E05C789C
:10099C008C421ED00132082A03F1040321D09C5D45
:1009AC00D0B2002CF3D1012923D01C78FF2C01D01C
:1009BC00AC42EFD15C78FF2C01D08C42EAD1012300
:1009CC0007F8225007EB8202944451708CF80230E5
:1009DC00F0BD1C78AC42FBD00132082A03F10403B1
:1009EC00DDD1084B186810F00100F1D000BE0020DA
:1009FC00F0BD07EB82047444A478002CCAD1D4E770
:100A0C0098020020F0ED00E0F8B54B79012B02D1F3
:100A1C008B79012B01D00020F8BDCB79202BFAD19A
:100A2C000B79012B2CD82BD091F803C0BCF1000F03
:100A3C00F1D14C4C63681BBB76220B466646616059
:100A4C002070E28101F16E0504E01A781344EA1A71
:100A5C00002A1DDD5A78052AF7D1DA7802F003074F
:100A6C00012FF2D112F0300FEFD19A78D009ECD0DF
:100A7C0098889446C0F30A02964238BF1646E4E7BB
:100A8C00394B186810F00100C6D000BE0020F8BD2C
:100A9C00BCF1000F24D16E2040F2011606E0242B8D
:100AAC0015D00B7819446B1A002B25DD4B78052BD0
:100ABC00F5D1CB7803F00302012AF2D113F0300FF9
:100ACC00EFD18B78DB09ECD08B79E376E9E78B7887
:100ADC00032BE6D18B88B34204BF0B7AA376E0E7F5
:100AEC001CF0780F0BD0FFF7ABFCE3896168083B77
:100AFC00CD1898B2002BCFDC01236373F8BD012114
:100B0C0060460CF07F05FFF735FF3E2E02461FD9DD
:100B1C00202106F11F03C3F34713144E308803FB47
:100B2C0001039BB2B3F5007F338016D8104B16012E
:100B3C0003EB021198530881E0890E4E6168083866
:100B4C0006EB451C03460D188CF81E2080B2D1E72D
:100B5C00731C0221C3F34703DFE7FFF72BFD80B2C1
:100B6C00E4E700BF6C000020F0ED00E0B8020020CC
:100B7C0000600040900D00200021FF22F8B51B48BA
:100B8C001B4B0C46A0F84C1003F120011A705A7044
:100B9C009C70DC7004338B42F8D100210846FFF7BF
:100BAC00E9FE00218020FFF7E5FE80254021C027CB
:100BBC004FF480560F4A104B0C481F801181158042
:100BCC000388968123F4786323F00F035B045B0C9A
:100BDC000A4A83F4085383F0200303809181A0F820
:100BEC004C50947391839477F8BD00BF005C004027
:100BFC009802002000600040B8020020900D0020F8
:100C0C000123034A117912688B401361704700BFAE
:100C1C002000002010B40D4A0D4B146885B00DF166
:100C2C00100C032C0FCB0CE90F000BD8094B0CEB61
:100C3C00840454F8102C1968914203D00021C3E9A4
:100C4C000021197205B010BC704700BF940200203F
:100C5C00DC3000083C0200202DE9F04FB44D87B089
:100C6C00287B05AA0DF11301FFF7BCFB20B19DF801
:100C7C001330AA6AD35C23B90024204607B0BDE820
:100C8C00F08F6B680446DFF8CC92EBB1D9F80020FA
:100C9C001FFA82FABAF1000F16D095F83310B5F896
:100CAC003480EB8EC9091FFA88F89BB240F0A28001
:100CBC002A8E984536BFC3EB4207A8EB030747447F
:100CCC00BFB2BA4200F2B48000239A4AC9F800308D
:100CDC00136843F002031360FFF79CFFAB8EEA8EA0
:100CEC009BB292B2298E934236BFC2EB41029B1A41
:100CFC009B189BB2EA8A8B4228BF0B46688912B1BB
:100D0C00B2EB810F30DD834228BF0346297A8A4D2E
:100D1C0001F07F0005EB400505EBD11595F824603B
:100D2C00203516F001064FEAD1114FEA40023AD0B5
:100D3C00FFF786FB00289FD072B6804D80492E6845
:100D4C0080483201C9F8002002F0A8F97E4A1368E5
:100D5C00B3F5007F04D27D48591C40F82360116024
:100D6C0000232B6062B688E7AF8A9F4200F29F8017
:100D7C00B5F818E04FEA5108AEEB0206B6B2C6EB76
:100D8C0051018B42DFF8D0C180F2B380DCF8001047
:100D9C00002940F0BF800A22B8420346CCF800205C
:100DAC0028BF3B46B2E7DFF8B4C10A442F794FEABB
:100DBC00021E4CF80E600CEB0212DFF8A4C147F0D7
:100DCC00010713815681C2F804C02F71FFF716FD7D
:100DDC000028B1D12B795E4A60F300032B712B797B
:100DEC0060F382032B711368DB077FF545AF00BE00
:100DFC00044642E72F8EBA454FD2984536BFC3EB17
:100E0C004701A8EB0301414489B292B278000A442D
:100E1C00824268DB03EB070B1FFA8BFBABEB0A0878
:100E2C001FFA88F843455AD8404558DD454910E02B
:100E3C00D21B97B2BA4528BFBA4642491FFA8AF765
:100E4C00002F3FF441AF07EB080BBA462F8E1FFA69
:100E5C008BFB4745464603D8F61BB6B2BE42FBD2C7
:100E6C006B8EBA1BE86A92B2C3F30E03524503FBB6
:100E7C0006001ED303FB0AF202F010F92A8EC345BA
:100E8C004FEA420302D3BBEB420F03DBABEB030B8A
:100E9C001FFA8BFBA5F834B016E7688E91B2294E79
:100EAC00C91BC0F30E02984602FB0161C8E7002380
:100EBC002CE703FB02F292B2CDE901120393AAEBE9
:100ECC00070702F0EBF8DDE90112039B3E4406FB39
:100EDC0003F31144E86A9AB202F0E0F8CEE7A8EB0B
:100EEC0000081FFA88F80AEB080B16491FFA8BFB4F
:100EFC00AFE74644B342DCF800100ADD51B9BA4200
:100F0C0010D00A2270450346CCF8002028BF734647
:100F1C00FCE611B10139CCF800109042034628BF11
:100F2C001346F3E67045034628BF7346EEE600BF52
:100F3C006C000020940200203C010020880400205A
:100F4C00B8030020CC0C0020C40C0020C4040020EA
:100F5C00F0ED00E04802002050020020900D00202F
:100F6C0098000020044B1A7A8A4201D19B6A0BB973
:100F7C0000207047FFF770BE6C00002010B5164BB8
:100F8C0082B09889D98993F90040421A92B2402ACA
:100F9C0028BF4022002C10DB88424FF0000006D006
:100FAC000E4902B0BDE81040FFF796BC802000212E
:100FBC0002B0BDE81040FFF78FBC8842F6D09968AC
:100FCC000648019202F06AF880200449019A02B0A6
:100FDC00BDE81040FFF780BCE4000020A400002016
:100FEC00F8B50D461A4E144632464FF0000C4968BF
:100FFC0007462868B46003C2A6F80EC0EA8893427C
:10100C0028BF1346B381EA883AB103B1B4B138466C
:10101C00FFF7B4FF60B10120F8BD95F9003011461F
:10102C00002BACBF80200020FFF756FC0028F2D12B
:10103C00084B1B68DB0705D500BEF8BD054B1B68CC
:10104C00DA0701D40020F8BD00BE2046F8BD00BF71
:10105C00E4000020F0ED00E038B504460589038972
:10106C0040899BB280B2A288834236BFC0EB42005B
:10107C001B1A1B189BB29A42ADB202D8E079C00978
:10108C0019D095422B4603D39B1A9BB29342FBD2A9
:10109C00E2882068C2F30E0202FB030001F0FEFF9F
:1010AC006B1CA2889BB29D424FEA420104D95B1A89
:1010BC009BB20120238138BDB3EB420FF9DBF6E77D
:1010CC002DE9F04143780446023B84B0042B0CD844
:1010DC00DFE803F0203003871A00464B1A78D60756
:1010EC000FD51A7842F004021A70434B2146186847
:1010FC000430FFF7B1FF20B9404B1B68DB0700D56C
:10110C0000BE04B0BDE8F0813D4A13780133DBB278
:10111C001370EAE70021374B1A786FF300021A704C
:10112C001A786FF341021A7059701A7861F38202BF
:10113C001A70DAE70025334F2B463A78324EDFF837
:10114C00CC8009E0D8F8002012EB431309D13A788F
:10115C000135EBB29A420FD39342F3D39B1A06EBB1
:10116C004313DB69002BF2D0616820789847013576
:10117C003A78EBB29A42EFD21E4D2B78580719D51C
:10118C00002205262B781C496FF3820308682B700C
:10119C002378043001A9CDE9012203928DF80430A3
:1011AC008DF80560FFF758FF20B9144B1B68D90761
:1011BC0000D500BEEB78DA07A3D5002303260E4A30
:1011CC00257810686268043001A9019303938DF8A7
:1011DC0005608DF804500292FFF73EFF00288BD07B
:1011EC008FE7044B1A78D5078BD51A786FF38202E8
:1011FC001A707AE73C01002070010020F0ED00E04D
:10120C0034020020680000204C31000864000020EB
:10121C002DE9F04F4A4A93B0B2F8443099B29D058B
:10122C00039100F12582039B5C0500F13582039B41
:10123C00D80400F16082039B190500F14182039BE5
:10124C00DA0500F1C681DFF8F8B0DFF800A101E0A3
:10125C0030063BD4BBF84430190461D5BBF844507C
:10126C0005F00F05AC0004F1804404F5B844238864
:10127C009EB21B04ECD516F4006E69D00AEB051374
:10128C009A891989C2F3090289B2002A00F088816F
:10129C000DAF3846FFF754F940F68F732188082AB2
:1012AC0021F4E04121F0700103EA010343F08003D3
:1012BC00238000F08181234B1B68DF0700D500BE23
:1012CC004FF480533006AAF80C30C3D523881E4F38
:1012DC009BB223F4E04323F0700343F4004343F048
:1012EC00800323F080039BB22380238803F4C06126
:1012FC009AB2B1F5806F03F00F034FEA431000F080
:10130C0082813A18518B128B8A4200F096811030F0
:10131C0029463844FFF758F9BBF8443019049DD4DA
:10132C00039B5A0409D5074B1B68DB0700D500BE8D
:10133C004BF6FF72024BA3F8442013B0BDE8F08FBC
:10134C00005C0040F0ED00E0900D002000600040DB
:10135C0040F68F722188C14F21F4E04121F07001D9
:10136C000A4042F080022280228802F4C063B3F566
:10137C00806F91B2069308BF0B4602F00F020292E7
:10138C0014BF012283F48042029B08BFC2F3803257
:10139C0007EB4319D9F8040002EB450205910AEB5F
:1013AC00C201B1F8048004903AF832105B01019349
:1013BC00C8F30908034689B2002800F0DA80B8F1B6
:1013CC00000F00F083800289408992B280B2B3F89A
:1013DC000490824236BFC0EB490CA2EB000C944443
:1013EC001FFA8CFCE14540F202814A4506D3734654
:1013FC00A2EB090292B29145FAD99E46484506D312
:10140C007346A0EB090080B28145FAD99E46049B35
:10141C0082421B6808931344079380F09281A0EBDF
:10142C0002091FFA89F9C14528BFC1460023CDF82E
:10143C002C90089329F0010082B209F0010960B1E7
:10144C000798CDE9091EFFF77BF8079B0999134410
:10145C001144DDF828E089B20793B9F1000F1DD0D3
:10146C0002220FA8CDF828E00991FFF769F8BDF822
:10147C003C20079B09991A70BDF83C20DDF828E048
:10148C00023189B2120ABEF1000F0ED008980EF18B
:10149C00FF3300F8012B08901FFA83FEBEF1000FFA
:1014AC0003D072460898FFF74BF8049B1A89B3F8DF
:1014BC0004900B9B92B213449BB29A4240F29A80D6
:1014CC004FEA49029B1A9BB2049A1381019BFB18A9
:1014DC005889019B4044FA18938980B298455081F1
:1014EC0024D31289904221D20699B1F5806F11D084
:1014FC00121A92B2934228BF13463E2B40F2188127
:10150C001F33574A5B09013B42EA83239BB20AEB28
:10151C0005129381534B059A1A4042F4004343F051
:10152C00800383F440539BB2238091E63E2B2ED94B
:10153C0003F11F02C2F34712494B013A43EA8223DB
:10154C009BB24FF4E0624FF0000801990FA80F44D2
:10155C000AEB05118B817B89029911938DF8401050
:10156C00ADF83C208DF84180FFF7AAFDC7F8088044
:10157C006EE6B9F80A00B8F1000FAAD0D9F800301D
:10158C0042461844FEF7DCFFB9F80A00A1E7013324
:10159C005B089B02002B9BB208BF4FF40043D0E7C3
:1015AC0040F68F73228822F4E04222F0700213403E
:1015BC0043F0800323807EE64FF4C06397E803007A
:1015CC0012AA02E903000FA8ADF83C30FFF778FD32
:1015DC003EE625490B78012B00F0C980002B40F02A
:1015EC00CF804FF6FF62214BA3F844202BE6049BDF
:1015FC001B899BB2B3EB490F4FEA4902FFF664AF6C
:10160C009B1A9BB260E707EB4311CC7F002C3FF495
:10161C0021AE002482F04002C2F3801202EB45029C
:10162C000AEBC202CC77918801F47C4191803A1884
:10163C00518B128B8A427FF46AAE4FF4E064002126
:10164C0063F07F030FA88DF840301192ADF83C4049
:10165C008DF84110FFF734FDFCE500BF900D002024
:10166C000080FFFF8FBFFFFFAC040020005C004038
:10167C004FF6FF534FF44071A2F84430B2F84830A3
:10168C000FA8C3F30A031093ADF83C10FFF718FD35
:10169C00039B5C057FF5CBAD4FF6FF323C4BA3F8BB
:1016AC004420FFF769FA4FF4807200230FA8ADF8BD
:1016BC003C208DF84030FFF703FD13B0BDE8F08FF0
:1016CC004FF2FF744FF48061314B0FA8B3F84020F8
:1016DC0092B242F00802A3F84020B3F8402092B234
:1016EC0042F00402A3F84020A3F84440ADF83C10AB
:1016FC00FFF7E6FCA3E54EF6FF744FF4A061244A15
:10170C000FA8B2F8403023F004031B041B0CA2F802
:10171C004030B2F8403023F008031B041B0CA2F835
:10172C004030A2F84440ADF83C10FFF7C9FC82E50C
:10173C0001335B089B02002B9BB208BF4FF40043A4
:10174C00E5E6A9EB02091FFA89F9C14528BFC14694
:10175C00A2EB0C03A8EB09029BB292B2934228BFF6
:10176C00134603EB09029E4693B20B9362E60848BC
:10177C00B0F8402022F010021204120CA0F8402005
:10178C004FF6FF62013B0B70014BA3F844205AE566
:10179C00005C00402DE9F04F01290F46144689B03A
:1017AC0006D0022918D00126304609B0BDE8F08FCA
:1017BC001378054613F0600822D150780A2800F0FF
:1017CC00A4800B2844D0012840D0B34B1E6816F0DF
:1017DC000106E9D000BE11E0137803F0E002202AE4
:1017EC00E1D103F01F03012B00F0A680022B40F087
:1017FC008680A08806A9C0B2FEF734FE0026D3E787
:10180C00B8F1200FE1D1928803F01F03012BD0B265
:10181C0000F0F980022B72D10DF11601FEF722FEB9
:10182C000028EBD094F90030002BE7DB9DF8163044
:10183C009A4AC3EBC30302EBC30292F8243021464D
:10184C002846126AFFF7CCFB0646ADE70646ABE727
:10185C0093880DF117015FFA83FA504606AA678840
:10186C00FEF7C0FD06460028C8D0DFF830B29BF862
:10187C000C30534500F0FB809DF81710DBF8283036
:10188C00FAB25A54BBF80E10DBF80430069F083934
:10189C001944CB1B002B06DC79E03B781F44CB1B97
:1018AC00002B069773DD7B78042BF6D1BB78534560
:1018BC00F3D1FB789342F0D13B79002B67D0DDF864
:1018CC001890CDE90264CDF804A04C469A4689469E
:1018DC0004E02378C2451C44069454D9A9EB0403B4
:1018EC00002B8BDD6378052BF3D1A17811F0780FE9
:1018FC0000F0DC80684B1B68D80700D500BE664B37
:10190C001B68DA077FF57AAF64E790880DF1170151
:10191C0006AAC0B2FEF766FD064600283FF444AFA7
:10192C005E4B9DF817209E6A214632443B46284662
:10193C00FFF756FB064637E7A388D8B21B0A00F020
:10194C008A80D9B206AAFEF7D3FD00283FF456AF21
:10195C009DF818305148C3EBC30200EBC202927ED3
:10196C008A427FF44BAF6288120A012A7FF446AF99
:10197C006278012A7FF442AF382202FB03031A6A11
:10198C0012681A613AE7DDE902647FF437AF9BF81D
:10199C001C30012B32D19BF81D207AB39BF81EC052
:1019AC00BCF1000F2AD09BF81B703FB3DBF8101072
:1019BC0021B33B488078002800F068814FF4FA503E
:1019CC00013FBB40DBB201FB03F3B3FBF0F702FBBF
:1019DC000CF207FB0221BBF80AC089B28C45C0F09F
:1019EC00698100FB17308B1A9BB2002800F06981CB
:1019FC00ABF81430ABF81630ABF81810214628466B
:101A0C00FEF7A2FFD0E6110A29D00DF11602FEF75F
:101A1C006FFD00283FF4F2AE94F90030002BBFF6B6
:101A2C0005AFA0886388020A012A4FEA132300F04D
:101A3C005081042A7FF4E2AE012BDAB200F09381DC
:101A4C00022A7FF45CAF214628460123154AFFF792
:101A5C00C7FA0646A8E606A9FEF728FDCEE60DF164
:101A6C001601FEF723FD00287FF4DCAEC6E60E4A15
:101A7C00ABF8368013688BF80C8023F00203ABF8BC
:101A8C0034801360FFF7C6F88BF80880CBF814800D
:101A9C00ABF81880F0E600BFF0ED00E06C00002021
:101AAC003C0100204C02002094020020E378A28824
:101ABC00C54803F00303022B8078C2F30A0200F03E
:101ACC00F380032B00F0E780012B56D0FEF7B8FC17
:101ADC0000283FF414AFA0780090FEF711FC00989A
:101AEC00B94A00F07F0302EB4303C209134493F895
:101AFC0024106FF3410183F8241093F824106FF332
:101B0C00000183F824102AB908F10108069C5FFA39
:101B1C0088F8DEE6E37813F0300FF5D1019B8BF8F3
:101B2C0008008BF80C30A388C3F30A03ABF80A3017
:101B3C003B783B44A9EB0302002A06DC17E01A7839
:101B4C001344A9EB0302002A11DD5A78042A0ED0A3
:101B5C00242AF4D19A78012A00F0F980022AEED1D5
:101B6C00DA78012A04BF1A798BF81E20E7E7284699
:101B7C00FFF772F80028C7D140E6022840F2FF3385
:101B8C0008BF4FF480639A4279D88F4A01F07F03E3
:101B9C0002EB430303EBD11393F824208B496FF32F
:101BAC00410283F8242093F8242008466FF30002A6
:101BBC0083F8242093F824206FF3820283F82420E6
:101BCC0094F802C0824B5FEADC1214BF4FF48042DF
:101BDC00402216460CF07F0E4FEA4E0202EBDC124E
:101BEC0003EB02139A7BB4F804C09200CCF30A0CFA
:101BFC0002F18042A3F80CC002F5B842138801F13F
:101C0C00030C23F4786323F00F035B045B0C43EAAF
:101C1C000E0343F4044343F080037340009310F924
:101C2C00013B002B0FDB01264FEA531E03F01F0371
:101C3C0006FA03F3674E0EF1200E46F82E30BFF372
:101C4C004F8FBFF36F8F8445E9D1BDF800301380FF
:101C5C00BFF34F8FBFF36F8F012011F9013B002BA6
:101C6C0007DB5C4E03F01F0200FA02F25B0946F838
:101C7C0023206145F1D12EE7B2F5007F85D0564B7C
:101C8C001B68D9077FF522AF00BE1FE74FF47A70AF
:101C9C0001FB07F399E602280CBF4FF48063402345
:101CAC009A427FF672AFEAE70228E5D0402A7FF627
:101CBC006CAFE4E7484B1B68DB077FF59FAE00BEBB
:101CCC009CE69A1AABF81420ABF81630ABF8181047
:101CDC0094E6022B7FF413AE00212378069203F0D6
:101CEC001F03012BC0B2ADF81C105CD0022B7FF48B
:101CFC0006AE0DF11701FEF7B5FB00283FF47EADE3
:101D0C0038269DF81730DFF8DCB006FB03B393F8E8
:101D1C002470186A062F3A4628BF0627BA42FFF4E9
:101D2C006DAD3A4606A901F0B9F923789DF8170074
:101D3C0003F07F03212B24D0382606FB00B63B464C
:101D4C00326A21462846FFF74BF906462CE59A7A6B
:101D5C008BF81D205A798BF81C205A78242A7FF492
:101D6C00EEAE9A78FAE66378012B24D0022B7FF43E
:101D7C00C6AD214628460E23184AFFF731F9064610
:101D8C0012E506FB00B1A2888B7EB3EB122FD3D1E8
:101D9C0063881B0A012BCFD16378012BCCD10B6A42
:101DAC001B680B61C8E701210DF11702FEF7A0FBC0
:101DBC000028A5D122E5214628460423084AFFF72E
:101DCC000FF90646F0E400BF3C0100201032000879
:101DDC00900D002000E100E0F0ED00E0B4040020E4
:101DEC00B00400206C0000202DE9F0414FF00008F9
:101DFC001A4C074642461A4E23781A4D0DE02B68B2
:101E0C0013EB421322D0DB683846984708F10108DF
:101E1C0023785FFA88F2934206D39342A2EB030332
:101E2C00EDD806EB4313EEE70F4C3422204600218D
:101E3C0001F02CF94FF0FF33C4E90233C4E9053348
:101E4C00C4E9073323616360BDE8F081074B1B686D
:101E5C00DB07F9D500BEBDE8F08100BF68000020AB
:101E6C004C310008640000203C010020F0ED00E043
:101E7C0008B5054B20221846002101F007F9002275
:101E8C00C286828608BD00BF6C00002038B50B4BA3
:101E9C0034221846002101F0F9F8034600224025AF
:101EAC000749084C08481962C3E90A400749DA8611
:101EBC0083F8245019639A8638BD00BF6C0000204B
:101ECC005402002038020020BC020020D000018007
:101EDC0000BE70472E482F4A01682F4B013101601C
:101EEC0011682E4801311160126803FB02F3B0EB4C
:101EFC00730F00D27047FF2270B402234FF4427468
:101F0C0049F203604FF47F46012525498DB08DF8C9
:101F1C0000200A68ADF80840ADF80C0001AC8DF853
:101F2C0010308DF820308DF8283002A803AB032A2E
:101F3C00ADF804608DF818500594CDF81CD00990BC
:101F4C000B931FD804AB03EBC20358684B680C7A95
:101F5C00C55CA54219D804AC14F832400133A34235
:101F6C00A8BF0023C25C002AF8D001244B60DB0719
:101F7C004FF001030B4A0C721179126858BF1031E3
:101F8C008B4013610DB070BC70470134E4B2EEE7C6
:101F9C008C0D0020C80C0020CDCCCCCC9999991973
:101FAC003C0200201800002008B5FFF731F9024A66
:101FBC0013680133136008BD5800002008B5FFF703
:101FCC0027F9024A13680133136008BD6000002032
:101FDC0008B5FFF71DF9024A13680133136008BDF9
:101FEC005C00002030B44FF41F054FF000640E4B22
:101FFC000E4A19680E4841F00101196059680A40EF
:10200C005A601A6822F0847222F480321A601A68BC
:10201C0022F480221A605A6822F4FE025A609D60F3
:10202C00846030BC704700BF001002400000FFF815
:10203C0000ED00E02DE980489B4B95B05A6802F00A
:10204C000C02042A00F08E805A6802F00C02082A56
:10205C0000F08480944B954A1846196841F48031FD
:10206C001960116803689D037FD413685B1A642B95
:10207C00F8D98D488E49436823F4800343600B687C
:10208C0013F0060F7ED10B6823F0070343F0020315
:10209C000B600B6803F00703022B73D010AB854C5D
:1020AC00019300204FF0010C0F267F4B8249DA6917
:1020BC00824FDA619A6942F03D029A614B6843F0B3
:1020CC0000734B6007EBC0030022D3F804E057F811
:1020DC00301011E051F8099098F80580D9F80030CB
:1020EC0008F00F0808FA05F523EA0A0301322B431E
:1020FC007245C9F800302CDA01EBC20898F80630AA
:10210C0098F804504FEAC20903B9103551F8093058
:10211C000CFA05F51D6198F804309D00072B06FAA2
:10212C0005FAD7D951F8095003F0070398F8059030
:10213C009B00D5F8048009F00F0906FA03FA09FA96
:10214C0003F9013228EA0A0343EA090372456B607A
:10215C00D2DB002840F0C2800120B3E75B68DE03CD
:10216C007FF578AF504B514A1B684F4B596801F0C3
:10217C000C01082900F0C486002051490860106841
:10218C0000F018BE484B596841F4E0615960596839
:10219C0041F460515960596821F0F0015960196897
:1021AC0089017FF57BAF59681C4621F0030141F092
:1021BC0002015960106841F2883104E013681B1A5F
:1021CC008B423FF66BAF636803F00C03082BF5D121
:1021DC00374A136803F00703022B0BD9136823F05B
:1021EC00070343F002031360136803F00703022B89
:1021FC007FF454AF40F201252B4C10AE636801966E
:10220C0023F4E06343F48063636063682D4A23F432
:10221C00605363600FCA86E80F00ADF830506368F6
:10222C0003F00C02082A00F0E285274B4FF47A7277
:10223C001D49264849681F4CC1F30311415CCB4032
:10224C00B3FBF2F2013AB2F1807F2360BFF429AF05
:10225C00F027002307261E481E4D01686A601E4A9F
:10226C000F2982F82370AB602E603FF61AAFD2684C
:10227C00C2F30222B51A042D02F1040628BF04256C
:10228C00062E98BF1A464FF0FF3303FA05F388BFAA
:10229C00033A21EA030393401B010F4ADBB282F895
:1022AC0023300160FDE600BF001002408C0D0020C1
:1022BC000020024000000020000001406C310008AA
:1022CC0060004242EC30000800127A0038310008FD
:1022DC003800002010E000E000ED00E02368B34A75
:1022EC00A2FB03239B09013BB3F1807F09D2F026AB
:1022FC0000200721AE4AAF4D536085F823609060F3
:10230C001160AD4AD36943F40003D361AB4B1B7826
:10231C00FF2B39D134220021A94800F0B7FE00224E
:10232C00A84BDFF8F092A84DA84989F800202B6043
:10233C00DA819A81002900F0E685A548AFF3008088
:10234C00DFF8D4A2CAF800000026A24AA04F0392DC
:10235C0033463A780FE0DAF8002012EB431300F022
:10236C0048865B68002B00F0448698473A78F3B2B5
:10237C00934200F2CC859A4206F10106EBD89B1AE7
:10238C00039A02EB4313ECE7924BDFF888928E4DE5
:10239C00DFF884A28E4F0393FEF732FC42F6E06026
:1023AC0000214FF001088C4E4FF0050E33468B4A3E
:1023BC00DFF868C210608A4A8CF800805080D080A8
:1023CC007D48A2F800809180D0F818C011814CF49F
:1023DC00007CC0F818C0D0F81CC051814CF0020C25
:1023EC00C0F81CC0D0F814C091814CEA08024261BC
:1023FC00426842F440424260C6F808E09A685607C8
:10240C00FCD54FF4E0024FF480707649764E5E6353
:10241C001963DA627549764ADA601A615860996014
:10242C002268744B7449A3FB02038A424FEA53237C
:10243C004FF0000205D35B08B3F5803F02F10102B7
:10244C00F9D801216D4801FA02F2013B013A82628E
:10245C000026C36220244FF0080840F2A1536849BB
:10246C00DFF8BCC1DFF8BCE1446046620E60C1F825
:10247C000CC0C1F808E0C1F804800B604FF00F13DA
:10248C00DFF8A4B1CBF804300B6843F002030B6007
:10249C004FF400625B4B1A605B4BB8461E60012325
:1024AC005A4A5B4CDFF818B116600360434B1B783B
:1024BC00FF2B00F039812E68002033689847B289D1
:1024CC00F38992B29BB230899A4236BFC3EB40017A
:1024DC00D11A891889B2002900F02781884208D2C4
:1024EC0082422CBF131A13189BB2F38101E01B1A02
:1024FC009BB29842FBD972897168C2F30E0202FB3F
:10250C00031109A800F0CAFDF289318992B2531C5B
:10251C009BB29A4240F2168100234A009B1A9BB24E
:10252C00F3810120336898479DF82530013B072B38
:10253C0000F21C81DFE813F0E900DE00DB00D000C4
:10254C00CD007A000E0008000A9B002BB3D00B982C
:10255C009847B0E79DF8281001F07F060BEB46007A
:10256C0000EBD11090F82420CF096FF3000280F813
:10257C00242090F824206FF3820280F82420002E6F
:10258C0000F0EA80027D98F800309A4280F0E180F9
:10259C00DAF8003013EB421300F0EF809E699DF8DF
:1025AC0029200B9B9DF82400B04784E7D34D621083
:1025BC0010E000E000ED00E00010024014000020EC
:1025CC003C010020040000207001002000000000ED
:1025DC00680000204C31000800240140B0040020A9
:1025EC00B4040020E6A004002088410A01099800E8
:1025FC0092244912F1197605C05DC05D00040040BB
:10260C000800024000E100E088040020B403002030
:10261C00E400002034020020640000204C02002062
:10262C008C0400204C2401400000024099F800303A
:10263C00002B00F0A28099F80030013BDBB289F846
:10264C00003099F8003003F0FF02002B7FF433AF19
:10265C009BF800109DF8283041F001018BF8001018
:10266C009BF8241003F0600662F300018BF8241031
:10267C009BF82410602E62F382018BF824109BF8D7
:10268C0025109DF8247062F300018BF825109BF83F
:10269C002510226162F382018BF825100DD0402E9B
:1026AC0000F0548203F01F03012B00F0F381022B86
:1026BC0000F02182002B00F0B080BF4B1B68DE07BE
:1026CC0000D500BE0020FDF7AFFD8020FDF7ACFD6E
:1026DC00F1E69BF80030EEE69BF80030DA077FF568
:1026EC00EAAE0023B54A1360FEF794FAE3E69BF8D2
:1026FC000330E0E69DF82400FFF776FB0023C4E9E5
:10270C000033C4E902332361D5E69DF82400FFF7BA
:10271C006BFB00239DF82820C4E90033C4E9023385
:10272C0023618BF80220C6E6FEE7F38942009BB2D8
:10273C00B3EB400F01DB9B1A9BB2F3810120336892
:10274C009847B3E6B3EB410F4FEA4102FFF6E8AE10
:10275C00E4E612D19A4B21E723789DF82420B7EBBD
:10276C00D31F00920B9A0FD0002A3ED0924B1B68BD
:10277C00DB077FF5A0AE00BE9DE68F4B1B68D9072B
:10278C007FF594AE00BE91E694F90030002B08DB87
:10279C00A06800283FF48FAE8A49029200F07EFCBC
:1027AC00029AE389A168E08813449BB211449842D1
:1027BC00E381A16002D03F2A00F2CB81236933B1BF
:1027CC0002210098804A9847002800F02D820022B0
:1027DC0094F9003011469342B4BF30468020FEF786
:1027EC007BF800287FF467AEC0E7580608D1637801
:1027FC00052B05D1A378754A43F08003A2F84C3021
:10280C004FF48051724A23699181002B3FF453AEEF
:10281C00032100986C4A98474DE6202E00F0EE817B
:10282C00002E7FF44AAF9DF82930092B3FF645AFB7
:10283C0001A252F823F000BFED290008A3290008DB
:10284C00C726000883290008C72600085529000858
:10285C0023290008C72600080D2900086D28000848
:10286C009DF82A609BF801309E4200F03F819BF856
:10287C000130002B40F016828BF80160002E00F026
:10288C0035810B229BF80030524923F030038BF832
:10289C0000300095CDF808900B2A00F081820126BB
:1028AC00042A40F0DF814FF000094B4B4D465A1A79
:1028BC0092B298F800301BE0DAF8003013EB4513B5
:1028CC0000F0D0811B693846CDE904129847DDE948
:1028DC0004120828034609F1010902D9824280F04A
:1028EC00AD8198F800305FFA89F59D4200F2BA810B
:1028FC009D42A5EB0303DFD3039800EB4313E1E701
:10290C009BF8016038460123019A0AA98DF84060B2
:10291C00FEF766FBCFE5BDF82A301A0A511E0629D0
:10292C003FF6D0AE01A050F821F000BF8D2A000870
:10293C00712A00080F2A0008D1260008D1260008A9
:10294C00D1260008712A000800230AAA92E8030085
:10295C00224A84E80300C4E902331846C2E904336E
:10296C0093610121FDF74AFF9BF8003043F002030D
:10297C008BF800309FE5BDF82A30012B7FF4A2AE16
:10298C009BF80030384643F008030AA98BF8003056
:10299C00FDF7DAFF8FE5BDF82A30012B7FF492AEFC
:1029AC009BF8003038466FF3C3030AA98BF800304C
:1029BC00FDF7CAFF7FE500BFF0ED00E094020020B8
:1029CC004C310008A4000020E4000020005C004012
:1029DC000060004085310008FB310008900D00209C
:1029EC0038469BF800309E0806F00206C3F34013ED
:1029FC001E430223019A0AA9ADF84060FEF7F0FAD3
:102A0C0059E513F0FF0300F07282032B00F00582EE
:102A1C00042B3FF657AE9C4A52F823603046FDF724
:102A2C008FFB20280146034628BF202158B1974828
:102A3C00721E1346023312F801CF9B1B994220F8E9
:102A4C0002CFF6D80B4601335B00904A9BB243F49D
:102A5C00407638460AA91680FEF7C2FA00287FF4A1
:102A6C002AAD2FE6022A7FF42DAE894B38465B88BF
:102A7C00874A0AA9FEF7B4FA00287FF41CAD21E6B8
:102A8C0038461223834A0AA9FEF7AAFA00287FF4D3
:102A9C0012AD17E69DF82C300F2B3FF613AE5B44AE
:102AAC001B7998F80020934280F0BA80DAF8002065
:102ABC0012EB43133FF406AE5B69012138460AAAB8
:102ACC002361984700287FF4F6AC9DF8286016F037
:102ADC0060067FF4F7AD9DF82930A3F10A02012AB4
:102AEC003FF6F0AD0A2B26613FF40CAF38460AA92D
:102AFC00FDF72AFFDFE49DF82C0010F0780F7FF42F
:102B0C00DCAD00F07F0C0BEB4C0303EBD013197D09
:102B1C0098F800204FEA4C03914202934FEAD013ED
:102B2C0035D2DAF8002002EB41120092EEB1009B94
:102B3C00002B3FF4C7AD009B5B6938460121236134
:102B4C000AAA984700287FF4B6ACBBE5524B236128
:102B5C00B8E50098FEF712FA00287FF4ACAC05E655
:102B6C00002E7FF4AFAD002200929DF8292002F0D8
:102B7C00FD01012916D0002A7FF49FAD029A384638
:102B8C005A44134493F82460C6F3400631E7E7D166
:102B9C00424A0092002ECED19DF8292002F0FD0170
:102BAC000129E8D1BDF82A60B6B9012A049300F0D6
:102BBC00E380FDF739FB029B5B441A46049B1344EC
:102BCC0093F8242042F0020283F8242093F8242066
:102BDC0042F0010283F82420009B002B3FF46BACE5
:102BEC005B690AAA236101213846984700229BF8A9
:102BFC0025302261DB073FF55EAC77E79DF82C3082
:102C0C000F2B3FF65FAD5B441A7998F800309A426F
:102C1C0010D2DAF8003013EB42133FF453AD8BE7CC
:102C2C007FF450AD1D4B47E7FDF7FEFA8020FDF712
:102C3C00FBFA40E47FF446AD184B7DE7002E00F024
:102C4C00338188788219D2B203E08242357100F068
:102C5C002B810BEB000696F804C00130BCF1FF0F82
:102C6C00C0B2F2D00E4B009D1B68DDF80890D8075F
:102C7C0000D500BE0A4B1B68D90700D500BE002347
:102C8C008BF801301EE500BF14320008F80000205C
:102C9C007C310008FC3100086D0400084C31000840
:102CAC00F0ED00E01323DFF8C4E2AC49BEF84000BD
:102CBC00002B20F400704FEA00404FEA1040AEF8B1
:102CCC0040000A464FF0010C8E460CDBA449580913
:102CDC0003F01F0320300CFA03F341F82030BFF34C
:102CEC004F8FBFF36F8F9F4B934206D012F9013B6E
:102CFC00002BEBDA9B4B9342F8D1714601204FF03D
:102D0C00000E4FF0FF0C984B0092984A043322F8B7
:102D1C0020E00130082883F800C083F801C083F854
:102D2C0002E083F803E0F0D1009ABFF34F8FBFF3BA
:102D3C006F8F1323002B4FF0010C964607DB884A4C
:102D4C0003F01F000CFA00F05B0942F823008E45DB
:102D5C0005D011F9013B002BF1DA8E45F9D1C023D6
:102D6C009BF8022038460092814A1380FFF73CF80A
:102D7C00009A8BF802207FE5FDF7C2FA029B5B44B8
:102D8C001A46049B134493F8242066F3410283F8FB
:102D9C00242093F8242066F3000283F824201BE7F8
:102DAC000B78CE7819444A787AE51168091A022909
:102DBC003FF65FA919688C01F7D4012459686D4856
:102DCC0021F40031596059686B4D21F4741141F4B0
:102DDC00E81159600460116804E013685B1A022B57
:102DEC003FF647A92B689801F7D5FFF742B914A90C
:102DFC00C3F383420A4412F8101CDA0347D5626805
:102E0C005E4BC2F3404203FB01F314A90A4412F8CF
:102E1C00202CB3FBF2F3FFF709BA594B002B3BD034
:102E2C0010210CA8AFF300801028034628BF1023F4
:102E3C00009348B34FF0000ECDE904750CAB514E26
:102E4C000293514F019D97E80F00029F85E80F00F8
:102E5C00BC461CF8017B14ABCDF808C007F00F0C76
:102E6C0003EB171717F8103C14AD7380AC44009BA0
:102E7C001CF810CC0EF1010E7345A6F804C006F137
:102E8C000406DED8DDE90475009B5B00DBE53F4BF7
:102E9C0003FB01F3FFF7CAB9082300933C4B0C93D7
:102EAC0003F188330D93C5E70B4499420ED24A784F
:102EBC00052A07D1887800F07F020BEB420202EB67
:102ECC00D01215750A7811448B42F0D898F800206E
:102EDC00AA42FFF4C7AE2F4A93420ED301232E4AC7
:102EEC00009DDDF808901360FDF794FEFEE52B4B7A
:102EFC0024491A8801234A80A5E519465A78CBE45F
:102F0C005B68FFF7B6B8DFF89CA0FFF71DBA00238B
:102F1C00234A0893137003E000BF089B0133089306
:102F2C00089BC72BF8D903210023104AA2F84010A4
:102F3C00079303E000BF079B01330793079BC72B45
:102F4C00F8D90021094AB2F8403023F002031B04DF
:102F5C001B0CA2F8403006912AE000BF1132000889
:102F6C0000E100E01332000898020020005C0040F1
:102F7C00B8020020600042420010024000127A00A9
:102F8C0000000000F80000200031000800093D009E
:102F9C0001234567FB3100089402002048310008EA
:102FAC00140000206400002000BF069B0133069330
:102FBC00069BC72BF8D90023124A1349A1F84030BD
:102FCC00A1F85030A1F844300B801380938013810A
:102FDC009381138293821383B1F840309BB243F4F4
:102FEC005D43A1F84030FDF7C7FDFDF7D5F8FFF7BD
:102FFC00D3B9064B1B68DB0700D500BEFDF720FAE2
:10300C00FFF7CAB9045C0040005C0040F0ED00E042
:10301C0070B4184C01202346174A184904F12005B6
:10302C00506053F8042F31F8020FAB4202441A607F
:10303C00F7D1134A13680133012B17DD0021114E10
:10304C0011603068C300672B0EDC0F4A02EB0012D4
:10305C0054F8043F5B0883F40043AC4222F8023B73
:10306C002160F5D10130306070BC7047136070BCCA
:10307C00704700BF88030020000002408A04002033
:10308C00B403002088040020B80300200346024447
:10309C00934200D1704703F8011BF9E70A449142AF
:1030AC0000F1FF3300D1704710B511F8014B91427C
:1030BC0003F8014FF9D110BDF8B500BFF8BC08BC3E
:1030CC009E467047F8B500BFF8BC08BC9E467047DA
:1030DC0000000000010000000000000002000000E1
:1030EC0002030405060708090A0B0C0D0E0F10103D
:1030FC000000000030313233343536373839414234
:10310C00434445460000000050616E6952436F72A3
:10311C007000000054696E79555342204D4943208C
:10312C003863680055414332000000000000000085
:10313C00000000000102030406070809090400004E
:10314C0000000000991E0008490500087D1E0008BB
:10315C00150A0008A1170008710F000845050008A2
:10316C0020000020030000001800002001000000D7
:10317C0009027F000201008032080B0002010020CE
:10318C0000090400000001012000092401000203D1
:10319C002E000008240A040101010011240201017F
:1031AC000203040800000000000400000C240303C8
:1031BC0001010101040000000904010000010220CA
:1031CC000009040101010102200010240103000187
:1031DC00010000000800000000000624020102109B
:1031EC0007058105D0000108250100000000000042
:1031FC0012010002EF020140FECA18400001010258
:10320C000301000013142A0048310008143100088F
:0C321C00203100080000000030310008E4
:043228003101000868
:04322C000D01000888
:103230000024F400610400087401002010000C0058
:1032400000000000FF000000001001400D0101001F
:10325000000801400F010000000801400B040000BD
:0C326000000801400C04000010000000F9
:040000050800015D91
:00000001FF
